:100000000C9479030C94C0030C94C0030C94C003AB
:100010000C94C0030C94C0030C94C0030C94C00354
:100020000C94C0030C94C0030C94172F0C94EB2F6A
:100030000C9465240C94C0030C94C0030C94C0036E
:100040000C94C0030C94C0030C94C0030C94C00324
:100050000C94C0030C94BC240C94C0030C94C003F7
:100060000C94C0030C94C0030C94C0030C94C00304
:100070000C94C0030C94C0030C94C0030C94C003F4
:100080000C94C0030C94C0030C94C0030C94C003E4
:100090000C94C0030C94C0030C94C0030C94C003D4
:1000A0000C94C0030C94C0030C94C00329001E00E0
:1000B0001F0020002100220023002400250026002C
:1000C00027002D002E022B0014001A000800150036
:1000D00017001C0018000C00120013002F00300045
:1000E00039000000000000000400160007000900AD
:1000F0000A000B000D000E000F0033003400280032
:100100000000E10000001D001B00060000001900B7
:10011000000000000500000011001000360037004C
:10012000380037440000000000000000000000001C
:1001300000000000000000000000000000000000BF
:1001400000000000000000000000000000000000AF
:10015000000000000000000000000000000000009F
:10016000000000000000000000000000000000008F
:10017000000000000000000000000000000000007F
:10018000000000000000000000000000000000006F
:10019000000000000000000000000000000000005F
:1001A000000000000000000000000000000000004F
:1001B000000000000000000000000000000000003F
:1001C000000000000000000000000000000000002F
:1001D000000000000000000000000000000000001F
:1001E000000000000000000000000000000000000F
:1001F00000000000000000000000000000000000FF
:1002000000000000000000000000000000000000EE
:1002100000000000000000000000000000000000DE
:1002200000000000000000000000000000000000CE
:1002300000000000000000000000000000000000BE
:1002400000000000000000000000000000000000AE
:10025000000000000000000000000000000000009E
:10026000000000000000000000000000000000008E
:10027000000000000000000000000000000000007E
:10028000000000000000000000000000000000006E
:10029000000000002A2B28000000000000000000E1
:1002A0000000000000000029000000002C1E342087
:1002B000212224342627252E362D3738271E1F20AD
:1002C0002122232425263333362E37381F040506F2
:1002D0000708090A0B0C0D0E0F1011121314151636
:1002E0001718191A1B1C1D2F3130232D3504050634
:1002F0000708090A0B0C0D0E0F1011121314151616
:100300001718191A1B1C1D2F3130354C0000000026
:1003100000000000000000000000000000000000DD
:1003200000000000000000000000000000000000CD
:100330007E0F00D4FFFFFFC70000007800047F3F5E
:100340001F643214643214783C1E1E140A052223E2
:10035000252628292A2C2D2F3032333536383A3BA2
:100360003D3E4042434547494A4C4E5051535557F4
:10037000595A5C5E6062646668696B6D6F71737513
:1003800077797B7D7F81838587898A8C8E90929413
:1003900096989A9C9E9FA1A3A5A7A8AAACAEAFB120
:1003A000B3B4B6B8B9BBBCBEBFC1C2C3C5C6C7C96A
:1003B000CACBCCCDCED0D1D2D2D3D4D5D6D7D7D824
:1003C000D9D9DADADBDBDBDCDCDCDCDCDDDDDDDD76
:1003D000DCDCDCDCDCDBDBDBDADAD9D9D8D7D7D67E
:1003E000D5D4D3D2D2D1D0CECDCCCBCAC9C7C6C535
:1003F000C3C2C1BFBEBCBBB9B8B6B4B3B1AFAEAC7B
:10040000AAA8A7A5A3A19F9E9C9A98969492908E25
:100410008C8A89878583817F7D7B79777573716FFE
:100420006D6B6968666462605E5C5A5957555351DA
:10043000504E4C4A4947454342403E3D3B3A383690
:10044000353332302F2D2C2A292826252322FFAAA6
:100450007F55400001010101010101010102020279
:100460000202020202020303030303030303040460
:10047000040404040405050505050606060606072A
:100480000707070708080808090909090A0A0A0BE3
:100490000B0B0C0C0C0D0D0D0E0E0E0F0F0F101084
:1004A000111111121213131414151516161717180B
:1004B0001819191A1A1B1B1C1D1D1E1E1F20202176
:1004C0002222232424252626272829292A2B2C2DBD
:1004D0002D2E2F30313232333435363738393A3BDE
:1004E0003C3D3E3F404142434445464748494A4CD3
:1004F0004D4E4F50515354555658595A5B5D5E5F9F
:10050000616264656668696B6C6D6F707273757734
:10051000787A7B7D7E8082838587888A8C8E8F9196
:10052000939596989A9C9EA0A2A3A5A7A9ABADAFC0
:10053000B1B3B5B7BABCBEC0C2C4C6C9CBCDCFD1AA
:10054000D4D6D8DBDDDFE2E4E7E9EBEEF0F3F5F853
:10055000FAFDFF0E034B006F0072006F006E006526
:100560000000001C034B006900730065007200204E
:1005700000440065007300690067006E00730000AE
:10058000000403090409029F00040100A0FA090401
:1005900000000103010100092111010001224000B6
:1005A0000705810308000A09040100010300000097
:1005B000092111010001227B000705820320000AA6
:1005C000080B020201010000090402000001010001
:1005D00000092401000109000103090403000201CC
:1005E000030000072401000141000624020101006C
:1005F000062402020200092403010301020100098A
:100600002403020401010100090504024000050061
:1006100000052501010109058302400005000005D0
:10062000250101031201000200000008444B6E4B3B
:1006300001000102000105010902A1018502090171
:10064000A100050919012908150025019508750162
:1006500081020501093009311581257F9502750850
:10066000810609381581257F950175088106050CDD
:100670000A38021581257F950175088106C0C005DD
:10068000010980A101850319012AB700150126B7C8
:1006900000950175108100C0050C0901A1018504B8
:1006A00019012AA002150126A002950175108100EA
:1006B000C005010906A101050719E029E715002574
:1006C00001950875018102950175088101050719D9
:1006D0000029FF150026FF00950675088100050812
:1006E000190129059505750191029501750391017F
:1006F000C00011241FBECFEFDAE0DEBFCDBF04B6CD
:1007000003FE27C080911E0490911F04A091200435
:10071000B09121048730904BA740B04BD1F4109298
:100720001E0410921F04109220041092210414BE83
:1007300084B7877F84BF0FB6F894A8958091600036
:10074000886180936000109260000FBEE0E0F8E3E3
:10075000099511E0A0E0B1E0E2ECF5E602C00590F9
:100760000D92A23FB107D9F724E0A2EFB1E001C09A
:100770001D92AE31B207E1F70E94A7140C94AA3281
:100780000C9400000C943F130C94C603811108C014
:100790008AEA611101C089EA0E94630681E0089536
:1007A0008130E1F781E56111F7CF82E5F5CF9C015A
:1007B0003A9521153F4150F5FC01EE27F170BC013F
:1007C00066277270AC01442754709C012227387050
:1007D00094FF0EC080E1EF2B09F480E0672B09F055
:1007E0008062452B09F08064232B89F0806808958E
:1007F00081E0EF2B09F480E0672B09F08260452B44
:1008000009F08460232B19F08860089580E0089532
:10081000CF93DF93EC010E94D7039E01205E310944
:100820002830310510F0209739F40E946B068C2F88
:10083000DF91CF910C94CF050E94CE08F8CFCF93D3
:10084000DF93EC010E941D06CE010E94D7039E019A
:10085000205E31092830310510F0CD2B21F4DF91D5
:10086000CF910C947206DF91CF910C94D508CF9361
:10087000DF93EC010E940804CE01DF91CF910C942C
:100880001F0481E0089581E008950C9443040895C5
:100890000C9447041F93CF93DF9300D000D00F92A6
:1008A000CDB7DEB749835A836B833091F4018981D8
:1008B0009A8131111DC06623B9F02223A9F00E944C
:1008C0009D0A182F682F89819A810E94490A69819F
:1008D0007A81812F0F900F900F900F900F90DF91E2
:1008E000CF911F910C940B110E94750A182FEFCF16
:1008F0000E949D0A69817A81EDCFFC01262F4081FB
:1009000051816281738184810C944A0481E008954D
:10091000CF93DF93EC0160E00E947D04BE01DF9184
:10092000CF910C9448040E941B130E9483050E94DF
:10093000B1200C94C2030C94411308950E94F20854
:100940000E949D042FEF84E39CE021508040904062
:10095000E1F700C000000C94E0240F931F93CF93A5
:10096000DF938C0161E00E947D04EC01B8010E94DC
:100970004504882309F441C0B801CE010E943C21FE
:100980008823D9F1B801CE010E94C6218823A9F19C
:10099000B801CE010E941822882379F1B801CE0156
:1009A0000E943B23882349F1B801CE010E94A31E77
:1009B000882319F1F8018281882361F0CB35FDE5A8
:1009C000DF0721F170F4C115ECE5DE07A1F0CF3DA2
:1009D000DC45C9F0C801DF91CF911F910F910C94B4
:1009E0004104CC358DE5D807A1F0CD35DD4591F733
:1009F0000E947A0EEFCF0E949E0480E0DF91CF919B
:100A00001F910F9108950E94F30FF7CF0E94830E5C
:100A1000E1CF0E94860EDECFDF92EF92FF920F931E
:100A20001F93CF93DF93E82FF0E0E457FD4FD4906E
:100A3000282F26952695269530E0F901E45DFC4F98
:100A40000491877010E0082E02C0159507950A944E
:100A5000E2F701701127F901E45EFC4FE490F12CFC
:100A6000082E02C0F594E7940A94E2F791E0E92297
:100A7000FF24F901E45FFC4FC491D0E002C0D5959A
:100A8000C7958A95E2F7C170DD270115110519F0A8
:100A900081EE0E94CF05E114F10419F086EE0E9468
:100AA000CF058D2D0E946306EF2819F086EE0E9477
:100AB0001D06012B19F081EE0E941D06CD2B51F071
:100AC0008CE2DF91CF911F910F91FF90EF90DF901B
:100AD0000C946306DF91CF911F910F91FF90EF90DF
:100AE000DF900895982F9F709A50963018F0805D8F
:100AF0000C940C05895AFCCF08950C947C0581E078
:100B000008950C947F050895CF93C82F0E947D050A
:100B10008C2FCF910C948105CF93DF93CDB7DEB7A7
:100B20002B970FB6F894DEBF0FBECDBF4F8358870B
:100B300069877A878B8761110E94AC0E1E821D82A5
:100B400085E0FE013796DE01119601900D928A959F
:100B5000E1F78C819D81892B89F449815A816B81D0
:100B60007C818D819E810E94A90D2B960FB6F894F1
:100B7000DEBF0FBECDBFDF91CF91089589819A81ED
:100B800089238F3F51F3CE0101960E948604811183
:100B9000E4CFEBCFFC01808191810C94DF0ACF93ED
:100BA000C82F882309F447C08CEF8C0F813AA0F43A
:100BB0006C2F80910001909101010E94D023882325
:100BC00029F08C2F0E944A0E0E94DC0E8C2F0E946E
:100BD000430ECF910C94DC0E80E28C0F883048F4E9
:100BE000C77081E001C0880FCA95EAF70E948C0E99
:100BF000F0CFEBE5EC0FE33040F4F0E0EE59FE4FC0
:100C0000808190E0CF910C949223E8E5EC0FE731DE
:100C100050F4F0E0EE0FFF1FEC5CFE4F80819181FD
:100C2000CF910C94A823CD3E30F08C2F0E947216E9
:100C3000CF910C944517CF910895882361F19CEFD3
:100C4000980F913A20F40E944A0E0C94DC0E90E228
:100C5000980F983050F4877091E001C0990F8A95F1
:100C6000EAF7892F0E94920EF0CF9BE5980F933000
:100C700020F490E080E00C94922398E5980F97314F
:100C800020F490E080E00C94A8238D3E20F00E9498
:100C9000CC160C94451708951F93CF93DF93182F0C
:100CA000EB010E94CF05209731F4812FDF91CF9186
:100CB0001F910C941D068FE99FE00197F1F700C08A
:100CC00000002197F0CF70E060E0893311F460E517
:100CD00070E00C944C06882321F00E948C0E0C943A
:100CE000DC0E0895882321F00E94920E0C94DC0EF5
:100CF0000895BF92CF92DF92EF92FF920F931F93CE
:100D0000CF93DF936C01D62FC72FFC011281058191
:100D100002950F700E94610EE82E8823A1F0E12E4B
:100D2000112389F08C2F807F803429F080E28D0F91
:100D3000E12C883040F082E00E942D0F0E94610E6D
:100D400091E0E82EE926BC2EB2949FE0B922EB2D6B
:100D5000F0E0E455FD4C0C94F5310C2F0F70C07F82
:100D600011F00295007F1123A9F0002359F080E2D1
:100D70008D0F883010F0D11109C0802F0E948C0E89
:100D80000E94DC0E8D2F0E94CF0514C0802F0E9480
:100D90009F0EF6CF8D2F0E941D06002359F080E292
:100DA0008D0F883010F0D1112CC0802F0E94920E30
:100DB0000E94DC0E2B2D2850330B2430310520F4FB
:100DC0000E946A230E948405EE2009F49EC10E94BD
:100DD0005D0E80FD9AC1F60112820E94570E0E949C
:100DE000AD09C6010E94A6080E94570EDF91CF915F
:100DF0001F910F91FF90EF90DF90CF90BF900C94D8
:100E0000CE09802F0E94A50ED3CFFC2FFF70FF2E9E
:100E1000C07FC03219F0F29480EFF822DD2369F030
:100E2000D13049F1112391F1002351F1F60185816F
:100E300080FFA8CF8F70858323C0112381F001111B
:100E400006C00E94BF0E8F290E946B06B3CF0130EF
:100E5000C1F70E94BF0E8F290E94C50EABCF0111B2
:100E600006C00E94D20E8F2D0E947206A3CF0130C1
:100E700009F4A0CFF6CF112329F0063008F09ACF5D
:100E80008F2DE2CF053008F095CFEDCF002359F339
:100E9000D93349F4FFEF27EE33E0F15020403040E2
:100EA000E1F700C000008D2F0E941D0683CF8C2F1C
:100EB00086958695837069F0813009F07BCF8D2F00
:100EC0009C2F9370111102C090E080E00E94A82333
:100ED00071CF8D2F9C2F9370111102C090E080E094
:100EE0000E94922367CF8D2F112329F00E94721642
:100EF0000E9445175FCF0E94CC16FACF8C2F8370CB
:100F000009F041C0111156CF4D2F429546954770BB
:100F1000440F440F0D2F0F7010E030E020E0042E3E
:100F200004C0000F111F221F331F0A94D2F760E084
:100F300070E0CB01D4FF0FC06FE070E080E090E084
:100F400004C0660F771F881F991F4A95D2F76095D6
:100F5000709580959095C695C695C370602B712B42
:100F6000822B932BC23049F058F4C13019F00E9403
:100F70005F0920CF0E944D091DCF0E9471091ACF31
:100F80000E944B0917CF8695112311F08C2F817089
:100F9000882309F40FCF4D2F429546954770440F93
:100FA000440F0D2F0F7010E030E020E0042E04C03D
:100FB000000F111F221F331F0A94D2F760E070E068
:100FC000CB01D4FF0FC06FE070E080E090E004C080
:100FD000660F771F881F991F4A95D2F76095709505
:100FE00080959095C695C695C370602B712B822B0A
:100FF000932BC23049F058F4C13019F00E94240AF2
:10100000D9CE0E94120AD6CE0E94360AD3CE0E94B2
:101010008709D0CECF70112329F08C2F0E94AD0903
:101020008D2F12CF8D2F0E9472068C2F0E94CE0919
:10103000C1CED23F89F160F4D03FC9F0D13F29F150
:10104000112309F442C001119DCE8C2F8F7121C054
:10105000D33F39F1D43FA1F7112369F1CF718C2F20
:101060000E94AD0963E08C2F0E94120FA3CE1123C2
:1010700041F0053008F09ECE8C2F8F710E94F1094F
:1010800099CE063008F096CEF7CF8C2F8F711123B2
:1010900069F20E94AD098ECE8C2F8F711123C9F396
:1010A000C5CF112329F08C2F8F710E94980982CE11
:1010B0000E9493097FCE81E00E942D0F023008F438
:1010C00079CE82E00E942D0F75CE002359F0D933DE
:1010D00009F0E9CE8FEF97EEE3E081509040E040D9
:1010E000E1F7DFCE8C2F8F71A1CF4C2F4F706D2F7A
:1010F000C6010E9407110E940D0B5CCE4C2F4F7051
:101100006D2FC6010E940A1155CEDF91CF911F911C
:101110000F91FF90EF90DF90CF90BF9008950F93C5
:101120001F93CF93DF93EC01688179818A810E94BC
:10113000E90A8C010E94480A0E944A09B801CE01BE
:10114000DF91CF911F910F910C947906CF93DF938C
:10115000EC018B819C81892B29F0888199818923DD
:101160008F3F59F4DF91CF910895CE010E948F08EF
:10117000CE01DF91CF910C948804CE010E94AD0482
:101180008111F3CF0E94610E882361F38A81882345
:1011900049F382E0DF91CF910C942D0F882321F049
:1011A0000E949F0E0C94DC0E0895882321F00E946B
:1011B000A50E0C94DC0E089590E080E00E9492232E
:1011C00090E080E00E94A8230E94AC0E0E94BC0E1A
:1011D0000E94DC0E0E946C180C9445170E94510E60
:1011E0000C94DC080E949C0E0C94EE08E92FE2950A
:1011F000EF70E250EE3070F4F0E0E454FD4C0C94EB
:10120000F531803F19F020F4883E20F481E0089504
:10121000843FE1F380E00895883EC0F3813FD1F739
:10122000F5CF93FB882780F90895FC018081918197
:101230000E94DF0A0C94F608CF93DF9300D000D011
:101240000F92CDB7DEB70F900F900F900F900F90C9
:10125000DF91CF910895CF93DF9300D000D000D0DD
:10126000CDB7DEB726960FB6F894DEBF0FBECDBF62
:10127000DF91CF91089508950C943B090E943C0999
:1012800060932102709322028093230290932402A0
:101290000C94DC0808950C943E090F931F93009161
:1012A0002102109122022091230230912402602B0E
:1012B000712B822B932B1F910F910C943E090F934E
:1012C0001F9300912102109122022091230230915C
:1012D000240260237123822393231F910F910C9486
:1012E0003E090F931F930091210210912202209139
:1012F00023023091240260277127822793271F91B0
:101300000F910C943E090C943B090C9483090E94A4
:10131000850960931D0270931E0280931F029093B3
:1013200020020C94DC0860E070E0CB010C9487098B
:101330000F931F9341E050E060E070E08A019B0151
:1013400004C0000F111F221F331F8A95D2F7C90155
:10135000B8011F910F910C9487090F931F9341E0DF
:1013600050E060E070E004C0440F551F661F771F17
:101370008A95D2F780911D0290911E02A0911F02C2
:10138000B09120028A019B01082B192B2A2B3B2BA1
:10139000C901B8011F910F910C9487090F931F93F6
:1013A00041E050E060E070E004C0440F551F661F4C
:1013B000771F8A95D2F7CB01BA0160957095809519
:1013C000909500911D0210911E0220911F023091F4
:1013D000200260237123822393231F910F910C9489
:1013E00087090F931F9341E050E060E070E004C074
:1013F000440F551F661F771F8A95D2F780911D02F3
:1014000090911E02A0911F02B09120028A019B01BF
:10141000082719272A273B27C901B8011F910F91D7
:101420000C9487090F931F9300911D0210911E02C7
:1014300020911F0230912002602B712B822B932B65
:101440001F910F910C9487090F931F9300911D0218
:1014500010911E0220911F023091200260237123FF
:10146000822393231F910F910C9487090F931F934D
:1014700000911D0210911E0220911F023091200246
:1014800060277127822793271F910F910C9487095A
:1014900008952FE0929F800D1124982F977041E0BE
:1014A00001C0440F9A95EAF786958695869595E052
:1014B000899FF0011124EB50FE4F90E080E070E036
:1014C0005191DF0111979B01082E02C03695279597
:1014D0000A94E2F7217021952527242325272C93B0
:1014E00001968530910561F708952FE0929F800D58
:1014F0001124982F977086958695869525E0829F72
:10150000F0011124EB50FE4F50E040E080E02191CB
:1015100030E0092E02C0369527950A94E2F7217033
:101520003327042E01C0220F0A94EAF7822B4F5F63
:101530005F4F4530510559F70895BF92CF92DF9222
:10154000EF92FF920F931F93CF93DF938C01C09084
:101550001D02D0901E02E0901F02F09020028091A8
:10156000210290912202A0912302B0912402C82A64
:10157000D92AEA2AFB2ACFE1D0E0BC2ED701C60146
:101580000C2E04C0B695A795979587950A94D2F727
:1015900080FD0EC0219788F7B12C8B2DDF91CF9164
:1015A0001F910F91FF90EF90DF90CF90BF90089523
:1015B000B8018C2F0E943A12019761F3EECFCF93BE
:1015C000DF93EC010E949D0ABE01DF91CF910C9444
:1015D0003A121F93CF93DF93EB019091F40199237B
:1015E00031F0CB01DF91CF911F910C94DF0A88235A
:1015F00079F0CB010E949D0A182F682FCE010E941E
:10160000490ABE01812FDF91CF911F910C943A12AC
:10161000CB010E94750A182FF4CFEF92FF920F931F
:101620001F93CF93DF938C01892B81F0F12CEE2453
:10163000E394E8012196F8018491843770F48430B2
:1016400008F05FC08130B1F08230A1F1DF91CF911D
:101650001F910F91FF90EF900895853709F44CC0CA
:1016600008F43DC09CE7980F903780F78F770E9471
:101670001D0649C00E5F1F4FFE01849190E2980F36
:10168000983060F48770FE2D01C0FF0F8A95EAF74D
:101690008F2F0E94AF0E0E94DC0E02C00E94CF0569
:1016A0008F2D815030F2EFE9FFE03197F1F700C064
:1016B0000000F7CF0E5F1F4FFE01849190E2980F5C
:1016C000983050F48770FE2D01C0FF0F8A95EAF71D
:1016D0008F2F0E94B50EDFCF0E941D06E1CF0E5F57
:1016E0001F4FFE01C491C150D8F28FE99FE00197CE
:1016F000F1F700C00000F7CF0E5F1F4FFE01F4901E
:10170000CFCF0E94CF058E01CBCF1F93CF93DF9316
:10171000C091250216E0809126028C1304C0DF914F
:10172000CF911F910895D0E01C9FF0011D9FF00DF7
:101730001124E95DFD4F4081518162817381848173
:1017400095810E942B092196C770E5CF40915702E1
:10175000509158026091590270915A0280915B0237
:1017600090915C020C942B091F93CF93DF9380918F
:101770005C02807FA9F480915902882389F08091CE
:101780002502C09126026091570270915802A091E3
:101790005A02B0915B02D62FD72316E0C81304C0BB
:1017A000DF91CF911F91089590E0109711F0DF3FE6
:1017B00019F401968770F2CF189F9001199F300D90
:1017C0001124F901E95DFD4F41814713F2CF4081BA
:1017D0004613EFCF42814111ECCF438154814A1B24
:1017E0005B0B483C510528F780915C028F7080614B
:1017F00080935C02F901E45DFD4F80818F70806110
:10180000808387E592E00E94A608DF91CF911F9127
:101810000C94850BAF92BF92CF92DF92EF92FF9222
:101820000F931F93CF93DF93CDB7DEB761970FB6BA
:10183000F894DEBF0FBECDBF8C0185E0F801DE015C
:101840001D9601900D928A95E1F7F801E28087E5F7
:10185000C82E82E0D82E60915A0270915B02611509
:10186000710509F45AC19091570220915802892FAD
:1018700082238F3F09F451C140815181A380B480FC
:10188000F0905902F501E61BF70BFF2009F4F6C0B2
:1018900080915C02382F307FE83CF10508F0AFC042
:1018A000311179C0FE2C251323C0941321C0E110FF
:1018B0001FC08F70806180935C020E94A60BC601DE
:1018C0000E94A60880915C02F80185838F2D6196A5
:1018D0000FB6F894DEBF0FBECDBFDF91CF911F9141
:1018E0000F91FF90EF90DF90CF90BF90AF90089551
:1018F000AB2829F0842F85238F3F09F027C180E092
:10190000F82FF170DF2E80FF3CC0809125022091DE
:10191000260236E0821315C04D875E878D859E8531
:101920000E94DF0A292F22952F702230F0F02430F8
:1019300018F59F70F1F0F8019581907FD1F4D12CCA
:101940001EC090E0389FF001399FF00D1124E95D31
:10195000FD4F6181651306C06081641303C062811D
:10196000E6120FC001968770D5CF9F7011F08823C3
:1019700031F3805E883018F3C8010E94A608FD2C60
:10198000A5CFEE2009F4A2CF80915C028160809304
:101990005C02F12C9BCF251306C0941304C0F80100
:1019A000EE2009F487C0C8010E941509882319F1A7
:1019B000EE2009F180915C02803270F02091570294
:1019C0003091580238872F831986BB86AA868C8768
:1019D000CE0107960E94A60886E0F801A7E5B2E0CE
:1019E00001900D928A95E1F70E94B40B0E94A60B1C
:1019F000FF24F3946BCFC8010E94A608F9CF3111E0
:101A000013C07A2DB98AA88A6E2D89890E941C0973
:101A100087E592E00E94A60886E0F60111928A9579
:101A2000E9F70E94A60BB5CF25130FC094130DC084
:101A3000E1100BC0F8018583C8010E94A60886E06A
:101A4000F60111928A95E9F741CFC8010E94150964
:101A5000882389F2EE2079F280915C02803208F4CA
:101A6000BBCF20915702309158023A8329831B82C1
:101A7000BD82AC828E83CE010196ACCFE83CF105ED
:101A800008F03EC0FE2CEE2009F4B5CF25132AC085
:101A9000941328C080915C0280FD1BC0982F907F1A
:101AA000C1F0F8018583903F31F0982F907F905FCF
:101AB0008F70892B8583C8010E94A60886E0F801F3
:101AC000A7E5B2E001900D928A95E1F70E94A60B7E
:101AD000FDCE86E0F801A7E5B2E001900D928A956F
:101AE000E1F7F4CEC8010E941509811175CF8091EC
:101AF0005C02816080935C02C8010E94A608E6CE69
:101B00007A2DB98AA88A6E2D89890E941C0986E0DF
:101B1000F60111928A95E9F7D9CFEE2009F46BCF3F
:101B2000C8010E941509F82E882309F464CF86E0C5
:101B3000F801A7E5B2E001900D928A95E1F787E5FB
:101B400092E00E94CA050E94B40BC0CF81E08E25AE
:101B5000D7CE1F93CF93DF93CDB7DEB72C970FB6B9
:101B6000F894DEBF0FBECDBF4F83588769877A8751
:101B70008B879C87CE0107960E940A0C882369F008
:101B80008A859B85892B39F04F815885842F852341
:101B90008F3F09F071C016E05FC086E0FE01379606
:101BA000DE01119601900D928A95E1F78A859B8559
:101BB000892B89F38F81988589238F3F61F3209149
:101BC000260230E0C90101968770992740912502CD
:101BD0004817190671F40E94F2081092260210921A
:101BE000250286E0E7E5F2E0DF011D928A95E9F73C
:101BF000D2CF96E0929FD001939FB00D1124A95DA2
:101C0000BD4FFE01319601900D929A95E1F78093B8
:101C100026020E94850BBFCF819FC0011124895DE0
:101C20009D4F0E940A0C8823E9F0E09125021E9F37
:101C3000F0011124E95DFD4F408151816281738182
:101C4000848195810E942B098091250290E0019664
:101C50008770992780932502809125029091260212
:101C60008913DACF2C960FB6F894DEBF0FBECDBF26
:101C7000DF91CF911F91089569857A858B859C8529
:101C80000E942B0988CF682F80910001909101015B
:101C90000C940624682F80910001909101010C940E
:101CA000082480910001909101010C940A248091F4
:101CB0005D02859585958595089580915D02877073
:101CC000089590915D02977081E009F480E0089595
:101CD0009091E00292FB222720F9281751F080FB17
:101CE00092F99093E0028091DF029091E0020C94CF
:101CF0006F0F08958091E00282FB882780F991E0C0
:101D000089270C94680E81E00C94680E80E00C9496
:101D1000680E80916902089590916902892B8093E1
:101D200069020895809590916902982390936902C1
:101D30000895809369020895109269020895909120
:101D40006802892B809368020895809590916802BB
:101D500098239093680208951092680208959091D4
:101D60006702892B8093670208958095909167029E
:101D700098239093670208951092670208958091C6
:101D80005E02089508950C94C20E9091E00292FDB7
:101D900008C090915E02981721F080935E020C9427
:101DA000C30E089580915E02882329F010925E028E
:101DB00080E00C94C30E0895E0910001F0910101C0
:101DC000809169028083E0910001F091010180819E
:101DD00090916802892B8083E0910001F0910101CC
:101DE000808190916702892B808390915E02992374
:101DF00081F0E0910001F09101018081892B8083C5
:101E000080910001909101010E94BE2381110E94E6
:101E1000D20E80910001909101010C9479230895D4
:101E20000C940F0F9091E00292FD10C098E0899FF2
:101E300090011124622B60935D020E94AD09809194
:101E40005D028595859585950C94100F0C94AD09D0
:101E500010925D0280E00C94100F90915D028095CD
:101E6000892380935D02282F277039F4282F082EAC
:101E7000000C330B9217130621F49091E00292FFAD
:101E800007C08595859585950E94CE090C94280FED
:101E9000089590E080E00E94703221E0893E9E4FDC
:101EA00009F020E0822F089582E090E00C946232E5
:101EB00083E090E00C946232682F83E090E00C9411
:101EC0007632CF9384E090E00E946232C82F82E2A3
:101ED00090E00E946232982F8C2FCF910895CF937B
:101EE000C92F682F84E090E00E9476326C2F82E246
:101EF00090E0CF910C947632AB01BC018FE090E082
:101F00000C948832AB01BC0183E190E00C948832E0
:101F100060E070E0CB010C94820F60E070E0CB01D8
:101F20000E947C0F0C94880F69EE7EEF90E080E0B9
:101F30000E94943260E082E090E00E94763260E09D
:101F400083E090E00E9476321092210210922202E9
:101F5000109223021092240260E084E090E00E943C
:101F6000763260E082E290E00E94763260E085E0C6
:101F700090E00E94763260E086E090E00E94763247
:101F80006FEF87E090E00E94763240E050E0BA01C7
:101F900088E090E00E94883260E08DE090E00E944E
:101FA000763240E050E0BA0188E190E00E94883249
:101FB00060E087E190E00E94763240E050E0BA01B4
:101FC0008CE190E00E94883270E060E080E290E076
:101FD0000E94943240E050E0BA0188E190E00E9413
:101FE00088320C948D0F0C94940F682F8EE090E043
:101FF0000C9476320E94A12460937B0270937C0241
:1020000080937D0290937E026093770270937802B2
:102010008093790290937A0208950E94A12460939C
:102020007B0270937C0280937D0290937E0260938A
:1020300073027093740280937502909376020895F0
:1020400085B7806885BF85B7806885BF0895089586
:1020500008950C94271008950C942B100E942010C2
:1020600088E193E10E9404250E9428100C94291015
:1020700081E008950C943810089508950E943C1052
:102080000C943D100E948C240E9400140E94C21DDA
:102090000E949A1F0C942C108F929F92AF92BF9225
:1020A000CF92DF92EF92FF920F931F93CF93DF9324
:1020B000CDB7DEB72A970FB6F894DEBF0FBECDBFFF
:1020C0000E94221481110E94FA0F5BE6852E52E0D5
:1020D000952E10E000E0A02E802F0E9443136C018B
:1020E000F401E190F1904F01E816F90609F465C09A
:1020F00080917F0281FD0E944C13C7018C259D2594
:10210000B12CEE24E394F12C9C012E213F21232BB2
:1021100009F44DC00E943A108823A9F0BE82AF8214
:10212000CE20DF2081E0CD2809F480E088870E945E
:1021300095248160782F9A8789874E815F81688591
:102140008A850E948C05000F111FF801E559FD4F8B
:1021500080819181E826F926F182E0820E94F51DB6
:102160000E94022081110E940D100E9460170E949F
:10217000EB150E946A2390916A028917A9F10E94C7
:102180006A2380936A022A960FB6F894DEBF0FBEC8
:10219000CDBFDF91CF911F910F91FF90EF90DF9016
:1021A000CF90BF90AF909F908F900C948405B39484
:1021B000EE0CFF1CFFE0BF12A7CF0F5F1F4F0430D4
:1021C000110509F088CF8FEF89838A831B820E94D3
:1021D00095248160782F9D838C8349815A816B81FE
:1021E0008D810E948C05BACF2A960FB6F894DEBF77
:1021F0000FBECDBFDF91CF911F910F91FF90EF9058
:10220000DF90CF90BF90AF909F908F90089590E017
:1022100080E008950895972F70E02FE0929F600D61
:10222000711D1124FB019CE3899FE00DF11D112418
:10223000EE0FFF1FE455FF4F859194910895FC0127
:10224000EE0FFF1FE45CFC4F859194910895CF93AE
:10225000DF930E943E12EC01811520E5920708F001
:1022600042C0811530E4930708F0BDC0883E910557
:1022700028F5803E910508F09DC0883A910588F4C4
:10228000853A910508F08FC08130910509F492C01C
:10229000009709F48FC0049708F08CC0D0E0C0E02C
:1022A00089C08F3B910508F489C0805C9109C03CCE
:1022B000D105A0F30E941F11EC017CC08115904252
:1022C00050F4C11581E0D80708F074C0CD3ED105A7
:1022D00028F3D0656FC0C11590E3D90708F079C025
:1022E000CE019F70E7CF811525E5920758F581153E
:1022F00034E5930708F0A6C0811542E5940750F431
:10230000C11581E5D80708F471C0DC2FCC27C16F57
:10231000D06A50C0982F969596959E0123703327CA
:10232000C115D34508F07FC0C1E0D0E002C0CC0F9A
:10233000DD1F2A95E2F720E2929FC0011124C82BED
:10234000D92B6FC0C11589E5D807A8F4C11598E548
:10235000D90708F07CC0C11526E5D20708F09ECF4A
:102360008C2F0E94D512C82FD0E0DC2FCC27CC2791
:10237000DF71D0621FC0C1153AE5D30708F46CC005
:10238000CE0190568115904208F088CF8D2F8F7125
:102390000E94D51290E0982F882788279F719C0172
:1023A0002C2BE901E6CFC55AD0E0CD56DE4FC881CF
:1023B000D0E0D064CE01DF91CF910895C85AD0E02B
:1023C000CC0FDD1FCB59DE4F0990D881C02DD464CE
:1023D000F1CFCE019927D3FF03C0EC01D86CEACF2F
:1023E000EC01D06CE7CFDF70D06AE4CFCE01E4E03F
:1023F00096958795EA95E1F783702C2F269526957B
:10240000237090E2299F90011124382B8C2F837028
:10241000C1E0D0E002C0CC0FDD1F8A95E2F7C22BED
:10242000D32BDC68C7CFC1E0D0E002C0CC0FDD1FEA
:102430002A95E2F730E2939FC0011124C82BD92BD3
:10244000DA68B8CFD82FCC27C46FD06AB3CFDC2FCF
:10245000CC27C06FD06AAECF8C2F8F700E94D51260
:1024600034E0D695C7953A95E1F7CF709C2FEC01F3
:10247000D069A0CF0E940B110C94271182389105CE
:10248000B1F1B0F48133910509F475C048F4893293
:10249000910509F469C08A32910509F473C0089561
:1024A0008533910509F459C08933910501F10895E7
:1024B000833E9105A9F138F4803E9105F9F0823E02
:1024C000910549F10895863E9105A9F1873E910550
:1024D000C9F1843E910519F52091E00221FF1FC04A
:1024E0008091DF0284FD14C087EE90E00895209172
:1024F000DF022370A1F080EE90E008952091DF02CA
:1025000020FD47C03091E00230FF09C024FF44C0E5
:1025100090E080E004C02091DF0222FDF7CF089513
:102520002091DF0222FD3BC03091E00230FDE3CF7D
:1025300024FFF5CFEDCF2091DF0223FFF0CF24FD64
:10254000E7CFD2CF2091DF0223FD2CC03091E002F3
:1025500031FFEECF84EE90E008952091DF0225FF59
:10256000DECF89E290E008952091DF0225FFD7CFEA
:1025700085E390E008952091DF0226FFD0CF8AE224
:1025800090E008952091DF0226FFC9CF81E390E01B
:10259000089589E390E0089583EE90E0089582EE37
:1025A00090E0089586EE90E008959091DF0292FF0A
:1025B00006C0282F28712830F9F4877F846093FFA4
:1025C00006C0282F28712831F1F4877E846120917C
:1025D000E00220FF06C0382F38713830D9F4877FE9
:1025E000816021FF06C0282F28712831D1F4877E11
:1025F000816194FD877E0895282F24712430F9F697
:102600008B7F8860DCCF282F2471243101F78B7EEB
:102610008861DDCF382F3171313019F78E7F8860B6
:10262000E0CF282F2171213121F78E7E8861E1CF03
:1026300080E0089508950E94490F811102C00E9410
:10264000F30F0E94540F80937F020E94610F9093BA
:10265000E0028093DF020E941A130E94580F682F35
:1026600070E090E080E00E944B0960911D02709143
:102670001E0280911F02909120020C9485090895FA
:1026800008950C944013E82FF0E0EE0FFF1FE75180
:10269000FD4F808191810895089580EA8A95F1F730
:1026A000089500C008950C944D13F894E82FE29516
:1026B000EF70F0E031A1282F2F7081E090E001C091
:1026C000880F2A95EAF7982F9095932391A392A1CA
:1026D000892B82A378940895CF93DF9387EF0E948C
:1026E000551386E60E94551387E90E94551386E923
:1026F0000E945513C6E9D1E089918F3F11F00E94E5
:10270000551381E0C53AD807B9F7DF91CF91089505
:10271000AF92BF92CF92DF92EF92FF920F931F93EF
:10272000CF93DF938C01B62EC62FD0E0CE018B5510
:102730009E4F7C01FC0120812F3F09F453C0F89487
:10274000E22FE295EF70F0E031A12F7081E090E090
:1027500001C0880F2A95EAF7932F982B91A392A195
:102760008095892382A378940E945113E6E9F1E0D1
:1027700030E020E0D12CC12C41E050E081918F3F2E
:10278000E1F1A82FA295AF70B0E090966C9170E047
:102790008F7002C0759567958A95E2F760FD2DC030
:1027A000CA01022E02C0880F991F0A94E2F7C82AB4
:1027B000D92A2F5F3F4F2F30310501F7F701808174
:1027C0008F3F11F00E94551361E0C114D10409F448
:1027D00060E08B2D0E945313CC0FDD1FC00FD11F63
:1027E000D982C882DF91CF911F910F91FF90EF9016
:1027F000DF90CF90BF90AF90089590E080E0D7CF6A
:102800000E946C13A1EEB2E011961C921E92E9EEAA
:10281000F2E01182108213961C921E92129713827C
:10282000128215961C921E92149715821482179686
:102830001C921E9216971782168284E00E946D14D5
:102840000C949304FF920F931F93CF93DF93CDB714
:10285000DEB728970FB6F894DEBF0FBECDBF8E014E
:102860000F5F1F4F88E0F80111928A95E9F7F12C6C
:102870006F2DC8010E948813F394F4E0FF12F8CF83
:1028800048E050E0B80181EE92E00E944C32FF2413
:10289000F394009709F4F12C892B41F088E0F801BA
:1028A000A1EEB2E001900D928A95E1F72F2D44E060
:1028B00069EE72E081EE92E00E946E140E949B0429
:1028C0008F2D28960FB6F894DEBF0FBECDBFDF91D7
:1028D000CF911F910F91FF9008950895FF920F934C
:1028E0001F93CF93DF93F82E092F162FD72FC42FC6
:1028F000222349F081E0809382020E9495249093E4
:10290000810280938002809182028823A1F08091CD
:102910008002909181020E94AD24059760F0EF2D16
:10292000F02FA12FBD2F90E080E0D0E08C179D0705
:1029300044F010928202DF91CF911F910F91FF908E
:102940000895219131912D933D930196EFCF0E94EF
:1029500011240E94012C0E941C2C0E942E2C0E94EB
:102960003E10FBCFEF92FF920F931F93CF93DF9315
:10297000CDB7DEB7AC970FB6F894DEBF0FBECDBFB4
:10298000962FBA012132310598F540EF49831A821A
:102990001B821C82790142E0E40EF11C0CE210E083
:1029A0000E191F09E1E0F0E0EC0FFD1F0E0F1F1FD5
:1029B000F80180839183A901C80102960E945932CF
:1029C000A701B801CE0105960E942828E5E0F0E0B5
:1029D000EC0FFD1FE80FF91F27EF2083BC016B5F91
:1029E0007F4FAE014F5F5F4F84E293E00E943D2531
:1029F000AC960FB6F894DEBF0FBECDBFDF91CF917E
:102A00001F910F91FF90EF9008950E94FB31FA0102
:102A100060837183828393830895FC01E60FF11D27
:102A2000608170E090E080E0962F88277727662706
:102A30002381622B2181822B2281722B089581E0D8
:102A400008950C941F150C942115EF92FF920F938B
:102A50001F93CF93DF9300D000D0CDB7DEB7F82E11
:102A6000E92E8B010E9423158823A9F0D8018C91AF
:102A70008233E0F4803378F4813169F040F48031BE
:102A800079F12F2D3E2DA80160E080E846C080320C
:102A9000A1F08132B1F70F900F900F900F90DF915E
:102AA000CF911F910F91FF90EF900895803448F3DC
:102AB000823488F3803829F7EECFF80181818430A1
:102AC000D1F08630E9F0823059F482810E945C0FA7
:102AD000D80112966C9170E090E080E00E944B0962
:102AE000D8011196EC91E150ED30A8F6F0E0E653F4
:102AF000FD4C0C94F531828190E00E946F0FF0CF75
:102B000062E0C8010E940D150E943619E9CF30E03D
:102B100020E050E040E061E081E10E94B214BBCFD0
:102B200082E090E00E946232898321E030E0AE01D1
:102B30004F5F5F4F68E0F0CF83E090E00E94623229
:102B4000898321E030E0AE014F5F5F4F62E0E4CF68
:102B500060911D0270911E0280911F0290912002CF
:102B6000AE014F5F5F4F0E94051524E030E0AE01DB
:102B70004F5F5F4F63E0D0CF30E020E050E040E0B7
:102B800069E0CACF30E020E050E040E065E0C4CF2B
:102B90000E943219AE014F5F5F4F0E94051524E07D
:102BA00030E0AE014F5F5F4F66E0B6CF0E94610F2D
:102BB000898321E030E0AE014F5F5F4F64E0ACCF2E
:102BC00084E089838FE08A8322E030E0AE014F5FAA
:102BD0005F4F6DE0A1CF84E293E00C946A2780916F
:102BE000890280FF12C06091070185E0689FB001F3
:102BF0001124759567957595679560387105A8F5E9
:102C000061157105A1F1862F089581FF09C06091BA
:102C1000070185E0689FB001112475956795EDCF98
:102C20006091070182FD0AC0809188028823D1F05B
:102C30009091060160910701891728F085E0689F4F
:102C4000B0011124DACF869FB001112485E0869F60
:102C50009001879F300D1124692F70E0C9010E94F7
:102C6000BF31CBCF65E070E0CECF8FE7089581E034
:102C700008958091890280FF0CC06091030170E08B
:102C800075956795759567956115710549F1862F5D
:102C9000089581FF06C06091030170E07595679506
:102CA000F3CF6091030182FD0BC0909187029923BD
:102CB000A1F06091020180910301961738F0682F0E
:102CC00070E06038710500F38FE70895899FC001B7
:102CD000112470E00E94BF31F4CF61E070E0D7CFE3
:102CE00081E008958D3E31F40E94EF158195809327
:102CF0008D0208958E3E19F40E94EF15F8CF8F3E95
:102D000031F40E94EF15819580938C020895803FE5
:102D100019F40E94EF15F8CF893F29F40E94391663
:102D200080938E0208958A3F21F40E94391681957E
:102D3000F7CF8B3F31F40E943916819580938F0233
:102D400008958C3F19F40E943916F8CF9FE0980F30
:102D5000983070F4815F990B21E030E001C0220FC0
:102D60008A95EAF780918B02822B80938B020895DB
:102D70008D3F31F4809189028160809389020895AA
:102D80008E3F21F4809189028260F7CF8F3FB9F79F
:102D9000809189028460F1CF40918C028D3E59F47C
:102DA00080918D0287FF0DC010928D0241110BC0E2
:102DB0001092880208C08E3E81F480918D02181610
:102DC0009CF3442381F080918E0290918F02892B95
:102DD00009F05AC01092870208958F3E49F447FFC8
:102DE000F0CF10928C0280918D028111ECCFE0CF58
:102DF000803F19F41416ACF3E4CF90918E02893F12
:102E000029F41916F4F610928E02DBCF8A3F19F4DA
:102E100097FFD7CFF8CF90918F028B3F29F497FF80
:102E2000D0CF10928F02CDCF8C3F19F41916CCF36E
:102E3000C8CF9FE0980F983090F4815F990B21E004
:102E400030E0B90102C0660F771F8A95E2F7CB0127
:102E5000809590918B02892380938B02B2CF8D3F16
:102E600031F4809189028E7F80938902AACF8E3FB0
:102E700021F4809189028D7FF7CF8F3F09F0A1CF98
:102E8000809189028B7FF0CF08950E9495249C0148
:102E900090918C0280918D02982B21F030938602C4
:102EA0002093850290918E0280918F02982B21F0C1
:102EB00030938402209383028AE892E00C94842366
:102EC000EF92FF920F931F93CF93DF9300D000D028
:102ED00000D0CDB7DEB786E0EAE8F2E0DE01119679
:102EE00001900D928A95E1F7E0908C02F0908D02AE
:102EF00000918E0210918F0210928C0210928D021E
:102F000010928E0210928F028E2D8F2991F0809157
:102F10008502909186020E94AD24AC0190918802B6
:102F2000992309F43FC0809108018417150608F41D
:102F300047C0802F812B91F0809183029091840271
:102F40000E94AD24AC0190918702992309F477C0C7
:102F5000809104018417150608F47FC080918C02CB
:102F600090918D02892B90918E02892B90918F02E6
:102F7000892B11F00E94451786E0FE013196AAE8E0
:102F8000B2E001900D928A95E1F726960FB6F8947B
:102F9000DEBF0FBECDBFDF91CF911F910F91FF908C
:102FA000EF900895209109018AE0289F9001112453
:102FB0002417350708F0BDCF9F5F9093880202C0A9
:102FC0009F3FD1F7EE2059F00E94EF159FEF1E149E
:102FD0000CF491E0899F802D112480938C02FF20B6
:102FE00059F00E94EF159FEF1F140CF491E0899F98
:102FF000802D112480938D0230918C02332309F4AB
:1030000098CF20918D02222309F493CF45EB34030E
:10301000C0011124992359F090938C0245EB2403AD
:1030200090011124332339F030938D0282CF81E057
:1030300080938C02F3CF81E080938D027ACF209130
:1030400005018AE0289F900111242417350708F014
:1030500085CF9F5F9093870202C09F3FD1F70023E7
:1030600059F00E9439169FEF10160CF491E0899FD9
:10307000802D112480938E02112359F00E9439165D
:103080009FEF11160CF491E0899F802D11248093FD
:103090008F0230918E02332309F460CF20918F028A
:1030A000222309F45BCF45EB3403C001112499239B
:1030B00059F090938E0245EB2403900111243323A1
:1030C00039F030938F024ACF81E080938E02F3CFA4
:1030D00081E080938F0242CF86E0EAE8F2E0DF01F0
:1030E0001D928A95E9F71092880210928702109239
:1030F00089020895EF92FF920F931F93CF93DF936E
:10310000EB01E82FD11110C0442321F0F0E0ED5A7B
:10311000FB4FE4916E2F7E2F8E2FDF91CF911F9169
:103120000F91FF90EF9008950D2F10E0282F30E0C1
:10313000442329F02D5A3B4FF901249130E0F6E069
:10314000CF9FC0011124EFEFF0E0BF010E94AB312F
:10315000AB018C2F90E0880F991FA5E5A49FB001CB
:10316000A59F700D1124861B970B982F990F980F10
:10317000BF01601B710B629FD001639FB00D729FF6
:10318000B00D11248B2F9D9FB0011124672F77273D
:10319000EF01C61BD70BBE01629FE001639FD00DFC
:1031A000729FD00D11247F01E91AF108E09EB00151
:1031B000E19E700DF09E700D1124672F7727E61B9E
:1031C000F70BE29F8001E39F100DF29F100D112479
:1031D000E12F722F4230510599F048F44115510505
:1031E00069F04130510581F0EB2F8D2F07C044303D
:1031F000510569F080F046305105B1F76E2F8DCF43
:10320000E22F7B2F812FFACFE22F7D2FF7CFEB2FED
:10321000822F712FF3CF7B2F822FED2FEFCF41E045
:103220000C947A1808950C940F19CF93DF93762F8E
:10323000E901682F842F0E941319798368838A8398
:10324000DF91CF9108958091F102982F9E7F29F40C
:10325000817082608093F10208958A34E8F381706E
:103260008864F8CF88E090E00C946A32CF92DF92C5
:10327000EF92FF926B017C010E942319B701A60116
:1032800088E090E0FF90EF90DF90CF900C94883230
:10329000E1EFF2E083E0808311828FEF828383830A
:1032A000148260817181828193810C94361980919E
:1032B000F10280FF02C08695089580E00895909104
:1032C000F502933018F49F5F9093F502882351F034
:1032D0006091F1027091F2028091F3029091F402F8
:1032E0000C943619089581E00C945F199091F502C1
:1032F000992319F091509093F502882351F0609131
:10330000F1027091F2028091F3029091F4020C9418
:103310003619089581E00C94761970E00C946E1FB4
:1033200060910E018091F10280FF0AC080910D0131
:1033300023E0829FC00111248A509D4F0C948D1967
:1033400080910F019091100123E0829FF0011124E0
:10335000EA50FD4F891750F71182108212828F5F59
:103360003396F8CF9091F10290FF14C090910F0125
:103370002091100133E0939FF0011124EA50FD4F9A
:10338000921710F00C9490198183608342839F5FA1
:103390003396F6CF0895CF93DF9300D00F92CDB739
:1033A000DEB79091F10290FF0AC09E012F5F3F4F60
:1033B0000E9415194B8169818A810E94B2190F9070
:1033C0000F900F90DF91CF910895CF93DF93EC0191
:1033D000EC81F0E0E25BFC4F4491E1EFF2E06281CE
:1033E00081810E94CB198C818F5F8C83DF91CF917B
:1033F0000895CF93DF93EC01E1EFF2E04381628126
:103400008C810E94CB198C818F5F8C83DF91CF914F
:1034100008950F931F93CF93DF9300D00F92CDB7F2
:10342000DEB78C018091900281110AC09E012F5F4E
:103430003F4F4FEF6FEF0E9415198A8180939002E2
:10344000F8016481613069F08091900240E0662368
:1034500061F040E0623011F44091900280E060E061
:1034600004C06091900240E080E00E94B219F8012F
:10347000848190E0019663E070E00E94BF31848314
:103480000F900F900F90DF91CF911F910F910895A2
:10349000AF92BF92CF92DF92EF92FF920F931F9362
:1034A000CF93DF9300D00F92CDB7DEB7182FF62E53
:1034B000042FE22E9091F10290FF29C0E92FE695AA
:1034C000AE2FB0E0A755BE4F8C9180939A029E7F9D
:1034D000923059F59E012F5F3F4F812F0E941519A1
:1034E0004B8169818A810E94B2191093F202F09295
:1034F000F3020093F402EE2051F06091F10270911A
:10350000F2028091F3029091F4020E9436190F901A
:103510000F900F90DF91CF911F910F91FF90EF903F
:10352000DF90CF90BF90AF900895823019F4009152
:10353000F402DBCF863019F41091F202D6CF893035
:10354000D9F3893191F6E9518E2F8170D82EE69505
:10355000F0E0E25BFB4FA590B490C12CBB246091DE
:103560001101C61618F00E949019BFCF2C2D30E023
:10357000A29EC001A39E900DB29E900D112470E0FA
:103580000E94AB31812FD11013C0860F40910F01E3
:10359000420F532F511D9A01220F331F240F351F45
:1035A0002A503D4F402F6F2D0E941519C394D7CF3D
:1035B000861BECCFE1EFF2E09181282F43816281FD
:1035C0008AE0890F0C94481A81E00C94DA1AE1EF32
:1035D000F2E09181282F4381628186EF890F0C945C
:1035E000481A81E00C94E71AE1EFF2E0628121E1F0
:1035F000620F08F46FEF282F438181810C94481AE1
:1036000081E00C94F41AE1EFF2E0628121E1621BA7
:1036100008F460E0282F438181810C94481A81E0EE
:103620000C94031BE1EFF2E0438121E1420F08F427
:103630004FEF282F628181810C94481A81E00C940D
:10364000121BE1EFF2E0438121E1421B08F440E06C
:10365000282F628181810C94481A81E00C94211BEF
:1036600020E00C94481AEF92FF921F93CF93DF93C0
:10367000EC0110E0EE24EA94F12C60911101161790
:1036800070F00E9490199A818C8190FF27C08F5F03
:103690008C83DF91CF911F91FF90EF90089520913F
:1036A0000F01422F410F5527551FCA019A01220FC2
:1036B000331F280F391F2A503D4F70E0C7010E9469
:1036C000BF31962F8C814091F4026091F302199FD3
:1036D000800D11240E9415191F5FCFCF8150D8CFC4
:1036E000AF92BF92CF92DF92EF92FF920F931F9310
:1036F000CF93DF93FC0182810FEF80FF01E010E0A8
:103700004CE0A42E809111011817C8F00E94901966
:1037100080919202013009F055C0811102C0809160
:103720001101815080939202DF91CF911F910F91EF
:10373000FF90EF90DF90CF90BF90AF900895C09131
:103740000F01C12ED12CCC0DDD2DD11DCE01880F46
:10375000991FC80FD91FCA50DD4F198218821A82CB
:1037600034E0E32EF12CB12C809192028B0D8D3040
:103770001CF16A2D0E949D31892F082E000C990B97
:10378000C816D90691F48091F4028E9DA0018F9DF8
:10379000500D112455954795559547959E0160917B
:1037A000F3028091F2020E941519B00EF1E0EF1AB7
:1037B000F108D1F61F5FA6CF87FFDFCF90911101EF
:1037C000890FDBCF90E001966091110170E00E94BB
:1037D000BF31A8CF0F931F93CF93DF9380910F0139
:1037E0009091100123E0829FF0011124EA50FD4FD7
:1037F000891740F1C0E0D3E060911101C61740F194
:103800000E94901920910B0180919102820F809368
:10381000910290910C01920F90930C01191654F49F
:10382000082E000C990B409111014150550B841743
:1038300095071CF0219520930B01DF91CF911F91EB
:103840000F9108951182108212828F5F3396D0CF2C
:103850000C2F10E070E0C8010E94BF3120910F01D1
:10386000820F482F50E020919102022E000C330B62
:1038700002171307BCF020910C01022E000C330B31
:10388000201731077CF08D9F900111242A503D4F65
:103890004091F4026091F3028091F2020E941519A6
:1038A000CF5FAACFFA01EE0FFF1FE40FF51FEA501A
:1038B000FD4F118210821282F3CF8F929F92AF92AE
:1038C000BF92CF92DF92EF92FF920F931F93CF930D
:1038D000DF93EC014C81042F10E09801D8010E9485
:1038E0000A329B01AC010E9420324B015C01E0E2F4
:1038F000F0E0E01BF10BA5E5B0E0AC019B010E94FC
:1039000020326B017C019F01DF010E9402329B018A
:10391000AC010E942B329B01AC01280D391D4A1DC0
:103920005B1DC701B6010E94D331F22E822F90E0B9
:1039300039E23F1560F143E0249F90011124359551
:103940002795122F109500E085E5E82EEF1880915D
:103950001101081758F10E9490199C8181E0992368
:1039600019F0903219F48FEF80930A0180910A01C7
:10397000890F8C83DF91CF911F910F91FF90EF9072
:10398000DF90CF90BF90AF909F908F90089525E5E6
:1039900030E0B901681B790B9B01220F331F260F02
:1039A000371F37FFCCCF2F5F3F4FC9CF8E2D01FD83
:1039B0008F2D20910F01622F600F7727771F9B01BA
:1039C000220F331F260F371F2A503D4F412F609182
:1039D000F3020E9415190F5FBACF0F931F93CF9375
:1039E000DF93EC0110E000E09091110190171106B7
:1039F00009F06CF40E9490198C8190E0019681701E
:103A000099278C83DF91CF911F910F910895209179
:103A10000F01A801420F511D9A01220F331F240FDD
:103A2000351F2A503D4F4C816091F3028091F20284
:103A300096959017110651F04CF0442349F04091AF
:103A4000F4020E9415190F5F1F4FCECF4423B9F324
:103A500040E0F7CFE1EFF2E080818E7F80836081EC
:103A60007181828193810E94361910929B022FEFFF
:103A700080E792E0215080409040E1F700C00000D4
:103A80000C9490196091F102669570E04BE050E063
:103A900082E191E00E943F32892B19F481E080930A
:103AA0009B020E9495249093940280939302089520
:103AB0009091F10290FF35C09170811128C0926001
:103AC0009093F102662351F06091F1027091F2023D
:103AD0008091F3029091F4020E9436196091F102F4
:103AE000669570E04BE050E082E191E00E943F3249
:103AF000892BA1F010929B0281E080939602409165
:103B0000F4026091F3028091F2020C94301B853232
:103B100010F09864D5CF880F982BD2CF0E94421D09
:103B2000EBCF0895682F9091F102969581E0890F6F
:103B3000853208F081E00C94581D81E00C94921DB0
:103B4000682F9091F10296958FEF890F09F484E226
:103B50000C94581D81E00C94A01D61E00C94581D3C
:103B6000E1EFF2E080818160808386950C94AD1D49
:103B70008091F10280FD0C942A1D0C94B01D60E030
:103B80000C94581D8091990281112EC00E94490FFA
:103B9000811104C00E94F30F0E9448190E9432193B
:103BA0006093F1027093F2028093F3029093F40217
:103BB0006E7F61F40E9448190E9432196093F102ED
:103BC0007093F2028093F3029093F4020E942319FF
:103BD00010929B028091F10280FF03C086950E94A3
:103BE000BF1D81E08093990208950F931F93CF9397
:103BF000DF9380919B02882309F486C080919A020A
:103C0000E091F102E695E81BE0939502823091F590
:103C1000F0E0E65BFC4FE491CE2FD0E005EE19E139
:103C200080919602882361F0109296020E9495245A
:103C300090939402809393021092980210929702AC
:103C40000E949524E0919302F09194028E1B9F0BA9
:103C50008F3F9F4708F058C0EC0FFD1FF093940270
:103C6000E093930283E992E0F801DF91CF911F91F5
:103C70000F910994863049F4F0E0E95BFC4FE49140
:103C8000CE2FD0E009EF19E1CBCF893051F4E69582
:103C9000F0E0EC5BFC4FE491CE2FD0E003E31BE1BE
:103CA000BFCF8F3051F4E695F0E0EF5BFC4FE4912D
:103CB000CE2FD0E000E71BE1B3CF853149F4F0E02F
:103CC000E25CFC4FE491CE2FD0E00AEE1BE1A8CFDE
:103CD000C8E2D0E00DE51CE1883109F4A1CF8332C0
:103CE00039F4ECE3F3E0C591D49109E01AE198CFFF
:103CF000C4EFD1E00DEE1CE1843209F491CFC0EDA8
:103D0000D7E002E119E18CCFDF91CF911F910F91A4
:103D10000895FA01811101C0FB010994CF93DF934B
:103D2000C82FD62F0E9457198C1740F00E945719A0
:103D30008D1720F4DF91CF910C949D1D8C2FDF9176
:103D4000CF910C94AD1D1F93CF93DF93EC01FB013A
:103D50001281112309F4C0C00E94890E8272CD3CE9
:103D6000FCE5DF0709F49CC008F044C0C73CECE563
:103D7000DE0709F481C0F0F4C43C9CE5D90709F4DE
:103D800071C048F4C33CDC4509F469C0812FDF9160
:103D9000CF911F910895C53C9CE5D90709F467C0F0
:103DA00041EF5AE164EE7AE1C63CDC4579F70E94C6
:103DB000891E53C0CA3CFCE5DF0709F467C068F4FC
:103DC000C83CECE5DE0709F45CC040E05BE16FE075
:103DD0007BE1C93CDC4559F3D9CFCB3C9CE5D90705
:103DE00009F459C04AE859E163E779E1CC3CDC4584
:103DF000F1F2CCCFC23DFCE5DF0709F462C098F4D4
:103E0000CF3C9CE5D90709F454C008F44EC0C03D2E
:103E1000FCE5DF0709F452C0C13DDC4509F0B6CF2F
:103E20006EE089E048C0C53D9CE5D90709F44FC064
:103E300058F4C33DFCE5DF0709F446C0C43DDC454A
:103E400009F0A4CF88E132C0C63D9CE5D90709F44A
:103E500041C0CE35DD4509F099CF10E097CF0E94E3
:103E6000B81DFBCF4AEA5DE16DE97DE1A0CF4DE9E8
:103E70005DE16AEA7DE19BCF44EE5AE161EF7AE1D0
:103E800096CF4FE05BE160E07BE191CF4DE25BE1FB
:103E90006EE17BE18CCF4EE15BE16DE27BE187CFB0
:103EA00043E759E16AE879E182CF81E00E94AD1DE4
:103EB000D4CF65E082E00E948E1ECFCF68E086E01E
:103EC000FACF64E18FE0F7CF67E185E1F4CF62E2FA
:103ED00089E1F1CF83E2EACF11E058CF249A45B1CE
:103EE0004F7E55B15061EFB7F8949B01220F331FFD
:103EF000260F371F280F391F2817390741F4EFBF46
:103F00008FE594E00197F1F700C000000895DC010F
:103F10006D91CD0178E055B9000000C067FF45B94B
:103F2000660F000000C000C000C045B900C07A950F
:103F300091F7E2CFAF92BF92CF92DF92EF92FF92D2
:103F40000F931F93CF93DF93A0EEB1E02EED31E0FE
:103F500080EAA82E82E0B82E62EE71E041E050E0E7
:103F60000D91802F82958F7090E0FC01C1A10F70A0
:103F70007A01002E01C0EE0C0A94EAF7FE2DF095AE
:103F8000CF23FC01C1A3C2A1CE29C2A3E90119918B
:103F90009E01E12FE295EF70F0E0F1A01F706A0141
:103FA000012E01C0CC0C0A94EAF7EC2CE094EF202F
:103FB000E1A2F2A0FC28F2A2EC0188A190E002C0EC
:103FC000959587950A95E2F78170E0A1F0E002C02F
:103FD000F595E7951A95E2F790E0E0FD92E0892BE0
:103FE000F50181935F016A177B0709F0B9CFDF9173
:103FF000CF911F910F91FF90EF90DF90CF90BF90E6
:10400000AF9008956F927F928F929F92AF92BF92DE
:10401000CF92DF92EF92FF920F931F93CF93DF9394
:1040200000EA12E080EEC82E81E0D82E9EEDE92E47
:1040300091E0F92E2EE9822E22E0922ECCE9D2E0F8
:10404000712C612C34E0A32EB12CD801EC91EE0F31
:10405000EE0FED938D01D6012D916D01A22FA2954A
:10406000AF70B0E090968C9190E02F7002C0959563
:1040700087952A95E2F781709927D7014D917D01A7
:10408000A42FA295AF70B0E090962C9130E04F70C5
:1040900002C0359527954A95E2F7A9014170552749
:1040A00020FF02C042E050E0842BE82BD80111979A
:1040B000EC93EF70F0E0E253FE4F8081F4019081C9
:1040C000890F808320E0843044F088818F5F88836B
:1040D00060E0872D0E94C40321E0D4018C918D3FC4
:1040E00044F488818150888361E0872D0E94C40355
:1040F00021E0F4018081082E000C990BB5010E948B
:10410000BF31D4018D934D01622A2196B1E07B121B
:1041100010C0862DDF91CF911F910F91FF90EF90EE
:10412000DF90CF90BF90AF909F908F907F906F90D7
:1041300008957724739489CFCF93DF93EC0197FF91
:104140000CC0FB018281882341F00E94C720CE0170
:104150009F770E9421210E94022181E0DF91CF916F
:1041600008958CE090E00E94623290E0B0E0A0E020
:1041700080931A0390931B03A0931C03B0931D0319
:10418000089560911A038CE090E00C9476320E94BE
:1041900076238695817080931F0390911A03913046
:1041A00029F4882319F089E30E9463060E94890E8E
:1041B00080931E030E949C0E80911A03813089F027
:1041C000882359F0823091F08430B9F08FE39CE974
:1041D0000197F1F700C00000089582EE0E94CF051C
:1041E000F5CF88E193E00E943704F0CF82EE0E9481
:1041F000CF0587E50E946306E9CF86EE0E9463063D
:1042000088E1F8CF80911A03813071F0882341F062
:10421000823031F0843099F080911E030C94990E15
:1042200082EE0E941D06F8CF8CE20E946306809108
:104230001F03882389F389E30E946306EDCF88E298
:10424000FBCF0F931F93CF93DF938C01CCE0D0E093
:10425000C8010C2E02C0969587950A94E2F78F70DC
:104260000E9472052497CC3F8FEFD80789F7DF9122
:10427000CF911F910F9108950F931F93CF93DF93C9
:10428000EC018B01FB018281882361F00E94890E81
:10429000CE01825E9C458530910520F480931A03FF
:1042A0000E94C120B801CE01DF91CF911F910F91E3
:1042B0000C949C200F931F93CF93DF93C42FD22F86
:1042C000FC0182818823C9F04093A4020E949524B6
:1042D0009093A3028093A20280E28C0F883008F0B2
:1042E00050C0C77081E001C0880FCA95EAF7DF911E
:1042F000CF911F910F910C946B061091A40214138F
:1043000035C08091A2029091A3020E94AD24883C06
:10431000910560F5C0E2CD0F1D17B9F080E2810F65
:10432000883040F4177081E001C0880F1A95EAF7D1
:104330000E947206C83048F481E09D2F977001C03A
:10434000880F9A95EAF70E946B06802F0E946306F9
:10435000C830B8F4D77081E001C0880FDA95EAF769
:10436000DF91CF911F910F910C94720680E28C0F18
:10437000883038F4C77081E001C0880FCA95EAF729
:10438000EFCFDF91CF911F910F9108950F939C0173
:10439000CB01243F4CE5340759F1A8F4293DFCE555
:1043A0003F0701F12A3D4CE53407D1F1283D3C455A
:1043B00091F406E221EE41EE68ED7CE50E945A217F
:1043C00080E00F910895263FFCE53F07E9F0B0F04B
:1043D000273F3C45F9F0FC018281882339F1109296
:1043E000A402EFCF07E225EE45EE69ED7CE5E6CFCE
:1043F00006E221EE40EE64EF7CE5E0CF07E225EE39
:1044000044EE65EF7CE5DACF06E221EE42EE66EFA0
:104410007CE5D4CF07E225EE46EE67EF7CE5CECF14
:1044200008E221E045EE6AED7CE5C8CF81E0C9CF26
:10443000CF93DF93EC01FB018281882309F419C13A
:10444000C230FCE5DF07C0F1C6319CE5D90730F08A
:104450009E012B5F3C452930310570F50E94610FAC
:104460009093E0028093DF02C031ECE5DE0709F4AF
:10447000CFC008F05BC0C8308CE5D80709F4B6C0DF
:1044800088F5C430ECE5DE0709F4A8C0C0F4C230FA
:104490008CE5D80709F49CC08091DF028260C330AC
:1044A000DC4509F498C08091DF029091E0020E94FF
:1044B0006F0F0E94F20880E0DF91CF910895809104
:1044C000DF028061C630ECE5DE0709F484C080912C
:1044D000DF028860C730DC4508F47DC08091DF02D0
:1044E000806279C0CC308CE5D80709F489C070F4BB
:1044F0008091DF028C60CA30ECE5DE0709F46BC006
:1045000008F478C08091DF028E7F65C0CE308CE5E4
:10451000D80709F479C08091DF028B7FCF30DC456A
:1045200008F459C08091DF028F7E55C0CC3FECE586
:10453000DE0709F457C030F5C3318CE5D80709F41C
:104540006FC078F4C131ECE5DE0709F465C0C23113
:10455000DC4509F0A8CF0E94F2088091DF028F7736
:104560003AC0C5318CE5D80709F462C008F476C0BA
:104570008091E0028160CB3FDC4509F094CF8093CD
:10458000E00291CFC115FDE5DF0709F44DC088F4C5
:104590008091E0028D7FCE3F9CE5D90781F3809129
:1045A000E0028E7FCF3FDC4550F38091E0028360D4
:1045B000E6CFC230FDE5DF0709F459C008F444C076
:1045C00080E0C330DD4509F06ECF0E94F50F6BCF60
:1045D0008091DF0281608093DF0265CF8091DF02EE
:1045E0008460F9CF8091E0028260C9CF8091DF02C0
:1045F0008064F1CF0E94F2088091DF028068EBCFE7
:104600008091DF028D7FE7CF8091DF02877FE3CF4C
:104610008091DF028F7DDFCF8091DF028F7BDBCF48
:104620008091DF02837FD7CF8091E0028C7FA7CF7C
:104630008091DF0282FB992790F921E0922790FB7D
:1046400082F990FB83F9C7CF8091E002982F909573
:1046500091708E7F892B90FB81F991CF0E94F20897
:104660009091DF02892F97FB87F98058B4CF81E0C2
:10467000ACCF81E021CFCF93DF93EB0186319C4516
:1046800011F50E94890E9A81992399F08A7A91E016
:1046900009F490E09093A502811109C089E20E947B
:1046A000430E0E94DC0E80E0DF91CF91089585E3F8
:1046B000F6CF8091A502811104C089E20E944A0EC2
:1046C000F0CF85E3FBCF81E0EFCF9093AB028093F7
:1046D000AA020895E091AA02F091AB02309721F06E
:1046E0000190F081E02D099480E008950E946A23F2
:1046F0000895E091AA02F091AB02309721F0028078
:10470000F381E02D09940895E091AA02F091AB02A3
:10471000309739F022E0DC012C930480F581E02D04
:10472000099408952091A8023091A9022817390709
:1047300071F09093A9028093A802E091AA02F091EF
:10474000AB02309721F00680F781E02D099408959F
:104750002091A6023091A7022817390771F0909393
:10476000A7028093A602E091AA02F091AB023097D3
:1047700021F00084F185E02D099408959C012E5FBD
:104780003F4FAC01485F5F4F80E02417350709F4C5
:104790000895F90191919F019923B9F38F5FF5CFA6
:1047A000662349F0FC01329608962191261729F0DC
:1047B000E817F907D1F780E0089581E008959C019A
:1047C000FC0132969FEF80E04191461751F09F3FE8
:1047D00019F4411101C0982F8F5F8630A9F79F3FD0
:1047E00009F40895290F311D97FD3A95F901628367
:1047F0000895FC01329608962191261303C0DF012B
:1048000011971C92E817F907B9F708950C94DF2364
:104810000C94F923029626E0FC0111922A95E9F7FF
:1048200008950895089508950C9413248091150413
:10483000843049F10E94142480E00E948405109283
:10484000AC0288E190E020E40FB6F894A89580933C
:1048500060000FBE2093600083B7817F846083BFB8
:1048600083B7816083BF7894889583B78E7F83BF39
:104870000FB6F894A89580916000886180936000DD
:10488000109260000FBE08950895CF930E941224E5
:104890000E9422140E944424C0E08C2F0E944313E3
:1048A000892B31F4CF5FC430C1F780E0CF910895F8
:1048B00081E0FCCF08950C945A240E94F2080E94D3
:1048C0006A230E9484050C945B241F921FB61F92DA
:1048D00011248F939F93AF93BF938091AC0281116A
:1048E00013C08091200390912103A0912203B091E5
:1048F00023034196A11DB11D8093200390932103B2
:10490000A0932203B0932303BF91AF919F918F9106
:104910001F901FBE1F90189582E084BD93E095BD47
:104920009AEF97BD80936E0008952FB7F894809109
:10493000200390912103A0912203B09123032FBF64
:1049400008952FB7F894609120037091210380910E
:104950002203909123032FBF08959C014FB7F89431
:104960008091200390912103A0912203B091230311
:104970004FBF821B930B089578941F921FB61F920E
:1049800011248F939F93AF93BF93809120039091B5
:104990002103A0912203B09123030196A11DB11D13
:1049A0008093200390932103A0932203B0932303C9
:1049B000BF91AF919F918F911F901FBE1F9018952F
:1049C00081E08093E00080E28093D8001092C900DB
:1049D0008FE19EE40197F1F700C0000087E090EBC3
:1049E000DC0180931E0490931F04A0932004B093D5
:1049F000210488E19CE00FB6F894A89580936000AC
:104A00000FBE90936000FFCF9093F3018093F2016B
:104A10000895881F8827881F089591E0883F08F42B
:104A200090E0892F0895982F907F903BE9F040F413
:104A30009039D1F0903AC1F09038B1F080E008950B
:104A4000903D19F020F4903CC9F782E00895903E23
:104A500059F0903F99F7815F8F3080F7E82FF0E0B1
:104A6000EE51FE4F8081089583E008950F93DC019D
:104A7000ED91FC9109950F9108956F927F928F921D
:104A80009F92AF92BF92CF92DF92EF92FF920F93DD
:104A9000CF93DF9300D00F92CDB7DEB74C015B010F
:104AA0003A01F12CE12CEA14FB0488F00F900F90EE
:104AB0000F90DF91CF910F91FF90EF90DF90CF900B
:104AC000BF90AF909F908F907F906F9008951982C4
:104AD0001A821B826501CE18DF0884E0C816D10453
:104AE00018F083E0C82ED12CB3016E0D7F1DA601F6
:104AF000CE0101960E9459320B812A814981B6016B
:104B0000C4010E94362583E0E80EF11CCCCFFC01E5
:104B1000738362830895FC01738F628F0895FC0193
:104B2000758F648F0895CF93DF93EC011DA21FA2B0
:104B30001EA2BC01685D7F4F40EC88519F4F0E94D0
:104B40009E271B821A821D821C821F821E8219864A
:104B500018861B861A861D861C861F861E86198A45
:104B6000188A1B8A1A8A1D8A1C8A1F8A1E8A198E15
:104B7000188E1B8E1A8E1D8E1C8E1F8E1E8E19A2D5
:104B800018A2DF91CF910895EF92FF920F931F9398
:104B9000CF93DF93EA018A01060F111D88519F4FC1
:104BA0007C01C017D10739F4DF91CF911F910F918C
:104BB000FF90EF9008956991C7010E94A527F1CF5A
:104BC000FC01718360830895FC0171A360A30895C3
:104BD000AF92BF92CF92DF92EF92FF920F931F930B
:104BE000CF93DF9300D00F92CDB7DEB77C016B017E
:104BF000142FB22EA02EDC0195968C9195978430BF
:104C0000A9F55A96ED91FC913097E9F1CB01019706
:104C100063E070E00E94AB31CB01880F991F860FD3
:104C2000971F4983BA820B834C2D481B9E012F5F2F
:104C30003F4FBC01C7010995D7015E96ED91FC91EC
:104C4000309731F00A2D2B2D412FB601C701099560
:104C50000F900F900F90DF91CF911F910F91FF90C8
:104C6000EF90DF90CF90BF90AF90089562307105C4
:104C700009F455C06330710599F06130710509F48C
:104C800081C0D12CC12CD7015C96ED91FC9130975D
:104C900099F20A2D2B2D412FB601C7010995CCCFD2
:104CA000842F807F803A11F148F48038D1F0803928
:104CB00051F7D7011496ED91FC910AC0803ED9F0CE
:104CC000803FF1F0803BF9F6D7011296ED91FC910F
:104CD0003097C9F2123FE9F02A2D4B2D612F6F70EA
:104CE0001BC0D7011696ED91FC91F2CFD701189613
:104CF000ED91FC91EDCFD7011A96ED91FC91E8CFA3
:104D0000423F09F6D7011C96ED91FC91309709F4CA
:104D1000BACF2A2D4B2D62EFC70109958DCF842F75
:104D2000807F803DB1F0803FC9F0803C09F0ABCF7F
:104D3000D7011E96ED91FC91309709F4A4CF812FF5
:104D40008D7F4B2D612F6F70813F89F0C7010995D1
:104D500073CFD7015096ED91FC91EECF433F51F4C4
:104D6000D7015296ED91FC91309709F48CCF4B2DE1
:104D7000612FECCF413F09F086CFD7015496ED91DA
:104D8000FC91F2CF842F0E940D25882359F0D70182
:104D90005696ED91FC91309709F475CF612FC701BC
:104DA00009954ACF163F09F06ECFD7015896ED917D
:104DB000FC91F1CFFF920F931F93CF93DF93EC0100
:104DC000162F862F0E940D25882391F0FDA081E0EB
:104DD0008DA300E020E0412F61E070E0CE010E9451
:104DE000E825FDA2DF91CF911F910F91FF900895CB
:104DF000812F0E9409254DA1882309F443C0443026
:104E000029F01AA381E090E09FA38EA3812F0E9436
:104E10001325813051F08823A9F0823089F0833046
:104E200079F01DA21FA21EA2DDCF8DA300E020E01D
:104E3000412F61E070E0CE010E94E8251DA2D2CF93
:104E40008DA3D0CF103FB1F0173F59F72EA13FA14E
:104E5000C90163E070E00E94AB31FE01E80FF91F69
:104E600012A3B9016F5F7F4F7FA36EA30CA12BA18B
:104E70004AA1E1CF84E08DA31AA381E090E09FA333
:104E80008EA3B0CF442309F4ADCF2EA13FA1C90119
:104E900063E070E00E94AB31FE01E80FF91F12A33E
:104EA000B9016F5F7F4F7FA36EA38130910569F0D9
:104EB000029709F097CF0CA12BA14AA1CE010E9425
:104EC000E8258DA18430C9F68DCF00E0423009F08D
:104ED00089CFF2CFCF92DF92EF92FF920F931F9381
:104EE000CF93DF93EC01E8A1F9A1309709F0099580
:104EF0006E0188EEC80ED11CC6010E94D42710E0B6
:104F000000E0E82EF12C0E151F0548F0DF91CF913F
:104F10001F910F91FF90EF90DF90CF90089560E088
:104F2000C6010E94E827682FCE010E94DA2661E0C0
:104F3000C6010E94F8270F5F1F4FE5CFFC01428397
:104F4000748363831182108208951F93CF93DF933C
:104F5000EC01162F0E940F28482F298130E0C9014B
:104F600001966A8170E00E94BF3158815817190676
:104F700041F4842F0E94122880E0DF91CF911F918D
:104F800008958B819C81280F391FF9011083898135
:104F900090E001966A8170E00E94BF318983842F7E
:104FA0000E94122881E0E9CFCF93DF93EC010E94A9
:104FB0000F2899812881921740F0C92FC21B0E94A7
:104FC00012288C2FDF91CF910895CA819C0FF5CFC5
:104FD000FC018081860F9927991F628170E00E94F1
:104FE000BF3123813481280F391FF9018081089551
:104FF0001F93CF93DF93EC01162F0E940F28282FC9
:105000008881810F9927991F6A8170E00E94BF31C2
:105010008883822FDF91CF911F910C9412288FB734
:10502000F89408958FBF0895482F47709C0183E03E
:10503000369527958A95E1F757E0529FC001539F17
:10504000900D1124442319F00197840F911D0895A8
:105050008F929F92BF92CF92DF92EF92FF920F9327
:105060001F93CF93DF934C01EB017A01CA0167E0F4
:1050700070E00E94AB318E01D40130E020E02617B1
:10508000370709F046C0C70167E070E00E94AB3106
:10509000D90143E0AA0FBB1F4A95E1F7009761F1E0
:1050A000F401EA0FFB1F108267E0629FA001639F7B
:1050B000500D11248E01040F151F30E020E0E8018F
:1050C00079918E012F5F3F4F472F407850E0022E9D
:1050D00002C0559547950A94E2F75081452B4083CD
:1050E000AF01420F531F7F77EA017883821793073E
:1050F00031F70196A80FB91FCD01DF91CF911F9114
:105100000F91FF90EF90DF90CF90BF909F908F9086
:1051100008951C92A80190E080E0FA01B190AF01DF
:105120000196FB2DF078CF2ED12C082E02C0D594FD
:10513000C7940A94E2F7DC90CD28CC926D01C80E9A
:10514000D91EE894B7F8F601B0828730910529F7A7
:105150002F5F3F4F095F1F4F189691CF6F927F923D
:105160009F92AF92BF92CF92DF92EF92FF920F93F6
:105170001F93CF93DF933C0190E080E042305105D4
:1051800060F15A0183E0B694A7948A95E1F7830110
:10519000EB01B0E0A0E0AA15BB0569F5242F27704C
:1051A00037E03A9FC0013B9F900D11242223A9F0C4
:1051B000487F640F751FEB015301A80EB91EB0E0C4
:1051C000A0E0422F50E08A01015011092196A0175A
:1051D000B107B0F10197840F951FDF91CF911F9117
:1051E0000F91FF90EF90DF90CF90BF90AF909F9086
:1051F0007F906F900895780181E090E09E01280FE4
:10520000391FF9012081922EE89497F8F7019192C5
:105210007F016F01F1E0CF1AD1082881082E01C06B
:10522000220F0A94EAF720782929F60120830196B3
:105230008830910519F71196095F1F4F2896ABCF5B
:105240002881D22EE894D7F8F501D1925F0111960A
:105250007F01F1E0EF1AF108FB013081232F0A2EC4
:1052600001C0220F0A94EAF720782D29F701208344
:10527000ADCF08950895EF92FF920F931F93CF93B0
:10528000DF93CDB7DEB7A0970FB6F894DEBF0FBEA1
:10529000CDBFF9018B010450110990E080E0841723
:1052A000C8F417FD2BC0DF01A80FB91F3C91373F91
:1052B000F1F4C8010E9414287C01A8016DEA72E093
:1052C000CE0101960E94AE28BE016F5F7F4FC701DD
:1052D0000E942515A0960FB6F894DEBF0FBECDBF75
:1052E000DF91CF911F910F91FF90EF9008950532BC
:1052F000110584F7D801A355BD4F3C930F5F1F4F95
:105300000196CDCF0F931F93CF93DF9300D000D0A2
:1053100000D00F92CDB7DEB78C01CE0101960E946E
:10532000FC2B81110BC027960FB6F894DEBF0FBE81
:10533000CDBFDF91CF911F910F9108958A810E9477
:1053400013259A819D839B819E839C819F838111DC
:105350000AC08981843079F0873069F0863069F03D
:105360008530D9F681E0AE014B5F5F4F682FC801F1
:105370000E94C425D2CF83E0F6CF82E0F4CFDF9243
:10538000EF92FF920F931F93CF93DF9300D000D043
:10539000CDB7DEB77B01142FD22E4A832B830C832B
:1053A000842F0E941325811129C082E0E816F104A0
:1053B00001F183E0E816F10439F0EA94EF2869F48A
:1053C00085E0173F21F404C087E0073F09F084E03F
:1053D0008983CE0101960E94F72B0F900F900F90BA
:1053E0000F90DF91CF911F910F91FF90EF90DF9081
:1053F000089587EFD812EBCF86E0EACF12951F70A1
:105400001983E7CF84E293E00E9493256FEB79E262
:1054100084E293E00E94E02562E879E284E293E08E
:105420000E94E42569E379E284E293E00E948F25FB
:105430006AE379E284E293E00E9487256BE379E2F4
:1054400084E293E00C948B259B0140911504443039
:10545000C1F4FC0191819F709093E90050E040E01D
:1054600064E070E0C9010E94BD2C81110BC09091D5
:10547000E80095FD07C09091E8009E779093E800C2
:10548000089582E0089520911504243091F4FC01E0
:1054900081818F708093E9009091F3008091F200F8
:1054A000892B49F08091E8008E778093E8000C9476
:1054B0006B2E82E0089580E00895FC018091150430
:1054C000843059F491819F709093E9008091E800B5
:1054D00080FF03C0CF010C94432A08959B014091A3
:1054E0001504443011F080E00895FC0196819F700E
:1054F0009093E9008091E80082FFF5CF8091E80069
:1055000085FFF1CF50E040E064E070E0C9010E9407
:105510000C2D8091E80085FD05C08091E8008B7717
:105520008093E80081E008958091DD0208959091D4
:105530001504943031F58093D2027093D4026093B5
:10554000D30282E08093E9008FEF9091E8008150D0
:1055500095FD06C095ED9A95F1F700008111F5CF04
:105560008091E80085FF0DC050E040E063E070E00E
:1055700082ED92E00E94BD2C8091E8008E778093AE
:10558000E8000895BC0184E00C94972ABC0183E0F4
:105590000C94972A9C0182E08093E9009FEF809110
:1055A000E800915085FD06C085ED8A95F1F7000071
:1055B0009111F5CF8091E80085FF0CC050E040E0EC
:1055C00066E070E0C9010E94BD2C8091E8008E77F2
:1055D0008093E8000895CF93DF93EC0181E08093FE
:1055E000E9008FEF9091E800815095FD06C095EDA0
:1055F0009A95F1F700008111F5CF8091E80085FFC1
:1056000014C050E040E068E070E0CE010E94BD2C84
:105610008091E8008E778093E80088E0FE01A5ED98
:10562000B2E001900D928A95E1F7DF91CF91089554
:1056300080911404811109C00E949C2E0E94F92EB1
:105640008091E20084608093E20008951092140437
:10565000089508950895089542E061EC81E00E9464
:10566000182E42E261EC82E00E94182E42E361E8CB
:1056700083E00E94182E42E361E884E00C94182E27
:1056800080911704833009F45FC030F48130C1F198
:10569000823009F49BC008958A3009F487C08B30AA
:1056A00009F46DC0893009F04EC080911604813232
:1056B00009F049C080911A0490911B04029708F0E8
:1056C00042C08091E800877F8093E8008091E800E5
:1056D00082FF35C09091F3008091F200029729F487
:1056E0008091F1008B7F813021F48091F1008093D3
:1056F000DD028091E8008B778093E8000C944C2EBB
:1057000080911604813AF9F48091E800877F8093B4
:10571000E80080911A0490911B04892B61F468E0E1
:1057200085ED92E070E00E945B2D8091E8008B7720
:105730008093E800089560E090E080E0F3CF8091EE
:1057400015048111C3CF089580911604813AD9F7C9
:1057500080911A0490911B04892BA9F78091E8008D
:10576000877F8093E8008091E80080FFFCCF8091E4
:1057700033018093F1008091E8008E77BDCF809156
:105780001604813201F780911A0490911B04892B31
:10579000D1F68091E800877F8093E8000E944C2E2C
:1057A00080911804809333010C94F20880911604C0
:1057B000813249F68091E800877F8093E8000E945B
:1057C0004C2E809119048093DE0208958091160476
:1057D000813A09F0B8CF8091E800877F8093E80094
:1057E0008091E80080FFFCCF8091DE02C2CFBC0137
:1057F0008DE191E00C94242ABC018DE191E00C94A0
:105800006E2A0E94022A84B7877F84BF0FB6F8945D
:10581000A89580916000886180936000109260007C
:105820000FBE80E890E00FB6F894809361009093EB
:1058300061000FBE0C942E100E949C2E0E94F92E27
:10584000E2EEF0E080818460808378940E9482316F
:105850000E94421089E291E00C9465238091150426
:10586000853031F480911504853041F00E945D242B
:105870000E944C108DE191E00C945D2A0E94162448
:1058800080911304882371F30E944524882351F3E7
:105890000E94A72C0E94F208E5CF0C944F2C292FD0
:1058A00033272330310519F168F42130310509F42B
:1058B00044C02230310509F445C090E080E030E07A
:1058C00020E025C02132310549F122323105A9F706
:1058D00080E490E021EB36E061157105C1F08BE7C3
:1058E00090E026E336E06130710589F0E6CF992734
:1058F0008130910581F0009729F00297F1F6E3E5F8
:10590000F5E002C0E1E8F5E0849190E09F01FA0142
:10591000318320830895E3E6F5E0F6CF89E090E057
:1059200027E935E06115710591F389E090E020EBFE
:1059300035E06130710559F3C0CF82E190E024E297
:1059400036E0E5CF8FE990E025E835E0E0CF80E173
:1059500089BD82E189BD09B400FEFDCF8091D800E8
:105960008F7D8093D8008091E00082608093E0007A
:105970008091E00081FDFCCF0895AF92BF92CF925D
:10598000DF92FF920F931F93CF93DF936C01EB0194
:105990008A010E946B2EF82E811123C0011511057A
:1059A00039F0F80180819181C81BD90BC80ED91E2E
:1059B000B12CA12C2097A9F08091E80085FD22C090
:1059C0008091E8008E778093E80001151105A1F021
:1059D000F80180819181A80EB91EB182A08285E074
:1059E000F82E8F2DDF91CF911F910F91FF90DF90B7
:1059F000CF90BF90AF9008950E946B2E8823D1F274
:105A0000F82EEFCFF60181916F018093F10021977D
:105A1000FFEFAF1ABF0ACECFAF92BF92CF92DF9205
:105A2000FF920F931F93CF93DF936C01EB018A01D9
:105A30000E946B2EF82E811123C00115110539F03B
:105A4000F80180819181C81BD90BC80ED91EB12CD9
:105A5000A12C2097A9F08091E80085FD22C08091BB
:105A6000E8008B778093E80001151105A1F0F8019B
:105A700080819181A80EB91EB182A08285E0F82EA6
:105A80008F2DDF91CF911F910F91FF90DF90CF90DD
:105A9000BF90AF9008950E946B2E8823D1F2F82E0C
:105AA000EFCF8091F100F60181936F012197FFEF15
:105AB000AF1ABF0ACECFFC0180911C0490911D0447
:105AC00086179707A0F06115710529F49091E800F9
:105AD0009E779093E80090E06115710551F4911163
