:100000000C9496030C94DD030C94DD030C94DD0337
:100010000C94DD030C94DD030C94DD030C94DD03E0
:100020000C94DD030C94DD030C94F3280C94AF289E
:100030000C9449330C94DD030C94DD030C94DD0324
:100040000C94DD030C94DD030C94DD030C94DD03B0
:100050000C94DD030C9425330C94DD030C94DD0328
:100060000C94DD030C94DD030C94DD030C94DD0390
:100070000C94DD030C94DD030C94DD030C94DD0380
:100080000C94DD030C94DD030C94DD030C94DD0370
:100090000C94DD030C94DD030C94DD030C94DD0360
:1000A0000C94DD030C94DD030C94DD0305010902BF
:1000B000A10185020901A100050919012905150001
:1000C00025019505750181029501750381010501E1
:1000D000093009311581257F950275088106093897
:1000E0001581257F950175088106050C0A380215D2
:1000F00081257F950175088106C0C005010980A191
:1001000001850319012AB700150126B7009501756D
:10011000108100C0050C0901A101850419012AA064
:1001200002150126A002950175108100C00660FF2E
:100130000961A1010962150026FF0095207508815B
:10014000020963150026FF00952075089102C0057D
:10015000010906A101050719E029E7150025019508
:1001600008750181029501750881010507190029AB
:10017000FF150026FF009506750881000508190186
:100180002905950575019102950175039101C0003E
:10019000000000000000000000000000000000005F
:1001A000000000000000000000000000000000004F
:1001B0000000007E0F00D4FFFFFFC70000007800A2
:1001C000000000000000002A2B28000000000000B2
:1001D0000000000000000000000029000000002CCA
:1001E0001E3420212224342627252E362D37382769
:1001F0001E1F202122232425263333362E37381F75
:100200000405060708090A0B0C0D0E0F1011121336
:100210001415161718191A1B1C1D2F3130232D35D4
:100220000405060708090A0B0C0D0E0F1011121316
:100230001415161718191A1B1C1D2F3130354C298F
:10024000001E001F002000210022002300240025A2
:1002500000260027002D002E022B0014001A000893
:1002600000150017001C0018000C00120013002FCE
:1002700000300039000000000000000400160007F4
:100280000009000A000B000D000E000F00330034BF
:100290000028000000E10000001D001B0006000017
:1002A00000190000000000050000001100100036D9
:1002B0000037003800374400000000000000000054
:1002C000000000000000000000000000000000002E
:1002D000000000000000000000000000000000001E
:1002E000000000000000000000000000000000000E
:1002F00000000000000000000000000000000000FE
:1003000000000000000000000000000000000000ED
:1003100000000000000000000000000000000000DD
:1003200000000000000000000000000000000000CD
:1003300000000000000000000000000000000000BD
:1003400000000000000000000000000000000000AD
:10035000000000000000000000000000000000009D
:10036000000000000000000000000000000000008D
:10037000000000000000000000000000000000007D
:10038000000000000000000000000000000000006D
:10039000000000000000000000000000000000005D
:1003A000000000000000000000000000000000004D
:1003B000000000000000000000000000000000003D
:1003C000000000000000000000000000000000002D
:1003D000000000000000000000000000000000001D
:1003E000000000000000000000000000000000000D
:1003F00000000000000000000000000000000000FD
:1004000000000000000000000000000000000000EC
:1004100000000000000000000000000000000001DB
:10042000000100B402000002000200B0020000035C
:10043000000100B5020000040002009A02BF090595
:10044000000100B6020000060002009C0200000746
:10045000000200B202000008000100B7020000091B
:100460000002009E029A090A000200A0029A090BEB
:10047000000200A2029A090C000200A4029A090DCF
:10048000000200A6029A090E000200A8029A090FB3
:10049000000200AA029A0910000200AC029A091197
:1004A000000200AE029A0912000200B80200001316
:1004B000000200BA020000FD377A585A000004E634
:1004C000D6B4460200210116000000742FE5A3E017
:1004D000030901125D003D8889C65436C3174FE4F5
:1004E000E17B26800C4BF1341A27CCBCA7162504DF
:1004F00033227DE34BC2D444A2A9D47151918F0B16
:10050000CC449754F2AEC2CEA1AA1A4A69BC0CF1EF
:10051000D0C7F995928D6B435D8F3E2CD94340F344
:100520003AD52DF6950C4E7BECF24DBAE9E813A0C6
:10053000AEEFBB1410F3F65CEE8B75254AFA079408
:100540005B08F49A3AD13EE84800587E8685EF2150
:1005500018BC55F943AFD264F3744551BD1BC58730
:1005600081AEA29615D78B4EF3E5449DAE2474D28E
:1005700055BCD0BE4FDF8030B50ABE8D864CA7B9C2
:10058000621733B585C938E3F3DF46452491E67039
:10059000C824B7615EDD418D339D09FD3A8F623C11
:1005A00031FA2EF39B031CE4E77FE4648350842636
:1005B00039246D56158E4D4284633CC70B58A17A81
:1005C00044F71197FE803E886727829669320DD3E3
:1005D000E66ED35EB921896B9628DFED77C862F5A8
:1005E00062EA547CF2114C51000000DE0B444B8156
:1005F0005BB9E30001AE028A060000CEDDEA1CB161
:10060000C467FB020000000004595A0902BF00053C
:100610000100A0FA090400000103010100092111F1
:100620000100012240000705810308000A090401B6
:10063000000203000000092111010001222200072D
:1006400005820320000107050303200001090402BD
:1006500000010300000009211101000122810007AF
:1006600005840320000A080B0302010100000904AD
:100670000300000101000009240100010900010438
:1006800009040400020103000007240100014100E5
:1006900006240201010006240202020009240301CB
:1006A00003010201000924030204010101000905FC
:1006B000060240000500000525010101090585022B
:1006C0004000050000052501010312011001000092
:1006D0000008444B6E4B0100010203011C0376002D
:1006E000690061006C003A00660036003400630067
:1006F000320062003300630000000E034B006F0005
:1007000072006F006E00650000001C034B00690062
:1007100073006500720020004400650073006900EA
:1007200067006E00730000000403090411241FBE5B
:10073000CFEFDAE0DEBFCDBF04B603FE27C0809165
:10074000B9049091BA04A091BB04B091BC04873065
:10075000904BA740B04BD1F41092B9041092BA0458
:100760001092BB041092BC0414BE84B7877F84BF70
:100770000FB6F894A895809160008861809360001E
:10078000109260000FBEE0E0F8E3099511E0A0E0F0
:10079000B1E0E2EBF8E602C005900D92A23AB10793
:1007A000D9F724E0A2EAB1E001C01D92A93BB2074B
:1007B000E1F70E94CA290C9418340C940000CF92DF
:1007C000DF92EF92FF920F931F93CF93DF9300D0AE
:1007D0000F92CDB7DEB77C01162FD42EC22E80919A
:1007E000ED038430B9F5E091E203F091E303309733
:1007F00009F440C0C701019763E070E00E947033C4
:10080000CB01880F991F860F971F19834A83CB82CC
:100810004E2D481B9E012F5F3F4FBC0188EC93E09B
:100820000995E091E603F091E703309739F00C2D3C
:100830002D2D412FB70188EC93E009950F900F9073
:100840000F90DF91CF911F910F91FF90EF90DF906C
:10085000CF90089582E0E816F10409F45AC083E0CD
:10086000E816F104A9F081E0E816F10409F484C067
:10087000F12CE12CE091E403F091E503309789F24B
:100880000C2D2D2D412FB70188EC93E00995C9CF90
:10089000862F807F803A11F188F48038D1F0E09182
:1008A000CC03F091CD03803929F7309719F3123F2B
:1008B00049F12C2D4D2D612F6F7027C0803E99F08E
:1008C000803FB1F0E091CA03F091CB03803B91F6F9
:1008D000ECCFE091CE03F091CF03E7CFE091D003CE
:1008E000F091D103E2CFE091D203F091D303DDCFB9
:1008F000623F09F0BFCFE091D403F091D503309768
:1009000009F4B8CF2C2D4D2D62EF88EC93E00995BA
:1009100088CF862F807F803DB9F0803FD1F0E09175
:10092000D603F091D703803C09F0A4CF309709F4A7
:10093000A1CF812F8D7F4D2D612F6F70813FC9F029
:1009400088EC93E009956DCFE091D803F091D9033D
:10095000EDCFE091DA03F091DB03633F39F0613FC3
:1009600009F088CFE091DC03F091DD03309709F4C2
:1009700081CF4D2D612FE4CFE091DE03F091DF03B5
:10098000683F38F4663F09F075CFE091E003F091DD
:10099000E103309709F46ECF612F88EC93E009955D
:1009A00040CFE8EDF0E080818E7F80831092E200FE
:1009B0001092DA001092E100A0EEB0E08C9181601C
:1009C0008C9380818F77808319BCA7EDB0E08C91E8
:1009D0008E7F8C9380818F7E80831092B1030895E7
:1009E0002091E4003091E50095E6A9012091EC000A
:1009F000822F817020FF06C08091E80080FF06C032
:100A000080E008952091E80022FD1AC08091C7037C
:100A1000882389F0853089F08091EB0085FD0FC037
:100A20002091E4003091E50042175307F9F291500C
:100A3000E1F684E0089582E0089583E0089581E07E
:100A40000895EF92FF920F931F93CF937C018B0138
:100A50000E94F004C82F811117C08091E80085FD25
:100A60000BC08091E8008E778093E8000E94F0042C
:100A7000882399F3C82F08C0F70181917F018093E3
:100A8000F1000150110949F78C2FCF911F910F915F
:100A9000FF90EF900895CF93FC018091C7038430BD
:100AA00001F5C091E900CF702091EC00922F917078
:100AB00020FD90E8C92B82E08093E9008091E80056
:100AC00080FF0CC050E040E060E270E0CF010E9487
:100AD00021058091E8008E778093E800CF70C09365
:100AE000E900CF910895EF92FF920F931F93CF9358
:100AF0007C018B010E94F004C82F811117C08091E6
:100B0000E80085FD0BC08091E8008B778093E800BA
:100B10000E94F004882399F3C82F08C08091F10047
:100B2000F70181937F010150110949F78C2FCF9173
:100B30001F910F91FF90EF9008958091BF0387FF61
:100B400013C08091E80082FF06C08091E8008B7797
:100B50008093E80004C08091C7038111F2CF08950B
:100B60008091C7038823D9F38091E80080FFF8CFF4
:100B70008091E8008E77ECCF982F9093E900242F96
:100B8000762F50E0891731F07091EC002091ED0044
:100B90005091F00021FD07C09F5F973071F780935F
:100BA000E90081E008953091EB003E7F3093EB0047
:100BB0003091ED003D7F3093ED003091EB003160DE
:100BC0003093EB007093EC002093ED005093F00015
:100BD0002091EE0027FDE0CF80E00895CF92DF92D4
:100BE000EF92FF920F931F93CF93DF93C8EDD0E066
:100BF00088818F7E8883E7EDF0E08081816080834B
:100C000084E082BF81E08093B10388818E7F8883F6
:100C100002EE10E0F80110821092DA0081EEC82E88
:100C2000D12CF601108288818F7788838881806833
:100C3000888388818F7D888319BC1092C7031092A6
:100C4000BE031092BD031092BC0390EEE92EF12C6E
:100C5000F70180818B7F808388818160888342E077
:100C600060E080E00E94BC05F60180818E7F808379
:100C7000F801808181608083808188608083F701B2
:100C800080818E7F8083888180618883DF91CF918E
:100C90001F910F91FF90EF90DF90CF900895FC018E
:100CA0008091C5039091C60386179707A0F0611540
:100CB000710529F49091E8009E779093E80090E008
:100CC0006115710551F4911108C08091E80082FF0F
:100CD00034C080E00895BC01F2CF8091C70388231F
:100CE000C1F18530C1F18091E80083FD30C0809171
:100CF000E80082FDEACF8091E80080FFE1CF80919B
:100D0000F3002091F200382F6115710519F0283099
:100D1000310558F091E02830310509F090E020913C
:100D2000E8002E772093E800CBCF81918093F100EB
:100D3000615071092F5F3F4FE7CF8091C703882330
:100D400041F0853041F08091E80083FFBECF81E023
:100D5000089582E0089583E0089580E0089508955D
:100D600008958091B3030895982F907F903BE9F008
:100D700040F49039D1F0903AC1F09038B1F080E071
:100D80000895903D19F020F4903CC9F782E0089551
:100D9000903E59F0903F99F7815F8F3080F7E82FB0
:100DA000F0E0E35AFE4F8081089583E00895DF92DA
:100DB000EF92FF920F931F93CF93DF9300D000D059
:100DC000CDB7DEB77B01142FD22E4A832B830C8341
:100DD000842F0E94B406811141C082E0E816F1041C
:100DE000C1F183E0E816F10439F0EA94EF2829F51F
:100DF000173F29F485E004C087E0073F09F084E04D
:100E000089838091C7038430C1F480910E018F7073
:100E10008093E90050E040E064E070E0CE0101968C
:100E20000E942105811109C08091E80085FD05C05F
:100E30008091E8008E778093E8000F900F900F90DC
:100E40000F90DF91CF911F910F91FF90EF90DF9066
:100E5000089587EFD812D3CF86E0D2CF12951F70B6
:100E60001983CFCFFF920F931F93CF93DF9300D0BF
:100E700000D000D00F92CDB7DEB78C0108511F4FC4
:100E80008091C703843009F06CC0809113018F708A
:100E90008093E9008091E80082FF63C08091E800C0
:100EA00085FF5FC050E040E064E070E0CE01019655
:100EB0000E9473058091E80085FD05C08091E800DF
:100EC0008B778093E800FA808F2D0E94B406282F3C
:100ED000FD828B818E838C818F8321110AC0898151
:100EE000843039F1873029F1863029F121E08530CD
:100EF00039F630E0E5E0F0E0EC0FFD1FE30FF11D07
:100F0000F0804FB7F894D8011196EC911197F0E06A
:100F1000CF01019612966C9170E00E948433D80143
:100F20005C915817190649F44FBF3F5F321710F311
:100F3000A7CF23E0DECF22E0DCCF13968D919C91EA
:100F40001497E80FF91FF08211968C91119790E099
:100F5000019612966C9170E00E948433F8018183AF
:100F6000E3CF27960FB6F894DEBF0FBECDBFDF915B
:100F7000CF911F910F91FF9008959C014FB7F89466
:100F80008091A9039091AA03A091AB03B091AC0307
:100F90004FBF821B930B08952FB7F8948091A9033C
:100FA0009091AA03A091AB03B091AC032FBF089519
:100FB0009C01FC0132969FEF80E04191461751F071
:100FC0009F3F19F4411101C0982F8F5F8630A9F718
:100FD0009F3F09F40895290F311D97FD3A95F901B6
:100FE00062830895809590911E03982390931E0329
:100FF0000895809590911D03982390931D03089563
:1010000080911D0390911E03892B90911C03892BC5
:101010008093A401E0917E03F0917F03309731F03B
:101020000280F381E02D84EA91E0099408959E3FC7
:1010300049F1E82F2FE0929FE00D11249E2F977029
:10104000E695E695E69585E0E89FF0011124EC50E1
:10105000FD4F50E040E080E0219130E0092E02C0D9
:10106000369527950A94E2F721703327042E01C0A4
:10107000220F0A94EAF7822B4F5F5F4F45305105EC
:1010800059F7089580E008959E3F69F1E82F2FE019
:10109000929FE00D11248E2F877041E001C0440F14
:1010A0008A95EAF7E695E695E69585E0E89FF001F2
:1010B0001124EC50FD4F30E020E070E05191DF0151
:1010C0001197CB01022E02C0969587950A94E2F7FC
:1010D000817081958527842385278C932F5F3F4FCF
:1010E0002530310559F708952091F3029091C202FD
:1010F00056E0291302C080E0089530E0529FF001CD
:10110000539FF00D1124ED53FD4F7181761306C0EE
:101110007081781303C07281741304C02F5F3F4F36
:101120002770E7CF81E00895452B39F0682381E0EF
:101130006F3F09F080E08170089581E0FCCF8091DD
:10114000F3029091C202981301C008958F5F8770D7
:10115000FACFE92FE295EF70E250EE3070F4F0E054
:10116000E65EFB4C0C949833803F19F020F4883EE7
:1011700020F481E00895843FE1F380E00895883E03
:10118000C0F3813FD1F7F5CF93FB882780F908950D
:10119000882321F00E94F2070C9400080895882308
:1011A00039F090911E03982B90931E030C94000825
:1011B0000895882321F00E94F9070C9400080895EF
:1011C000882339F090911D03982B90931D030C9464
:1011D000000808952091C7013091C80128173907E8
:1011E00071F09093C8018093C701E0917E03F09164
:1011F0007F03309721F00084F185E02D0994089554
:101200002091C5013091C6012817390771F09093DC
:10121000C6018093C501E0917E03F0917F03309772
:1012200021F00680F781E02D09940895E0917E0376
:10123000F0917F03309721F00190F081E02D099427
:1012400080E00895CF93DF93EC0181E0898B80915A
:101250001D039F81892B80931D0380911E03988518
:10126000892B80931E030E940008EA81FB8130973E
:1012700039F06C897D89CE010696DF91CF91099472
:10128000DF91CF910895EF92FF920F931F93CF9329
:10129000DF93EC018A85811134C0EB80FC8087E507
:1012A000F81A26E12E9DC0012F9D900D1124DC011E
:1012B000A553BE4F1496ED91FC911597309731F0E0
:1012C00054966D917C918F529E4F099586E18E9D2B
:1012D00080018F9D100D112405531E4FF801878149
:1012E0000E94F907F80180850E94F2070E94000819
:1012F000188219861B861E821D821092CA011092C6
:10130000C901DF91CF911F910F91FF90EF90089548
:10131000E8E4F3E083E0E037F80739F488E090E0B0
:101320009093900280938F020895848187FF1482A6
:101330003596F0CFEAE9F2E0848195812AE030E049
:10134000B9010E94703360930B01868180930C0178
:101350008285809303018485809302018685978529
:10136000B9010E94703360930901808980930A015A
:10137000828980930101848980930001089580917E
:101380009A0290919B029093050180930401089525
:101390000E94CC079C0190918F0380919003982B21
:1013A00021F030938C0320938B03909191038091D3
:1013B0009203982B21F03093890320938803E091C6
:1013C0007E03F0917F03309749F082E080938D0394
:1013D0000480F581E02D8DE893E00994089590E074
:1013E00080E00E94000990E080E00E94EA081092EC
:1013F0001E0310921C030E94000886E0EDE8F3E053
:10140000DF011D928A95E9F710928A0310928703F3
:10141000109299020C94C8096093B5047093B604B5
:101420008093B7049093B8040C94EF090F931F9323
:101430006091B5047091B6048091B7049091B8049E
:101440008B019C01067011272227332706301105D6
:101450002105310529F468601F910F910C940C0A45
:10146000677FFACF0F931F9341E050E060E070E098
:1014700004C0440F551F661F771F8A95D2F7CB0112
:10148000BA0160957095809590950091B504109182
:10149000B6042091B7043091B804602371238223ED
:1014A00093231F910F910C940C0A0F931F9341E00B
:1014B00050E060E070E004C0440F551F661F771FC6
:1014C0008A95D2F78091B5049091B604A091B704A3
:1014D000B091B8048A019B01082B192B2A2B3B2BB6
:1014E000C901B8011F910F910C940C0A60931F035E
:1014F0007093200380932103909322030C94EF09AF
:1015000090918F03803F59F48091900387FF0DC025
:101510001092900391110BC010928A0308C0813F72
:1015200081F48091900318169CF3992381F08091A7
:10153000910390919203892B09F064C01092870364
:101540000895823F49F497FFF0CF10928F03809166
:1015500090038111ECCFE0CF833F19F41916ACF35F
:10156000E4CF20919103893F29F41216F4F61092EA
:101570009103DBCF8A3F19F427FFD7CFF8CF209113
:1015800092038B3F29F427FFD0CF10929203CDCF47
:101590008C3F19F41216CCF3C8CF843F31F48091FC
:1015A0008E038E7F80938E03C0CF853F21F4809180
:1015B0008E038D7FF7CF863F21F480918E038B7F42
:1015C000F1CF873F21F480918E03877FEBCF883F57
:1015D00021F480918E038F7EE5CF8D3F31F4809191
:1015E00099028E7F80939902A0CF8E3F21F4809143
:1015F00099028D7FF7CF8F3F09F097CF80919902A5
:101600008B7FF0CF08958823B1F19CEF980F913A2A
:1016100070F4E6EAF1E09191891303C0DF011197BC
:101620001C9291E0EC3AF907B1F70C94000890E2B3
:10163000980F983050F4877091E001C0990F8A9507
:10164000EAF7892F0E94F907F0CF9BE5980F9330B6
:1016500020F490E080E00C94000998E5980F973111
:1016600020F490E080E00C94EA08803F20F00E9493
:10167000800A0C94C80908958091990280FF0CC0DB
:101680006091010170E07595679575956795611595
:10169000710549F1862F089581FF06C0609101010F
:1016A00070E075956795F3CF6091010182FD0BC0E5
:1016B000909187039923A1F060910001809101012D
:1016C000961738F0682F70E06038710500F38FE7E7
:1016D0000895899FC001112470E00E948433F4CFE3
:1016E00061E070E0D7CF81E0089580919902609128
:1016F000A2027091A30280FF16C020910301269FD1
:10170000C001279F900D1124BC01769567957695B1
:1017100067956038710508F043C06115710509F4DB
:1017200041C0862F089581FF0BC020910301269FA1
:10173000C001279F900D1124BC0176956795E9CFD4
:1017400082FF09C0809103019B01829FB001839FAA
:10175000700D1124DECF20918A032223D1F29091C3
:10176000020180910301482F50E0291748F0CB0176
:10177000849FB001859F700D949F700D1124C9CF77
:10178000289F90011124269FA001279F500D369F6E
:10179000500D1124692F70E0CA010E947033B9CF37
:1017A0008FE7089581E00895803F31F40E94750B22
:1017B0008195809390030895813F19F40E94750BE1
:1017C000F8CF823F31F40E94750B819580938F038F
:1017D0000895833F19F40E94750BF8CF893F29F4CF
:1017E0000E943C0B8093910308958A3F21F40E944C
:1017F0003C0B8195F7CF8B3F31F40E943C0B8195D8
:101800008093920308958C3F19F40E943C0BF8CF0B
:10181000843F31F480918E03816080938E0308951C
:10182000853F21F480918E038260F7CF863F21F4BB
:1018300080918E038460F1CF873F21F480918E03E5
:101840008860EBCF883F21F480918E038061E5CFE3
:101850008D3F31F4809199028160809399020895BF
:101860008E3F21F4809199028260F7CF8F3FB9F7C4
:10187000809199028460F1CFCF93C82F882309F417
:1018800056C08CEF8C0F813AF8F4E6EAF1E08CEA6E
:1018900091E0DF012D91C21759F08A179B07D1F70C
:1018A0006C2F84EA91E00E94D807CF910C94000835
:1018B0002191C21303C0DF0111971C928E179F075D
:1018C000B9F70E940008ECCF80E28C0F883068F4F2
:1018D000C77021E030E001C0220FCA95EAF780917D
:1018E0001D03822B80931D03E0CFEBE5EC0FE3306B
:1018F00040F4F0E0E45DFE4F808190E0CF910C94E5
:101900000009E8E5EC0FE73150F4F0E0EE0FFF1FBF
:10191000E15DFE4F80819181CF910C94EA08C03F38
:1019200030F08C2F0E94D40BCF910C94C809CF912A
:101930000895F894E82FE295EF70F0E031A1282F98
:101940002F7081E090E001C0880F2A95EAF7982F68
:101950009095932391A392A1892B82A378940895C3
:101960009091700392FF06C0282F28712830F9F457
:10197000877F846093FF06C0282F28712831F1F4F7
:10198000877E84612091710320FF06C0382F387153
:101990003830D9F4877F816021FF06C0282F287155
:1019A0002831D1F4877E816194FD877E0895282FA8
:1019B00024712430F9F68B7F8860DCCF282F2471C6
:1019C000243101F78B7E8861DDCF382F31713130C2
:1019D00019F78E7F8860E0CF282F2171213121F700
:1019E0008E7E8861E1CFCF93DF939C013A952115DC
:1019F0003F4168F5EC01CC27D170DC01AA27B27019
:101A0000AC01442754709C012227387094FF11C008
:101A100080E1CD2B09F480E0AB2B09F08062452BEF
:101A200009F08064232B09F08068FB01DF91CF91DE
:101A3000099481E0CD2B09F480E0AB2B09F08260A2
:101A4000452B09F08460232B81F38860EECFDF9172
:101A5000CF910895CF93DF93EC010E94030BCE0149
:101A6000805E9109089720F068EC78E0209711F4E7
:101A700069ED78E0CE01DF91CF910C94F30CCF9318
:101A8000DF93EC01805E9109089720F06FEC78E01D
:101A9000209711F460EE78E0CE010E94F30C8C2FB9
:101AA000DF91CF910C943C0CCF9390918B029923B2
:101AB00021F0811116C010928B02CF910895EC2F66
:101AC000F0E0EE0FFF1FE358FD4F808191810E94EF
:101AD0003F0D0E940008CF5F80918B02C81778F3FA
:101AE000EACFC0E0F9CFCF93DF9300D00F92CDB70C
:101AF000DEB79091C703943011F589837B836A83A5
:101B00009093E9008FEF9091E800815095FD06C019
:101B100095ED9A95F1F700008111F5CF8091E800DD
:101B200085FF0DC050E040E063E070E0CE0101961B
:101B30000E9421058091E8008E778093E8000F9045
:101B40000F900F90DF91CF910895BC0184E00C9429
:101B5000730DBC0183E00C94730D9C0184E08093B1
:101B6000E9009FEF8091E800915085FD06C085ED6A
:101B70008A95F1F700009111F5CF8091E80085FF7B
:101B80000CC050E040E066E070E0C9010E94210511
:101B90008091E8008E778093E8000895CF93DF93DB
:101BA000EC0181E08093E9008FEF9091E800815093
:101BB00095FD06C095ED9A95F1F700008111F5CFDE
:101BC0008091E80085FF14C050E040E068E070E0DC
:101BD000CE010E9421058091E8008E778093E80075
:101BE00088E0FE01A4EBB3E001900D928A95E1F745
:101BF000DF91CF91089581E08093E00080E28093AF
:101C0000D8001092C9008FE19EE40197F1F700C05F
:101C1000000087E090EBDC018093B9049093BA0454
:101C2000A093BB04B093BC0488E19CE00FB6F89489
:101C3000A895809360000FBE90936000FFCF1F9324
:101C4000CF93DF93182FC091BA02D091BB02893392
:101C500021F0C091B802D091B902812F0E943C0CB2
:101C6000209731F4812FDF91CF911F910C94030BBA
:101C70008FE99FE00197F1F700C000002197F0CFB6
:101C80000F931F93CF93DF93C42FD22FFC01828138
:101C90008823A1F0409395020E94CC079093C40141
:101CA0008093C301C77081E001C0880FCA95EAF72D
:101CB000DF91CF911F910F910C94E0081091950244
:101CC000141339C08091C3019091C4010E94BD07D3
:101CD0002091B2023091B3028217930760F5C0E2FF
:101CE000CD0F1D17B9F080E2810F883040F41770D6
:101CF00081E001C0880F1A95EAF70E94D908C83020
:101D000048F481E09D2F977001C0880F9A95EAF7FB
:101D10000E94E008802F0E941F0EC83098F4D770F0
:101D200081E001C0880FDA95EAF7DF91CF911F912A
:101D30000F910C94D908C77081E001C0880FCA9533
:101D4000EAF7F3CFDF91CF911F910F910895DF92C2
:101D5000EF92FF920F931F93CF93DF93E82FF0E062
:101D6000E154FE4FD490282F26952695269530E0F5
:101D7000F901E155FE4F0491877010E0082E02C072
:101D8000159507950A94E2F701701127F901E156BC
:101D9000FE4FE490F12C082E02C0F594E7940A94CB
:101DA000E2F791E0E922FF24F901E157FE4FC491E7
:101DB000D0E002C0D595C7958A95E2F7C170DD27BE
:101DC0000115110519F081EE0E943C0CE114F1049B
:101DD00019F086EE0E943C0C8D2D0E941F0EEF28FC
:101DE00019F086EE0E94030B012B19F081EE0E9480
:101DF000030BCD2B51F08CE2DF91CF911F910F910E
:101E0000FF90EF90DF900C941F0EDF91CF911F9108
:101E10000F91FF90EF90DF900895019708F40895D7
:101E2000EFE9FFE03197F1F700C00000F6CFFF9235
:101E30000F931F93CF93DF938C01EB01F42E8091CE
:101E4000080182FF43C08B7F80930801809191023B
:101E50002091930230919402AB01421B530B9A01E3
:101E6000409104015091050124173507A8F40E9400
:101E70003C0C809108018D7F809308018091B8020D
:101E80009091B9020E940D0F809191020E94030B64
:101E900082E00E94F20724C090911E03926090930A
:101EA0001E030E943C0C809108018260809308010F
:101EB0008091B50285FFE2CF86FDE0CFFF20F1F2F1
:101EC000DF91CF911F910F91FF900895802F0E9475
:101ED000030B809191029091920280179107C1F2B9
:101EE0000E940008D0939402C0939302E9CF8F928E
:101EF0009F92BF92CF92DF92EF92FF920F931F9328
:101F0000CF93DF93CCE6D1E006E713E080E7E82E3D
:101F100081E0F82EB12CCC24C394D12C8991F89473
:101F2000E82FE295EF70F0E021A18F70A60102C0CA
:101F3000440F551F8A95E2F7CA01922F982B91A35F
:101F400092A18095892382A3789400C0E0E7F1E014
:101F500030E020E0912C812C4191A42FA295AF700C
:101F6000B0E090968C9190E04F7002C09595879567
:101F70004A95E2F780FD5DC0C601022E02C0880FBF
:101F8000991F0A94E2F7882A992A2F5F3F4F2F3032
:101F9000310511F7FE01319780810E94990C50EABA
:101FA0005A95F1F7F801808191818816990609F414
:101FB00043C09182808281E0B82A0E5F1F4FEC16E9
:101FC000FD0609F0ABCFBB20C9F181E08093AE01E3
:101FD0000E94CC079093AD018093AC018091AC013D
:101FE0009091AD010E94BD07069760F18091760344
:101FF000909177039093A2038093A103809178033B
:10200000909179039093A4038093A30380917A0322
:1020100090917B039093A6038093A50380917C030A
:1020200090917D039093A8038093A7031092AE0133
:1020300009C090E080E0A7CF80E0BECF8091AE01E4
:102040008111CCCF8091060110E006E18F3F09F0AD
:1020500063C08091070181116AC08091B50280FF41
:102060001CC08091080182FF18C00E94CC072091FB
:10207000930230919402AC01421B530B2091040156
:10208000309105014217530740F041E0BC018091B7
:102090009102909192020E94170F8B2DDF91CF91A8
:1020A0001F910F91FF90EF90DF90CF90BF909F9086
:1020B0008F900895029FF001039FF00D1124E553C6
:1020C000FE4FE288F388E114F10421F4E090B202BB
:1020D000F090B302029FE001039FD00D1124C5537D
:1020E000DE4F8E818823B9F08D859E850E94BD07C5
:1020F000E816F90680F4109F700111248989811176
:1021000005C0C70185539E4F0E942209C7018F5207
:102110009E4F0E9443091F5F212F30E080910601EE
:10212000082E000C990B8217930724F692CF80910A
:102130008C0290918D02009709F48FCF0E94BD0709
:102140002091B0023091B1022817390708F085CFED
:1021500081E00E94540D0E9488097FCF1F93CF9386
:10216000DF93EC011AE08881882309F43EC08130B6
:10217000C9F599818A81913029F422960E941F0E17
:102180002196F1CF923021F422960E943C0CF8CF98
:10219000933021F422960E94030BF2CF943011F079
:1021A0002196EECF229630E020E0AE014F5F5F4FE8
:1021B0008053990B8A30910550F02150310900F37A
:1021C0008FE99FE00197F1F700C00000F6CF129F62
:1021D000B001139F700D11249C01260F371F8981B8
:1021E000EA01E3CF0E94A70ECBCFDF91CF911F91E1
:1021F0000895CF9384E090E00E94CE33C82F82E20E
:1022000090E00E94CE33982F8C2FCF9108950F939A
:102210001F93CF93DF930AE912E0C7E2D2E0CE0129
:102220000E94CE33F80181938F012196C934F2E0E8
:10223000DF07A9F7C5E2D4E0FE01859194910097EC
:1022400011F0FC0109952896F4E0CD3BDF07A1F7DA
:10225000DF91CF911F910F9108950F931F93CF930B
:10226000DF93843038F5623028F528E0829FC00182
:10227000112434E0639FB0011124860F971FC42FEF
:10228000D0E0CC0FDD1FC80FD91FC95FDD4FCE01D5
:102290000E94CE33082F10E0102F0027CE010196A8
:1022A0000E94CE339801282BC901DF91CF911F9155
:1022B0000F91089590E080E0F8CF0F931F93CF9394
:1022C000DF93843030F5643020F54F3010F5C42FA3
:1022D000D0E0CC0FDD1F2EE1629FC00DD11D112477
:1022E00038E7839FC00DD11D1124CE0187960E942F
:1022F000CE33082F10E0102F0027CE0188960E94C1
:10230000CE339801282BC901DF91CF911F910F91F6
:10231000089590E080E0F8CF462F2091AF033091F0
:10232000B003232B91F47E3F39F46E3F71F480911A
:10233000C1019091C2010895843038F4743028F4BA
:102340006F3018F4672F0C945D1190E080E00895D1
:10235000CF93DF930E948C11EC018238910581F1BB
:10236000B0F58133910509F491C020F589329105CA
:1023700009F485C08A9709F490C0C11520E5D207F9
:1023800008F0A7C0C11530E4D30708F0F6C0CF3B72
:10239000D10508F089C0C83AD10508F0E1C0C53AB6
:1023A000D10508F0D5C0C430D105F8F4C130D1054D
:1023B000E1F040C08533910509F45AC0C997E9F6A8
:1023C00080917003837089F0C0EED0E00EC0833E30
:1023D000910599F170F4803E910501F1823E9105DD
:1023E00061F68091700382FD21C0CE01DF91CF9113
:1023F0000895863E910561F1873E910571F1843E15
:10240000910509F0BACF8091710381FFEECF8091E1
:102410007003C7EED0E084FD0DC0E7CF809170035C
:1024200080FDFEC09091710390FFDFCFC3EED0E03E
:1024300084FFDBCFD0E0C0E0D8CF8091700382FD75
:10244000F2C09091710390FDBFCF84FFCECFF2CF49
:102450008091700383FDDDCFC8CF8091700383FD31
:10246000E5C09091710391FFF0CFC4EED0E0BDCFF5
:102470008091700385FFB9CFC9E2D0E0B6CF8091DB
:10248000700385FFB2CFC5E3D0E0AFCF809170037A
:1024900086FFABCFCAE2D0E0A8CF8091700386FF61
:1024A000A4CFC1E3D0E0A1CFCF3FD10509F058F4CC
:1024B000C03FD10508F05FC0CE01815E910907974A
:1024C00008F493CFB7CFC11540E2D40708F48DCFFD
:1024D000B1CFC11584E5D807A0F4C11593E5D9079C
:1024E00008F07CC0C11522E5D20708F066C0C1150E
:1024F00031E5D30708F444C0DC2FCC27C16FD06A84
:1025000074CFC1154AE5D40778F4C11589E5D80719
:1025100008F078C0C11598E5D90708F48BCFDC2FF7
:10252000CC27C06FD06A61CFCE0190568115904202
:1025300008F080CF8D2F8F710E94B00C90E0982F03
:10254000882788279F719C012C2BE901D0624DCFF1
:10255000C55AD0E0C45DDE4FC881D0E0D06445CF1D
:10256000C85AD0E0CC0FDD1FC15DDE4F0990D88185
:10257000C02DD4643ACFD06538CFDF70D06A35CF64
:10258000CE0164E0969587956A95E1F783702C2FCC
:1025900026952695237040E2249F90011124382B24
:1025A0008C2F8370C1E0D0E002C0CC0FDD1F8A9574
:1025B000E2F7C22BD32BDC6818CFCE0183709927AA
:1025C00021E030E002C0220F331F8A95E2F7C69562
:1025D000C69580E2C89FE0011124EBCFCE01837045
:1025E000992721E030E002C0220F331F8A95E2F7DD
:1025F000C695C69590E2C99FE0011124C22BD32B4A
:10260000DA68F3CE8C2F8F700E94B00C34E0D69530
:10261000C7953A95E1F7CF709C2FEC01D069E5CED4
:10262000C9E3D0E0E2CEC2EED0E0DFCEC6EED0E02D
:10263000DCCEBF92CF92DF92EF92FF920F931F9367
:10264000CF93DF938C01C090B504D090B604E09096
:10265000B704F090B80480911F0390912003A091DB
:102660002103B0912203C82AD92AEA2AFB2ACFE102
:10267000D0E0BC2ED701C6010C2E04C0B695A7959C
:10268000979587950A94D2F780FD0EC0219788F719
:10269000B12C8B2DDF91CF911F910F91FF90EF9077
:1026A000DF90CF90BF900895B8018C2F0E94A811A1
:1026B000019761F3EECFCF93DF93EC010E941913E2
:1026C000BE01DF91CF910C94A8110E945B130C9472
:1026D000A9081F93CF93DF9300D000D00F92CDB7FE
:1026E000DEB749835A8389819A816623B9F0222310
:1026F000A9F00E941913182F682F89819A810E94CE
:10270000440869817A81812F0F900F900F900F906C
:102710000F90DF91CF911F910C948C110E9417089C
:10272000182FEFCF0F931F93CF93DF930AE912E097
:10273000C7E2D2E0CE010E94CE33F80161918F0151
:10274000681719F0CE010E94DC332196C934F2E0FB
:10275000DF0781F7DF91CF911F910F910895EAE98B
:10276000F2E0128E138E8FEA90E09183808385E0F1
:10277000848F88E893E1938382832CE231E0358370
:10278000248382E390E09783868385E090E09187BD
:1027900080878AE090E09387828744E150E0558704
:1027A00044873787268724E630E0318B208B28E06A
:1027B00030E0338B228B28E230E0358B248B28EC01
:1027C00030E0378B268B318F208F158E978F868F39
:1027D00080E590E091A380A30E9492130C940711CE
:1027E000CF93DF93C9EED2E060E0CE010E94DC33EC
:1027F0002196C11584E0D807B9F7DF91CF910895EC
:102800000F931F93CF93DF938901843068F5623073
:1028100058F5423048F501152CE5120731F42091A6
:10282000AD033091AE03232BF9F028E0829FC00165
:10283000112424E0629FB0011124860F971FC42F3A
:10284000D0E0CC0FDD1FC80FD91FC95FDD4F612F4E
:10285000CE010E94DC33602FCE010196DF91CF9133
:102860001F910F910C94DC33DF91CF911F910F9149
:1028700008950F931F93CF93DF938901843048F518
:10288000643038F54F3028F521153C4531F420915E
:10289000AD033091AE03232BE1F0C42FD0E0CC0F79
:1028A000DD1F9EE1699FC00DD11D112498E7899F0E
:1028B000C00DD11D1124612FCE0187960E94DC33FB
:1028C000602FCE018896DF91CF911F910F910C94CC
:1028D000DC33DF91CF911F910F91089510921D036A
:1028E000E6EAF1E086E0DF011D928A95E9F70C94B3
:1028F000EF091F93CF93DF93CDB7DEB7AA970FB63B
:10290000F894DEBF0FBECDBF8FEB93E02091F100B6
:10291000DC012D93CD01B3E0873C9B07B9F7809193
:10292000C003833009F471C0B8F4813009F448C0A1
:10293000823009F4B2C08091E80083FF3AC18091EF
:10294000BF039091C0039A3008F033C1E92FF0E043
:10295000E85DFB4C0C9498338A3009F48DC08B30C1
:1029600009F470C0893039F78091BF03813219F7BB
:102970008091C3039091C403009711F00297D9F698
:102980008091E800877F8093E8008091E80082FFD3
:1029900037C09091F3008091F200029729F4809162
:1029A000F1008B7F813021F48091F1008093B3039B
:1029B0008091E8008B778093E8000E949D05BBCF53
:1029C0008091BF03813A09F0B6CF8091E800877FFC
:1029D0008093E8008091C3039091C403892B61F434
:1029E00068E084EB93E070E00E944F068091E8007D
:1029F0008B778093E8009FCF60E090E080E0F3CF9A
:102A00008091C7038111C1CF96CF8091BF03813AD6
:102A100009F091CF8091C3039091C403892B09F0F1
:102A20008ACF8091E800877F8093E8008091E8005A
:102A300080FFFCCF809123018093F1008091E8001A
:102A40008E77B9CF8091BF03813209F074CF809126
:102A5000C3039091C403892B09F06DCF8091E800E6
:102A6000877F8093E8000E949D058091C103809339
:102A700023010E946E145FCF8091BF03813209F061
:102A80005ACF8091E800877F8093E8000E949D05DF
:102A90008091C2038093B2034ECF8091BF03813AED
:102AA00009F049CF8091E800877F8093E80080910A
:102AB000E80080FFFCCF8091B203BECF803899F050
:102AC000823809F076C08091C3038F70873008F098
:102AD00070C08093E9008091EB0085FB882780F926
:102AE0001092E90006C08091BC039091BD03911142
:102AF00082609091E800977F9093E8008093F100C6
:102B00001092F1008091E8008E77CAC1882309F401
:102B1000B7C1823009F04DC08091C1038111BBC1A2
:102B20008091C3038F702FEF280F263008F041C02B
:102B30008093E9002091EB0020FFADC1933031F488
:102B40008091EB0080628093EB00A5C19091EB0037
:102B500090619093EB0021E030E001C0220F8A9554
:102B6000EAF72093EA001092EA008091EB00886077
:102B7000EACF81111EC01091C1031F778091E3003D
:102B80008078812B8093E3008091E800877F809399
:102B9000E8000E949D058091E80080FFFCCF8091B5
:102BA000E30080688093E30082E0111183E080936A
:102BB000C7038091E80083FF0AC08091E800877F07
:102BC0008093E8008091EB0080628093EB00AA96EE
:102BD0000FB6F894DEBF0FBECDBFDF91CF911F912E
:102BE00008958058823028F72091C1033091C203A4
:102BF0002C3DE3E03E07A1F583E08A838AE28983E6
:102C00004FB7F894DE01139620E03EE051E2E32F47
:102C1000F0E050935700E49120FF03C0E295EF707D
:102C20003F5FEF708E2F90E0EA30C0F0C7968D9333
:102C30009D932F5F243159F74FBF8091E800877F24
:102C40008093E8006AE270E0CE0101960E944F0690
:102C50008091E8008B778093E800ABCFC096E7CFF8
:102C60008091C3039091C403432F552743305105EE
:102C700009F44AC078F54130510509F485C08FEB5D
:102C800090E0EBE0F6E04230510509F092CF209160
:102C9000E800277F2093E8002091C5033091C60308
:102CA0008217930708F49C0140E02115310509F0D3
:102CB00070C041116EC08091E80082FDC9CF809143
:102CC000C703882329F2853019F28091E80083FF39
:102CD000F2CFBECF4132510509F447C0423251050F
:102CE00009F067CF8330910508F063CFFC01EE0F48
:102CF000FF1FEA56FE4F0190F081E02D8D569E4F4A
:102D0000DC018C9190E01DC0332721303105E9F0C2
:102D10002115310579F022303105F9F023303105E4
:102D200009F047CFECEDF6E0E4918E2F90E0ECED6A
:102D3000F6E007C0E8E2F7E0E4918E2F90E0E8E2E9
:102D4000F7E0009709F435CFA2CFEAE0F7E0E4918D
:102D50008E2F90E0EAE0F7E0F4CFEAEFF6E0E491BE
:102D60008E2F90E0EAEFF6E0ECCF8330910508F08B
:102D700020CF880F991FFC01E456FE4F0190F0818F
:102D8000E02D89E090E083CF82E190E0EAECF6E08C
:102D90007ECF8091C703882309F45ACF853009F488
:102DA00057CF8091E80083FD53CF8091E80082FDEA
:102DB00082CF8091E80080FF78CF9091F3008091DE
:102DC000F2002115310519F08830910550F041E0ED
:102DD000089709F040E08091E8008E778093E80042
:102DE00064CF44914093F10031962150310901960E
:102DF000E8CF803809F0DDCE8091E800877F8093AE
:102E0000E8008091BE038093F1007CCE8111D1CE89
:102E10001091C103123008F0CCCE8091E800877F7A
:102E20008093E8001093BE030E949D05112311F0CA
:102E300084E005C08091E30087FDFACF81E08093B4
:102E4000C70342E061EC81E00E94BC0542E261EC14
:102E500084E00E94BC0542E261EC82E00E94BC0575
:102E600042E260EC83E00E94BC0542E361E885E059
:102E70000E94BC0542E361E886E00E94BC0599CE51
:102E80008091C103813009F094CE81E0933009F044
:102E900080E08093BD031092E9008091E800877F75
:102EA0008093E8000E949D0584CE7F928F929F922E
:102EB000AF92BF92CF92DF92EF92FF920F931F9348
:102EC000CF93DF93CDB7DEB764970FB6F894DEBF2C
:102ED0000FBECDBFA090AD03B090AE0381E090E0F7
:102EE0009093AE038093AD038FE3C82E82E0D82E7B
:102EF00010E0760100E015C0F40125913491472DD2
:102F0000602F812F0E94391482E0880E911C7394E7
:102F1000EFE07E12F1CFFEE1EF0EF11C0F5F043007
:102F200019F04701712CE8CF21E030E040E060E08B
:102F3000812F0E94001421E030E041E060E0812F09
:102F40000E94001421E030E040E061E0812F0E9407
:102F5000001421E030E041E061E0812F0E94001484
:102F60001F5F88E7C80ED11C143009F0C2CF0E9441
:102F7000AF131A8219821C821B821E821D82188640
:102F80001F8288EC90E09A87898709E412E04AE082
:102F900050E0B801CE0101960E940034065F1F4F39
:102FA0000939E2E01E0799F77E01FBE0EF0EF11C04
:102FB0008AE0F70111928A95E9F74AE050E0B801FA
:102FC000C7010E940034065F1F4F093EF2E01F0751
:102FD000A1F7B092AE03A092AD0364960FB6F89439
:102FE000DEBF0FBECDBFDF91CF911F910F91FF903C
:102FF000EF90DF90CF90BF90AF909F908F907F9099
:1030000008956AEE7EEF90E080E00E94FA3360E07F
:1030100082E090E00E94DC3360E083E090E00E9478
:10302000DC3310921F0310922003109221031092A0
:10303000220360E084E090E00E94DC3360E082E202
:1030400090E00E94DC3360E085E090E00E94DC3399
:1030500060E086E090E00E94DC336FEF87E090E074
:103060000E94DC3340E050E0BA0188E090E00E942A
:10307000EE3360E08DE090E00E94DC3340E050E011
:10308000BA0188E190E00E94EE3360E087E190E0D1
:103090000E94DC3340E050E0BA018CE190E00E94F5
:1030A000EE3370E060E080E290E00E94FA3340E0AE
:1030B00050E0BA0188E190E00E94EE3340E050E039
:1030C000BA018FE090E00E94EE3340E050E0BA0198
:1030D00083E190E00C94EE339B01883070F49AE029
:1030E000899FB001112467567D4F4AE050E0C90125
:1030F0000E94BE3390E080E008958FEF9FEF089527
:103100002F923F924F925F926F927F928F929F92F7
:10311000AF92BF92CF92DF92EF92FF920F931F93E5
:10312000CF93DF93CDB7DEB764970FB6F894DEBFC9
:103130000FBECDBF7C01DC0113964D915C911497BD
:1031400011966C9111978C910E949408811156C12F
:1031500021E0F701408151816281738184810E9465
:1031600069138C01D70112968C918111F6C0F70179
:103170004281411132C10031FFE51F0709F4CBC183
:1031800001312FE5120709F4CCC1C80197558F3FD3
:10319000910509F0E8F520910601022E000C330B91
:1031A0002817390714F48093060126E1289F50015F
:1031B000299FB00C1124F501E553FE4F6F01408BA0
:1031C000D70112969C918681992309F4ACC112878C
:1031D00001878F5F86830E94CC07F60196878587DB
:1031E000178280911E0390911D03892B8087019087
:1031F000F081E02D309741F0D60154966D917C918D
:10320000C5018F529E4F09951093CA010093C901C1
:10321000D70112968C91882369F0C801815E9C4584
:10322000059740F46FE1600F609372038CE090E0CB
:103230000E94DC3317FFB7C1F7018281882309F4AC
:1032400062C0E0917E03F0917F0380E0309721F02F
:103250000190F081E02D09958695817080937C0224
:1032600090917203913029F4882319F089E30E9428
:103270001F0E80911D0380937B0210921D0380918D
:103280007203813009F460C1882309F459C1823086
:1032900009F469C1843009F46DC18FE39CE9019799
:1032A000F1F700C000005801E894B7F86CE0C62EB2
:1032B000D12CC5010C2C02C0969587950A94E2F793
:1032C0008F7096EF980F963008F459C1805D0E9478
:1032D000A70E94E0C91AD108ACEFCA16AFEFDA0610
:1032E00041F780917203813009F44FC1882309F4BA
:1032F00048C1823009F445C1843009F452C180913B
:103300007B0280931D0340900701442009F458C1BB
:103310001092900210928F02512C45E0342E882496
:103320008394912C22242394A0908F02B090900239
:10333000F8E0AF16B10408F4B0C180918E02882382
:1033400009F463C20E94CC0790938D0280938C0293
:1033500010928E02511052C033C1809106018F3FEE
:1033600009F405CFEBECCE2EE1E0DE2EB12CA12C42
:103370009924939480910601082E000C990B8A15CC
:103380009B050CF4F4CED60116968C9116978823E3
:10339000E9F019968D919C910817190739F48091DD
:1033A000C9019091CA010817190781F0F6019786A3
:1033B000148703878189811103C0C6010E942209F5
:1033C000C60106960E94430910921E03FFEFAF1A32
:1033D000BF0A26E1C20ED11CCDCFC80182519F4544
:1033E000409708F065C68FEF93E00E94CE337EEEE3
:1033F000F72EF00E09EE12E0882329F164960FB63D
:10340000F894DEBF0FBECDBFDF91CF911F910F911A
:10341000FF90EF90DF90CF90BF90AF909F908F90F4
:103420007F906F905F904F903F902F90089501157F
:1034300044E0140719F3C8010E94CE33811101C082
:10344000FA940F5F1F4FF110F2CF19821A821B827C
:103450001C82BB24BA9478015FEFE51AF50AC80113
:103460000E94CE3389831A82882341F2813009F089
:1034700048C0680182E0C80ED11CC7010E94CE334B
:10348000E82E8A83882309F4B9CFC6010E94CE337F
:10349000F82E8FEF8E0D833068F4680193E0C90E2B
:1034A000D11CFB82FF2021F0CE0101960E94AE10BC
:1034B0008601D1CFA4E0EA12FBCF6801B4E0CB0EC5
:1034C000D11CC80103960E94CE33FF2009F496CF89
:1034D000882309F493CF8150990BB89E9001B99E2F
:1034E000300D1124EF2DE150FF0BCF01820F931F00
:1034F0000197F0F2AFE9BFE01197F1F700C00000CB
:10350000F7CFCE0101960E94AE106701D1CF81E0C6
:103510000E94550A03C081E00E94320A0E94160AE6
:103520006DCF82E0F9CF882309F472CE8189882398
:1035300009F46ECEC5018F529E4F0E94430968CE9A
:1035400082EE0E943C0CA9CE88E193E00E943F0DE0
:103550008091B8029091B9020E940D0F88E193E02A
:103560000E942A0D9ACE82EE0E943C0C87E50E94B2
:103570001F0E93CE86EE0E941F0E88E1F8CF895A67
:10358000A6CE82EE0E94030BBACE8CE20E941F0EE2
:1035900080917C02882309F4B2CE89E30E941F0E39
:1035A000AECE88E2FBCF073FBCE51B0709F060C049
:1035B000F7018281882309F4A6CE81E08093070178
:1035C0008091B50280FF35C00E94CC076C01F701E5
:1035D0008281882311F18091080182FF06C040E0BA
:1035E000B60190E080E00E94170F82E00E94F2078F
:1035F0000B31FCE51F0709F42DC10C312CE5120736
:1036000009F47AC190910801892F8E7F90FF816023
:103610000A314CE5140709F472C10832110508F0AB
:1036200074C10E31110508F0B6C10430110508F05F
:103630007FC1033FFCE51F0709F4E2C108F0CAC1DE
:10364000083D4CE5140709F4D5C1093D5CE51507B3
:1036500009F4E8C1073D8CE5180709F000C106E24E
:1036600021EE41EE67ED7CE5C7010E94400EC6CE1B
:10367000083FFCE51F0709F027C5D70112968C917A
:10368000882309F440CE1092070110928D02109207
:103690008C0281E00E94540D93CF3A9CF0013B9C38
:1036A000F00D1124E85BFC4FBE01655F7F4F808108
:1036B0000E946C18892B61F0712C572880918F0221
:1036C0009091900201969093900280938F022CCE5D
:1036D000FE013B9690E080E066246A94282F419199
:1036E00051914115510589F10417150709F4682E08
:1036F00001968430910591F724E0FFEF6F16E1F217
:10370000D70112967C903A9CC0013B9C900D1124ED
:10371000FC01E85BFC4F6F018481A40102C0440FEF
:10372000551F2A95E2F79A01215031097720A1F11E
:10373000A40101C0440F6A94EAF7842B84838F7735
:103740008217130631F0742CB8CF823008F4B4CF4E
:10375000D4CF80E00E94540DD60114968C9114971A
:10376000806814968C93149712968D919C91009773
:1037700029F00E943F0D20928E029FCFBE016F5F05
:103780007F4F80918F020E946C18892BA1F7898549
:103790009A850E944724EFCF8F778217130631F462
:1037A00082819381009719F10E942A0D3A9CF001C1
:1037B0003B9CF00D1124E85BFC4F4481242F30E04A
:1037C000062C02C0359527950A94E2F720FF74CFA6
:1037D000C40101C0880F6A94EAF78095842384832A
:1037E00087FF6ACF803809F0AECF1482ACCFBE011C
:1037F0006F5F7F4F80918F020E946C18892BB1F60A
:1038000089859A850E941824D1CF511006C081E085
:103810000E94540D0E948809D3CED70112968C9134
:10382000882309F4EBCD0E94CC0790938D028093FE
:103830008C02E0918B02E73008F0E0CD81E08E0F42
:1038400080938B02F0E0EE0FFF1FE358FD4F1183D2
:103850000083D4CD80910801816080930801F70135
:103860003281332309F43FC4109295020230FCE503
:103870001F0708F46CC406312CE5120730F0C801AC
:103880008A5F9C45099708F062C40E94F9109093E2
:1038900071038093700300314CE5140709F470C183
:1038A00008F003C108308CE5180709F45FC108F07F
:1038B000D2C00430ACE51A0709F450C108F0B8C012
:1038C0000230ECE51E0709F443C180917003826069
:1038D00003301C4509F43FC16091700310917103DE
:1038E00084E090E00E94DC33612F82E290E00E944D
:1038F000DC330E946E1482CD809108018E7F80930C
:10390000080182E00E94F207AACF0933110560F492
:103910000D32110520F40B32110509F08ACE809189
:10392000B50282FD86CE08C004361105C1F381CEF2
:103930008091B50284FD7DCED70112968C918823AB
:1039400009F442C08091080180FF73CE9091B502C6
:1039500091FD04C020911D0321116BCE95FF26C05F
:1039600096FD02C081FD22C0209193023091940205
:10397000F601E21BF30BE83CF105C0F42091910243
:10398000309192020217130789F481FD09C0802F3C
:103990000E943C0C33CD8091B50283FD4ACECCCF42
:1039A00080911E03826080931E03F1CF10939202D8
:1039B00000939102D0929402C092930280910801E8
:1039C0008460809308011ACD40E0B601C8010E94CE
:1039D000170F14CD053F9CE51907F1F0B8F0063F2D
:1039E000BCE51B0709F03BCF07E225EE46EE66EF8C
:1039F0007CE53ACE07E225EE45EE68ED7CE534CE77
:103A000006E221EE40EE63EF7CE52ECE07E225EEE6
:103A100044EE64EF7CE528CE06E221EE42EE65EF4F
:103A20007CE522CE08E221E045EE69ED7CE51CCE86
:103A300080917003806106302CE5120709F48BC079
:103A400080917003886007301C4508F484C0809121
:103A50007003806280C0809170038D7F0C305CE5C4
:103A6000150709F478C070F4809170038C600A30F7
:103A70009CE5190709F46FC008F47CC080917003BD
:103A80008E7F69C080917003877F0E30BCE51B0775
:103A900009F461C0809170038B7F0F301C4508F4DE
:103AA0005AC0809170038F7E56C00B3FFCE51F0704
:103AB00009F458C030F503314CE5140709F468C027
:103AC00078F401318CE5180709F45EC002311C4519
:103AD00009F002CF0E946E14809170038F773BC073
:103AE0000531ACE51A0709F45BC008F46FC080919A
:103AF000710381600A3F1C4509F0EECE809371038B
:103B0000EBCE0F3FFCE51F0709F446C088F4809117
:103B100071038D7F0D3F4CE5140781F38091710394
:103B20008E7F0E3F1C4550F3809171038360E6CF7A
:103B300001308DE5180709F452C0F0F160E0023061
:103B40001D4509F0C9CE8EE090E00E94DC33C4CE62
:103B500080917003816080937003BECE809170036A
:103B60008460F9CF809171038260C8CF8091700327
:103B70008064F1CF0E946E14809170038068EBCF57
:103B8000809170038F7DE7CF809170038F7BE3CFAF
:103B900080917003837FDFCF809171038C7FAECFE4
:103BA0008091700382FB992790F921E0922790FB86
:103BB00082F990FB83F9CFCF80917103982F909574
:103BC00091708E7F892B90FB81F998CF0E946E14A3
:103BD00090917003892F97FB87F98058BCCF61E0E3
:103BE000B2CF8091960281110FC089E2E6EAF1E03E
:103BF0002CEA31E09191891303C0DF0111971C92E7
:103C00002E173F07B9F7A0C285E3F0CF0E946E14CC
:103C1000FFEF24E34CE0F15020404040E1F700C0CA
:103C200000000E94FB0D0E940118E8CB0E941708BB
:103C3000D82EA8C2F92FFF708F2E892F807F19F000
:103C4000829490EF8922BB20C9F0882069F080E23D
:103C5000810F883010F091100BC080911D03882ACD
:103C600080921D030E940008812F0E943C0C16C008
:103C700080911E03882A80921E03F4CF812F0E9418
:103C8000030B882059F080E2810F883010F09110EA
:103C900022C0882D0E94F9070E940008F8E0CF1A80
:103CA000D10824E0C216D10410F40E941609812F15
:103CB000902F0E94A9088111D5C1109298021092EC
:103CC000970220E0F70140815181628173818481F4
:103CD0000E94691393CB882D0E94F207DDCF292F14
:103CE0002F70822E892F807F803219F0829480EF8E
:103CF000882241E0941210C0BB2039F055E05A15DB
:103D000068F2882D0E94E008C9CF84E08A1530F25D
:103D1000882D0E94D908C2CFBB20E9F0AA2089F3E0
:103D200020E0D7014C9111965C91119712966C91FD
:103D3000129713967C91139714968C910E94691395
:103D40008091B70281FD90CFF701858180FF8CCFF4
:103D50008F708583D6CFAA20D9F2F9E39F127AC15A
:103D60008091BA029091BB020E940D0F812F0E9498
:103D7000030B94CF892F86958695837061F08130EF
:103D800009F08CCF812F9370B11002C090E080E0D9
:103D90000E94EA0883CF812F9370B11002C090E097
:103DA00080E00E9400097ACF812FBB2039F00E9469
:103DB000D40B0E94C8090E94C80970CF0E94800AD3
:103DC000FACF892F837009F067C0B11067CF212F18
:103DD000229526952770220F220F412F4F7050E019
:103DE00070E060E0022E04C0440F551F661F771F6D
:103DF0000A94D2F780E090E0DC0114FF0FC08FE05E
:103E000090E0A0E0B0E004C0880F991FAA1FBB1F7C
:103E10002A95D2F780959095A095B095202F26955C
:103E200026952370223029F1D8F440901F0350903A
:103E300020036090210370902203213069F0842BCD
:103E4000952BA62BB72BBC01CD01642175218621B2
:103E500097210E94760A22CF44295529662977297D
:103E60003A014B01682A792A8A2A9B2AC401B301A4
:103E7000F0CF842B952BA62BB72B40901F0350908F
:103E800020036090210370902203BC01CD016425C2
:103E9000752586259725DDCF8695BB2011F0892FC6
:103EA0008170882309F4FACE212F22952695277058
:103EB000220F220F412F4F7050E070E060E0022E81
:103EC00004C0440F551F661F771F0A94D2F780E085
:103ED00090E0DC0114FF0FC08FE090E0A0E0B0E0C4
:103EE00004C0880F991FAA1FBB1F2A95D2F780957F
:103EF0009095A095B095202F269526952370223079
:103F000029F1D8F44090B5045090B6046090B704FD
:103F10007090B804213069F0842B952BA62BB72B19
:103F2000BC01CD0164217521862197210E940C0AD4
:103F3000B5CE44295529662977293A014B01682ACB
:103F4000792A8A2A9B2AC401B301F0CF842B952BAE
:103F5000A62BB72B4090B5045090B6046090B704E0
:103F60007090B804BC01CD01642575258625972580
:103F7000DDCF292F2F70922EBB2029F0822F0E9497
:103F8000550A812FBFCE812F0E94D908892D0E940A
:103F9000320A84CE812F41EF141709F449C041172A
:103FA00058F050EF151719F1BB2009F44EC0A110BD
:103FB0005BCE802F8F7141C092EF191709F440C07A
:103FC000A3EF1A13F1CF60E070E0CB01BB2009F43E
:103FD000ADCF202F2F7161E070E080E090E004C051
:103FE000660F771F881F991F2A95D2F79FCFBB2096
:103FF000D1F0B4E0BA1508F451CE202F2F7161E052
:1040000070E080E090E004C0660F771F881F991F62
:104010002A95D2F74090B5045090B6046090B7044A
:104020007090B804A1CFE5E0EA1508F437CEE5CFEB
:10403000892F8F71BB2009F4AACF0E94550A2ECE7A
:10404000802F8F71BB20C9F3A2CFAA2041F0893302
:1040500009F486CE8091B8029091B90285CE802F66
:104060008F7195CFBB2019F0A11027CE2ACEA110B9
:1040700024CE20E0D7014C9111965C9111971296B5
:104080006C91129713967C91139714968C910E94C1
:1040900069138091B70283FF10CE809197029091AF
:1040A0009802029709F009CE812F0E941F0E05CEBB
:1040B00000315FE5150709F42ACA01318FE51807B9
:1040C00009F063C882E024CA093F9CE5190709F09A
:1040D0001AC9F7018281882309F415C98091070163
:1040E0008111D1CA6ACA06311C4509F03DC08091D0
:1040F0001D03982F9A7A2091B40220FF04C0482F04
:10410000447409F090E021FF04C0482F417109F088
:1041100090E022FF04C0482F487809F090E023FF88
:1041200003C0827209F090E0332309F45ACD81E094
:10413000911101C080E08093960269E2911165E3DC
:1041400084EA91E00E94D8070E94000857C906310E
:10415000BCE51B0761F20115BCE51B0709F456CD50
:104160000E3D1C4509F45FCDD7010D911C91C8018E
:10417000332309F45BCD0E941913D82E682FC80190
:104180000E944408B8018D2D0E94A811182F092FF4
:10419000982EF701B280A580A2942FE0A222892F49
:1041A00082958F70C82ED12C8C3008F077CDF60117
:1041B000EE5CFB4C0C949833BF92CF92DF92EF925F
:1041C000FF920F931F93CF93DF938091C102807F63
:1041D00061F48091BE02882341F0C091F30286E031
:1041E000B82E8091C2028C130AC0DF91CF911F912B
:1041F0000F91FF90EF90DF90CF90BF900895F090D7
:10420000BC02E090BD02C090BF02D090C002A601E7
:104210006E2D8F2D0E949408D0E0811141C0BC9E6C
:104220008001BD9E100D1124F801ED53FD4F518109
:104230005E1136C040814F1133C08281811130C080
:10424000E380F480EC18FD0820E06091BE027091DC
:10425000BF028091C0020E9469138091B2029091C6
:10426000B302E816F906E0F48091C1028F70806114
:104270008093C102F801E853FD4F80818F70806107
:1042800080838CEB92E00E948018DF91CF911F9188
:104290000F91FF90EF90DF90CF90BF900C949F080C
:1042A0002196C7709ECF5F926F927F928F929F925E
:1042B000AF92BF92CF92DF92EF92FF920F931F9334
:1042C000CF93DF93CDB7DEB761970FB6F894DEBF1B
:1042D0000FBECDBF8C0185E0F801DE011D96019077
:1042E0000D928A95E1F7D8017C901196EC90119788
:1042F00012966C908CEBA82E82E0B82E8090BF02B4
:104300009090C002A4016091BD028091BC020E9405
:1043100094088111C7C1F801C380D480F090BE0217
:10432000C601881999094C0120E04091BC025091C6
:10433000BD02FF2009F45DC16F2D7091BF02809115
:10434000C0020E9469138091B2029091B302509012
:10435000C1028816990608F00DC14091BF02509124
:10436000C002B090BC02A090BD02852D807F6A2D56
:1043700009F0B9C08B2D0E949408F62C81112BC036
:10438000EA1029C07B1027C0611025C0852D8F70D1
:1043900080618093C1028CEB92E00E948018809132
:1043A000C102D80115968C938F2D61960FB6F894A3
:1043B000DEBF0FBECDBFDF91CF911F910F91FF9058
:1043C000EF90DF90CF90BF90AF909F908F907F90B5
:1043D0006F905F90089520E04091BC025091BD0223
:1043E0006091BE027091BF028091C0020E94691369
:1043F0008091B2029091B302843F9140F8F0A601FF
:104400006E2D872D0E949408811154C081E086256D
:1044100080FF25C0462D6E2D872D0E9474088823AD
:10442000F1F08CEB92E00E94801886E0ECEBF2E079
:10443000DF011D928A95E9F7F12CB6CF20E040917B
:10444000BC025091BD026091BE027091BF0280918A
:10445000C0020E9469138091B70280FDD0CFA601EF
:104460006E2D872D0E949408811126C081E086253B
:10447000B82FB170CB2E80FF2DC0462D6E2D872D0D
:104480000E947408D82E811125C07D86EE868D8508
:104490009E850E945B13292F22952F70223070F089
:1044A000243098F49F7071F0F8019581907F51F459
:1044B000FD2C7ACF80E0ACCF80E0DACF9F7011F096
:1044C0008823B1F3805E883098F3C8010E94801879
:1044D000DC2CEECF662009F467CF8091C1028160A9
:1044E0008093C102A9CF8B2D0E949408811115C021
:1044F000EA1013C07B1011C061100FC0D8011596CF
:104500005C92C8010E94801886E0F801ACEBB2E032
:1045100001900D928A95E1F747CF7D86EE868D85D5
:104520009E850E946513882309F16620F9F0809129
:10453000C102803270F02091BC023091BD023887F8
:104540002F831986DB86CA868C87CE0107960E9448
:10455000801886E0F801ACEBB2E001900D928A95EC
:10456000E1F70E94DC20FF24F3941ECFC8010E94D3
:104570008018F9CF852D807F09F453CF9090BC022D
:104580008090BD024091BF025091C002682D892DDC
:104590000E949408811111C0E8100FC079100DC05D
:1045A00061100BC0F8015582C8010E94801886E096
:1045B000D5011D928A95E9F7F7CE7D86EE868D8529
:1045C0009E850E946513882389F2662079F2809186
:1045D000C102803208F4BDCF2091BC023091BD02EF
:1045E0003A8329831B82DD82CC828E83CE010196A1
:1045F000AECF60E07091BF028091C0020E9469134B
:104600008091B2029091B3028816990680F6F62C3A
:10461000662009F4ABCFD090BC02C090BD0240919F
:10462000BF025091C0026C2D8D2D0E949408811103
:1046300028C0EC1026C07D1024C020E0472D5E2D40
:104640006091BE027091BF028091C0020E94691306
:104650008091B70282FD58CF9091C10290FD54CF56
:10466000907F09F451CF8091C102F8018583903F7A
:1046700009F447CF982F907F905F8F70892B8583A7
:1046800040CF7D86EE868D859E850E9465138111C3
:1046900060CF8091C10281608093C102C8010E94F5
:1046A000801882CE662009F461CF7D86EE868D85E6
:1046B0009E850E946513F82E882309F457CF86E063
:1046C000F801ACEBB2E001900D928A95E1F7809190
:1046D000BC029091BD020E945B130E94DC2064CE5C
:1046E000CF92DF92FF920F931F93CF93DF93CDB7BB
:1046F000DEB767970FB6F894DEBF0FBECDBFF42EBE
:104700004B8B052F5C8B162F6D8B7E8B8F8BCE8802
:10471000DF88A601602F8F2D0E949408811109C0A7
:1047200080919702909198020196909398028093BD
:104730009702111110921E031A8A198AFD860E879C
:104740001F87D98AC88A86E0FE013D96DE0117964A
:1047500001900D928A95E1F7CE0107960E945321B0
:10476000811111C086E0FE013796DE01119601909D
:104770000D928A95E1F74A855B8568858F810E9455
:1047800094088823A9F016E08091F3029091C20268
:1047900089133BC067960FB6F894DEBF0FBECDBF3E
:1047A000DF91CF911F910F91FF90DF90CF900895EF
:1047B0002091C20230E0C90101968770992740918B
:1047C000F3024817190699F096E0929FD001939F43
:1047D000B00D1124AD53BD4FFE01319601900D92E5
:1047E0009A95E1F78093C2020E949F08CCCF0E9465
:1047F0006E141092C2021092F30286E0ECEBF2E02B
:10480000DF011D928A95E9F7BECF819FC001112477
:104810008D539D4F0E945321882309F4BBCF809173
:10482000F30290E00196877099278093F302ACCF52
:10483000CF93DF9300D000D00F92CDB7DEB7909327
:10484000C2018093C101811520E2920748F40F90C4
:104850000F900F900F900F90DF91CF910C942A0D35
:104860008EEF89838A831B820E94CC078160782F18
:104870009D838C8349815A816B818D810F900F902C
:104880000F900F900F90DF91CF910C947023CF93E6
:10489000DF9300D000D00F92CDB7DEB79093C20166
:1048A0008093C101811520E2920748F40F900F9088
:1048B0000F900F900F90DF91CF910C943F0D8EEFE2
:1048C00089838A8381E08B830E94CC078160782F63
:1048D0009D838C8349815A816B818D810F900F90CC
:1048E0000F900F900F90DF91CF910C947023AF92A7
:1048F000BF92CF92DF92EF92FF920F931F93CF93CD
:10490000DF93B82EA62EC090B504D090B604E090E8
:10491000B704F090B80480911F0390912003A091F8
:104920002103B0912203C82AD92AEA2AFB2ACFE11F
:10493000D0E0D701C6010C2E04C0B695A795979577
:1049400087950A94D2F780FF20C04A2D6B2D8C2FBB
:104950000E942D118C0181309105B9F00E944724ED
:104960008FE39CE90197F1F700C00000C8010E94A5
:10497000182481E0DF91CF911F910F91FF90EF906C
:10498000DF90CF90BF90AF900895219790F64A2D79
:104990006B2D80E00E942D11EC010E9447248FE3D3
:1049A0009CE90197F1F700C00000CE01E0CFCF9362
:1049B000DF93EC010E9447248091B8029091B902E4
:1049C0000E940D0FCE01DF91CF910C9418249B0112
:1049D000883070F49AE0899FB0011124675B7D4FA5
:1049E0004AE050E0C9010E94BE3390E080E00895A3
:1049F0008FEF9FEF08958F929F92AF92BF92CF92C9
:104A0000DF92EF92FF920F931F93CF93DF93CDB777
:104A1000DEB72A970FB6F894DEBF0FBECDBF0BEC02
:104A200011E0F12CE12C81E5C82E85E2D82E9BE720
:104A3000A92E95E2B92E27EF822E25E2922EF801BB
:104A4000D182C082B382A28295828482F58AE48A6E
:104A5000BE016F5F7F4F8E2D0E94E724892B29F4C2
:104A600089859A85F801938B828BFFEFEF1AFF0AF5
:104A70000A5E1F4F88E0E816F10409F72A960FB680
:104A8000F894DEBF0FBECDBFDF91CF911F910F9184
:104A9000FF90EF90DF90CF90BF90AF909F908F905E
:104AA00008950F931F93CF93DF938C01862F67EBAD
:104AB00071E00E94E724892BC9F4C091B701D0911D
:104AC000B801209799F0F8018081833069F4CE0114
:104AD0000E94D724CE010E94D724CE01DF91CF912E
:104AE0001F910F910C94D7248430B8F7DF91CF91A8
:104AF0001F910F9108950F931F93CF93DF938C0114
:104B0000EB0167EB71E08C2F0E94E724892B09F001
:104B100064C0FE01FF27D8018C91E155FE4F813022
:104B2000D9F419969C911997992311F080830CC0A0
:104B30001A969C919923D1F382E080838091B901E8
:104B40009091BA010097D9F48091B7019091B80182
:104B5000009709F442C013C08230E9F519968C9190
:104B6000199781112DC01A968C9181110EC083E086
:104B700080838091BB019091BC01009719F1DF9176
:104B8000CF911F910F910C94472484E080838091F2
:104B9000BD019091BE01009791F78091B70190916E
:104BA000B8010097F9F00E94D7248091B901909143
:104BB000BA01009721F78091B7019091B801DFCF3A
:104BC00085E080838091B7019091B801009729F02A
:104BD0000E94D724F0CF86E08083DF91CF911F9190
:104BE0000F9108958091B9019091BA01B1CF0F93BF
:104BF0001F93CF93DF938C01EB0167EB71E08C2F58
:104C00000E94E724892BA1F48091B8029091B90207
:104C10000E940D0FDD27C155DE4F8881F8011082FB
:104C20001882833009F148F4813059F0823081F0E4
:104C3000DF91CF911F910F9108958430D1F085308D
:104C4000B9F78091B7019091B801009789F306C038
:104C50008091B9019091BA01009799F3DF91CF91BA
:104C60001F910F910C9418248091BB019091BC016D
:104C7000F3CF8091BD019091BE01009779F720910B
:104C8000B7013091B8018091B9019091BA01211515
:104C90003105D9F2009711F7C901E0CF7F928F92C9
:104CA0009F92AF92BF92CF92DF92EF92FF920F93BB
:104CB0001F93CF93DF93CDB7DEB7AF970FB6F894BE
:104CC000DEBF0FBECDBF962FBA012132310508F0ED
:104CD000AAC040EF49831A821B821C82790142E0FC
:104CE000E40EF11C0CE210E00E191F09A1E0B0E087
:104CF000AC0FBD1F0A0F1B1FF80180839183A90110
:104D0000C80102960E94AE33C70167E070E00E94BE
:104D100070339B01B801FE01319650E040E024174A
:104D2000350709F094C0C70167E070E00E94703356
:104D3000A90163E0440F551F6A95E1F70097B1F1AF
:104D4000E5E0F0E0EC0FFD1FE40FF51F1082A7E097
:104D5000A29FB001A39F700D1124060F171FDA0147
:104D60001596CC24C394D12CCC0EDD1ECA0EDB1EAE
:104D700070E060E0D801FD908D016F5F7F4F2F2DB7
:104D8000207830E0062E02C0359527950A94E2F788
:104D90003081232B20832F2D2F77D6012D936D016A
:104DA0008617970739F70196480F591F5A01B5E042
:104DB000AB0EB11CE5E0F0E0EC0FFD1F4E0F5F1FE6
:104DC00087EFDA018C93F12CE12C1DA61EA61FA6FD
:104DD0006501CE18DF08B4E0CB16D10418F083E0EB
:104DE000C82ED12C61E070E06C0F7D1F6E0D7F1D11
:104DF000A601CE018D960E94AE33E091C803F091DA
:104E0000C9030FA52EA54DA5B60188EC93E0099521
:104E1000E3E0EE0EF11CEA14FB04B8F20FB6F894CE
:104E2000DEBF0FBECDBFAF960FB6F894DEBF0FBE8C
:104E3000CDBFDF91CF911F910F91FF90EF90DF9049
:104E4000CF90BF90AF909F908F907F9008951482E5
:104E50005F0185E0A80EB11C6B0190E080E0D601F7
:104E60007D906D010196A72DA078B0E0082E02C0BC
:104E7000B595A7950A94E2F7B481AB2BA483E89487
:104E800077F8D5017D925D018730910541F74F5F3D
:104E90005F4F695F7F4F389642CF2F923F924F927C
:104EA0005F926F927F928F929F92AF92BF92CF92BA
:104EB000DF92EF92FF920F931F93CF93DF93CDB7C3
:104EC000DEB7A4970FB6F894DEBF0FBECDBFF901D1
:104ED0006450710990E080E0841708F05AC077FDB3
:104EE0003AC1DF01A80FB91F3C91373F09F02BC130
:104EF000462F4770542E5B0153E0B694A7945A9501
:104F0000E1F727E02A9DC0012B9D900D11249C0103
:104F1000442321F0240F311D2150310962307105E5
:104F200014F1DE01119643E2242E43E0342E10E00A
:104F300000E03D010A151B0509F04BC0552099F012
:104F4000687FAB014D5D5C4F7A01DA01860D971DDC
:104F500070E060E0E52DE150FF0B8F0111966017C6
:104F6000710708F45CC08981823360F5803388F46E
:104F7000813179F048F4803109F467C0AE014F5FA8
:104F80005F4F60E080E888C0803209F459C0813208
:104F9000A9F7A4960FB6F894DEBF0FBECDBFDF9180
:104FA000CF911F910F91FF90EF90DF90CF90BF9026
:104FB000AF909F908F907F906F905F904F903F90B9
:104FC0002F9008958034D0F2823418F38038B1F6EF
:104FD000E0CFF1018080912C6D0141E050E0710142
:104FE000E40EF51EF7014080E89447F87401042EA2
:104FF00001C0EE0C0A94EAF7FE2DF078EF2EE428BB
:10500000F601E1926F014F5F5F4F4830510539F76C
:105010000F5F1F4F1796F8E02F0E311C8BCF6F5F7D
:105020007F4FF7014081062E01C0440F0A94EAF732
:1050300040785C915F77452BFC014193CF018ECF87
:105040008A81823061F08430B1F0EA81E150ED3044
:1050500008F09FCFF0E0E25CFB4C0C9498336B813E
:1050600083E090E00E94DC336B8170E090E080E0B0
:105070000E94760AEACF6B8184E090E00E94DC33E4
:1050800060E082E290E00E94DC33DFCF30E020E09D
:1050900050E040E061E081E10E944E267ACF82E05C
:1050A00090E00E94CE3389A321E030E0AE014F5D55
:1050B0005F4F68E0F0CF83E090E00E94CE3389A399
:1050C00021E030E0AE014F5D5F4F62E0E4CF6091E0
:1050D000B5047091B6048091B7049091B8040E9411
:1050E0009E3369A37AA38BA39CA324E030E0AE0196
:1050F0004F5D5F4F63E0CFCF30E020E050E040E015
:1051000069E0C9CF30E020E050E040E065E0C3CF87
:1051100030E020E050E040E066E0BDCF0E94F910B2
:1051200089A321E030E0AE014F5D5F4F64E0B3CF73
:1051300084E089A38FE08AA322E030E0AE014F5DD6
:105140005F4F6DE0A8CF653271050CF022CFDB0117
:10515000AD5DBC4F3C936F5F7F4F0196BDCE1F92FC
:105160000F920FB60F9211242F933F934F935F939B
:105170006F937F938F939F93AF93BF93CF93DF935F
:10518000EF93FF93D091E900DF708091EC00C82F7E
:10519000C17080FDC0E81092E9008091F000877F27
:1051A0008093F00078940E9479141092E900809125
:1051B000F00088608093F000CD2BCF70C093E900A1
:1051C000FF91EF91DF91CF91BF91AF919F918F911F
:1051D0007F916F915F914F913F912F910F900FBEF3
:1051E0000F901F9018951F920F920FB60F921124D7
:1051F0002F933F934F935F936F937F938F939F93DF
:10520000AF93BF93EF93FF938091E10082FF09C0BA
:105210008091E20082FF05C08091E1008B7F809346
:10522000E1008091DA0080FF24C08091D80080FFE7
:1052300020C08091DA008E7F8093DA008091D900BF
:1052400080FF9BC080E189BD82E189BD09B400FE79
:10525000FDCF81E08093C7038091B103811109C024
:105260000E94D1040E94EE058091E2008460809348
:10527000E2008091E10080FF17C08091E20080FF92
:1052800013C08091E2008E7F8093E2008091E20063
:1052900080618093E2008091D80080628093D80082
:1052A00019BC85E08093C7038091E10084FF29C089
:1052B0008091E20084FF25C080E189BD82E189BD43
:1052C00089B5982F917080FFFBCF8091D8008F7D9A
:1052D0008093D8008091E1008F7E8093E1008091DF
:1052E000E2008F7E8093E2008091E20081608093F3
:1052F000E2008091BE03882309F445C084E08093D6
:10530000C7038091E10083FF27C08091E20083FF03
:1053100023C08091E100877F8093E10082E0809349
:10532000C7031092BE038091E1008E7F8093E1005D
:105330008091E2008E7F8093E2008091E2008061A4
:105340008093E20042E060E080E00E94BC05809132
:10535000F00088608093F000FF91EF91BF91AF91D2
:105360009F918F917F916F915F914F913F912F917D
:105370000F900FBE0F901F90189519BC1092C70385
:105380001092B10376CF8091E30087FD93E0909374
:10539000C703B7CFCDB7DEB7E4970FB6F894DEBF3B
:1053A0000FBECDBF1092ED031092EF031092EE03EB
:1053B00080EC8093B20480EF93E09093B4048093E8
:1053C000B3041092B1041092B0041092CD03109265
:1053D000CC031092CF031092CE031092D1031092FF
:1053E000D0031092D3031092D2031092D5031092DF
:1053F000D4031092D7031092D6031092D9031092BF
:10540000D8031092DB031092DA031092DD0310929E
:10541000DC031092DF031092DE031092E10310927E
:10542000E0031092E7031092E60387ED96E0909375
:10543000C9038093C80382E397E09093E9038093C4
:10544000E8038FEA96E09093E5038093E40380EB12
:1054500096E09093CB038093CA038DE497E29093F8
:10546000E3038093E20384B7877F84BF0FB6F89489
:10547000A895809160008861809360001092600020
:105480000FBE80E890E00FB6F8948093610090938F
:1054900061000FBE85B7806885BF85B7806885BF0E
:1054A0008DEA96E09093A3018093A2010E94FB24D1
:1054B000109249031092480381E090E090934E03CC
:1054C00080934D0382E090E09093530380935203C6
:1054D00083E090E0909358038093570384E090E03A
:1054E00090935D0380935C0385E090E0909362036A
:1054F0008093610386E090E0909367038093660356
:1055000087E090E090936C0380936B030E940711F7
:105510000E94D1040E94EE058091E2008460809395
:10552000E20078948091C7038823A1F01091E900EC
:105530001F709091EC00892F817090FD80E8182BEE
:105540001092E9008091E80083FD0E9479141F7099
:105550001093E90082E084BD93E095BD9AEF97BD7A
:1055600080936E0087EF0E94990C86E60E94990C4A
:1055700087E90E94990C86E90E94990C00E711E0E6
:10558000FFE7EF2EF1E0FF2ED8018D918D010E94F3
:10559000990CE016F106C1F710927703109276038A
:1055A0001092A2031092A103109279031092780333
:1055B0001092A4031092A30310927B0310927A031B
:1055C0001092A6031092A50310927D0310927C0303
:1055D0001092A8031092A70390E080E00E94D633B7
:1055E0008A3E9E4F11F00E94011882E090E00E94D6
:1055F000CE33809394030E94F910909371038093AB
:1056000070030E94770FEFEFF6E721E0E150F040E2
:105610002040E1F700C000000E94770F8091A103B5
:1056200080FF17C06FEF83E290E00E94DC336FEFE2
:1056300084E290E00E94DC336FEF85E290E00E940C
:10564000DC336FEF7FEF90E080E00E94FA330E943E
:10565000FB0D83E090E00E94CE33682F70E090E075
:1056600080E00E94760A8CE090E00E94CE3390E0C9
:10567000B0E0A0E08093720390937303A09374034F
:10568000B093750383E290E00E94CE33833611F02D
:105690000C94033384E290E00E94CE33813709F00A
:1056A000B2C785E290E00E94CE33833709F0ABC7E2
:1056B00063E971E045E853E0EFE88E2EE1E09E2ECD
:1056C000E1E9F1E021E030E01191812F82958F70C6
:1056D00090E0DC019196FC9091971F70E12E69019A
:1056E00001C0CC0C1A95EAF70C2D00950F2191966C
:1056F0000C93919792961C9192971C2992961C93C9
:10570000D401FD904D010F2D02950F7010E0D801CE
:105710009196BC90BF2DBF70FB2E690101C0CC0CCF
:10572000BA95EAF7DC2CD094DB20D8019196DC9274
:1057300091979296DC909297DC289296DC92DC010D
:1057400090968C9190E002C095958795EA94E2F747
:105750008170D80190960C9110E002C015950795C4
:10576000FA94E2F790E000FD92E0892BDA018D9344
:10577000AD016E177F0709F0A7CF89E191E0909303
:105780007F0380937E0359EA252E53E0352E8091C6
:10579000C70300E112E1853009F4F4C10E94770FDC
:1057A000882359F08FB7F8944091A9035091AA0328
:1057B0006091AB037091AC038FBFA1EAB3E0E5E960
:1057C000F3E010E000E0702F8D919D9121913191D7
:1057D0002817390709F4E6C12827392760E0EE24A5
:1057E000E394F12CA9014E215F21452B09F4D4C18A
:1057F0006BA77CA79C012E213F2191E0232B09F46C
:1058000090E09DA70E94CC078160782F9FA78EA76C
:105810004BA55CA56DA58FA50E947023000F111FDD
:10582000F801EB56FC4F80819181E826F926F18240
:10583000E082B3E8EB2EB3E0FB2E01E813E08FE843
:10584000A82E81E0B82E91E9892E91E0992E25E8C5
:10585000C22E23E0D22E412C512C34E0632E712C29
:10586000D601ED916D01EE0FEE0FD4018D914D013A
:10587000A82FA295AF70B0E090962C9130E08F7079
:1058800002C0359527958A95E2F721703327D50117
:105890004D915D01A42FA295AF70B0E090968C91D0
:1058A00090E04F7002C0959587954A95E2F7AC015C
:1058B0004170552780FF02C042E050E0242BE22BCC
:1058C000D6011197EC93EF70F0E0E158FE4F808124
:1058D000F7019081890F808320E084304CF0D8015B
:1058E0008C918F5F8C9360E0852D0E94772421E05E
:1058F000F70180818D3F4CF4D8018C9181508C93BD
:1059000061E0852D0E94772421E0F7018081082E37
:10591000000C990BB3010E948433D7018D937D0154
:10592000422A0F5F1F4FB1E05B1253C1442059F070
:105930008FB7F8944091A9035091AA036091AB03EB
:105940007091AC038FBF86E0EDE8F3E08E010F5F4E
:105950001F4FD80101900D928A95E1F7C0908F03F7
:10596000D0909003E0909103F090920310928F03F7
:105970001092900310929103109292038C2D8D2916
:1059800091F080918B0390918C030E94BD07AC0134
:1059900090918A03992309F41FC180910C01841707
:1059A000150608F427C18E2D8F2991F08091880368
:1059B000909189030E94BD07AC01909187039923C0
:1059C00009F457C180910A018417150608F45FC1D4
:1059D00080918F0390919003892B90919103892B53
:1059E00090919203892B11F00E94C80986E0F8017A
:1059F000ADE8B3E001900D928A95E1F7E091E803FC
:105A0000F091E903309719F088EC93E009959FB77E
:105A1000F894E090B1048091B004E81608F476C1DF
:105A2000E81A9FBFD12CC12CF12CE3E08E2E912CD3
:105A3000AA24A394B12CA4E04A2E55245394CE1446
:105A4000DF0408F467C10E94160990919303891737
:105A500021F00E941609809393038091C70384303C
:105A6000E1F480910E018F708093E9009091E8003D
:105A700090FF13C09091C703943079F48093E900AC
:105A80009091F3008091F200892B39F08091E80029
:105A90008E778093E8000E94F0048091C7038430E1
:105AA00009F075CE83E08093E9008091E80082FFE1
:105AB0006ECE8091E80090E085FF08C050E040E0A5
:105AC00060E270E0C8010E94730591E08091E800F7
:105AD0008B778093E800992309F459CEE090AF03C7
