:100000000C94A3040C94EA040C94EA040C94EA04FF
:100010000C94EA040C94EA040C94EA040C94EA04A8
:100020000C94EA040C94EA040C947E290C943A296A
:100030000C9496340C94EA040C94EA040C94EA04AC
:100040000C94EA040C94EA040C94EA040C94EA0478
:100050000C94EA040C9472340C94EA040C94EA04B0
:100060000C94EA040C94EA040C94EA040C94EA0458
:100070000C94EA040C94EA040C94EA040C94EA0448
:100080000C94EA040C94EA040C94EA040C94EA0438
:100090000C94EA040C94EA040C94EA040C94EA0428
:1000A0000C94EA040C94EA040C94EA040501090295
:1000B000A10185020901A100050919012905150001
:1000C00025019505750181029501750381010501E1
:1000D000093009311581257F950275088106093897
:1000E0001581257F950175088106050C0A380215D2
:1000F00081257F950175088106C0C005010980A191
:1001000001850319012AB700150126B7009501756D
:10011000108100C0050C0901A101850419012AA064
:1001200002150126A002950175108100C00660FF2E
:100130000961A1010962150026FF0095207508815B
:10014000020963150026FF00952075089102C0057D
:10015000010906A101050719E029E7150025019508
:1001600008750181029501750881010507190029AB
:10017000FF150026FF009506750881000508190186
:100180002905950575019102950175039101C0003E
:10019000000000000000000000000000000000005F
:1001A000000000000000000000000000000000004F
:1001B0000000007E0F00D4FFFFFFC70000007800A2
:1001C000000000000000002A2B28000000000000B2
:1001D0000000000000000000000029000000002CCA
:1001E0001E3420212224342627252E362D37382769
:1001F0001E1F202122232425263333362E37381F75
:100200000405060708090A0B0C0D0E0F1011121336
:100210001415161718191A1B1C1D2F3130232D35D4
:100220000405060708090A0B0C0D0E0F1011121316
:100230001415161718191A1B1C1D2F3130354C00B8
:100240000101010101010101010202020202020297
:10025000020203030303030303030404040404046A
:100260000405050505050606060606070707070730
:1002700008080808090909090A0A0A0B0B0B0C0CE3
:100280000C0D0D0D0E0E0E0F0F0F1010111111127F
:100290001213131414151516161717181819191AFE
:1002A0001A1B1B1C1D1D1E1E1F2020212222232461
:1002B00024252626272829292A2B2C2D2D2E2F30A0
:1002C000313232333435363738393A3B3C3D3E3FB4
:1002D000404142434445464748494A4C4D4E4F50A1
:1002E000515354555658595A5B5D5E5F616264655F
:1002F0006668696B6C6D6F7072737577787A7B7DE9
:100300007E8082838587888A8C8E8F91939596983C
:100310009A9C9EA0A2A3A5A7A9ABADAFB1B3B5B758
:10032000BABCBEC0C2C4C6C9CBCDCFD1D4D6D8DB2F
:10033000DDDFE2E4E7E9EBEEF0F3F5F8FAFDFFFFCD
:10034000AA7F55402223252628292A2C2D2F3032FA
:10035000333536383A3B3D3E4042434547494A4CA7
:100360004E5051535557595A5C5E606264666869D5
:100370006B6D6F71737577797B7D7F8183858789DD
:100380008A8C8E90929496989A9C9E9FA1A3A5A7E2
:10039000A8AAACAEAFB1B3B4B6B8B9BBBCBEBFC10E
:1003A000C2C3C5C6C7C9CACBCCCDCED0D1D2D2D399
:1003B000D4D5D6D7D7D8D9D9DADADBDBDBDCDCDCAD
:1003C000DCDCDDDDDDDDDCDCDCDCDCDBDBDBDADA70
:1003D000D9D9D8D7D7D6D5D4D3D2D2D1D0CECDCCE7
:1003E000CBCAC9C7C6C5C3C2C1BFBEBCBBB9B8B6FC
:1003F000B4B3B1AFAEACAAA8A7A5A3A19F9E9C9A87
:1004000098969492908E8C8A89878583817F7D7B54
:1004100079777573716F6D6B6968666462605E5C35
:100420005A5957555351504E4C4A494745434240FB
:100430003E3D3B3A3836353332302F2D2C2A292891
:100440002625232229001E001F0020002100220053
:10045000230024002500260027002D002E022B005B
:1004600014001A000800150017001C0018000C00EA
:10047000120013002F0030003900000000000000BF
:1004800004001600070009000A000B000D000E0012
:100490000F003300340028000000E10000001D00C0
:1004A0001B0006000000190000000000050000000D
:1004B00011001000360037003800374400000000FB
:1004C000000000000000000000000000000000002C
:1004D000000000000000000000000000000000001C
:1004E000000000000000000000000000000000000C
:1004F00000000000000000000000000000000000FC
:1005000000000000000000000000000000000000EB
:1005100000000000000000000000000000000000DB
:1005200000000000000000000000000000000000CB
:1005300000000000000000000000000000000000BB
:1005400000000000000000000000000000000000AB
:10055000000000000000000000000000000000009B
:10056000000000000000000000000000000000008B
:10057000000000000000000000000000000000007B
:10058000000000000000000000000000000000006B
:10059000000000000000000000000000000000005B
:1005A000000000000000000000000000000000004B
:1005B000000000000000000000000000000000003B
:1005C000000000000000000000000000000000002B
:1005D000000000000000000000000000000000001B
:1005E000000000000000000000000000000000000B
:1005F00000000000000000000000000000000000FB
:1006000000000000000000000000000000000000EA
:1006100000000000000000000000000000000000DA
:10062000000000001E0F0500047F3F1F64321464A9
:100630003214783C1E1E140A0501000100770200E6
:1006400000020002007302000003000100780200B3
:1006500000040002005D02380A0500010079020072
:1006600000060002005F02000007000200750200A1
:1006700000080001007A0200000900020061021374
:100680000A0A0002006302130A0B0002006502134B
:100690000A0C0002006702130A0D0002006902132F
:1006A0000A0E0002006B02130A0F0002006D021313
:1006B0000A100002006F02130A11000200710213F7
:1006C0000A120002007B020000130002007D0200FB
:1006D00000FD377A585A000004E6D6B446020021DD
:1006E0000116000000742FE5A3E0030901125D006C
:1006F0003D8889C65436C3174FE4E17B26800C4BF6
:10070000F1341A27CCBCA716250433227DE34BC253
:10071000D444A2A9D47151918F0BCC449754F2AE1A
:10072000C2CEA1AA1A4A69BC0CF1D0C7F995928D24
:100730006B435D8F3E2CD94340F33AD52DF6950C93
:100740004E7BECF24DBAE9E813A0AEEFBB1410F308
:10075000F65CEE8B75254AFA07945B08F49A3AD159
:100760003EE84800587E8685EF2118BC55F943AF16
:10077000D264F3744551BD1BC58781AEA29615D7CF
:100780008B4EF3E5449DAE2474D255BCD0BE4FDFF2
:100790008030B50ABE8D864CA7B9621733B585C9BE
:1007A00038E3F3DF46452491E670C824B7615EDD87
:1007B000418D339D09FD3A8F623C31FA2EF39B0344
:1007C0001CE4E77FE4648350842639246D56158E3B
:1007D0004D4284633CC70B58A17A44F71197FE80C1
:1007E0003E886727829669320DD3E66ED35EB921C3
:1007F000896B9628DFED77C862F562EA547CF211C6
:100800004C51000000DE0B444B815BB9E30001AEAC
:10081000028A060000CEDDEA1CB1C467FB020000BC
:10082000000004595A0902BF00050100A0FA09049A
:100830000000010301010009211101000122400013
:100840000705810308000A090401000203000000F3
:100850000921110100012222000705820320000165
:100860000705030320000109040200010300000042
:100870000921110100012281000705840320000ADB
:10088000080B03020101000009040300000101003C
:100890000009240100010900010409040400020107
:1008A00003000007240100014100062402010100A9
:1008B00006240202020009240301030102010009C7
:1008C000240302040101010009050602400005009D
:1008D000000525010101090585024000050000050C
:1008E000250101031201100100000008444B6E4B6A
:1008F0000100010203011C037600690061006C0025
:100900003A006600360034006300320062003300B3
:10091000630000000E034B006F0072006F006E005A
:10092000650000001C034B00690073006500720045
:100930002000440065007300690067006E007300CA
:1009400000000403090411241FBECFEFDAE0DEBF6C
:10095000CDBF04B603FE27C080916204909163046A
:10096000A0916404B09165048730904BA740B04BD0
:10097000D1F41092620410926304109264041092F5
:10098000650414BE84B7877F84BF0FB6F894A8951A
:1009900080916000886180936000109260000FBEBB
:1009A000E0E0F8E3099524E0AEEDB1E001C01D926E
:1009B000A236B207E1F711E0A0E0B1E0E2E1FDE626
:1009C00002C005900D92AE3DB107D9F70E94552A9D
:1009D0000C9448360C940000CF92DF92EF92FF9275
:1009E0000F931F93CF93DF9300D00F92CDB7DEB755
:1009F0007C01162FD42EC22E809196038430B9F537
:100A0000E0918B03F0918C03309709F440C0C7014B
:100A1000019763E070E00E94D734CB01880F991FE3
:100A2000860F971F19834A83CB824E2D481B9E0148
:100A30002F5F3F4FBC0181E793E00995E0918F0361
:100A4000F0919003309739F00C2D2D2D412FB701E7
:100A500081E793E009950F900F900F90DF91CF9170
:100A60001F910F91FF90EF90DF90CF90089582E05B
:100A7000E816F10409F45AC083E0E816F104A9F07D
:100A800081E0E816F10409F484C0F12CE12CE09136
:100A90008D03F0918E03309789F20C2D2D2D412F6F
:100AA000B70181E793E00995C9CF862F807F803A0F
:100AB00011F188F48038D1F0E0917503F09176035C
:100AC000803929F7309719F3123F49F12C2D4D2D1C
:100AD000612F6F7027C0803E99F0803FB1F0E091A8
:100AE0007303F0917403803B91F6ECCFE0917703B0
:100AF000F0917803E7CFE0917903F0917A03E2CFA8
:100B0000E0917B03F0917C03DDCF623F09F0BFCF22
:100B1000E0917D03F0917E03309709F4B8CF2C2D3E
:100B20004D2D62EF81E793E0099588CF862F807F76
:100B3000803DB9F0803FD1F0E0917F03F0918003D8
:100B4000803C09F0A4CF309709F4A1CF812F8D7F8D
:100B50004D2D612F6F70813FC9F081E793E00995BA
:100B60006DCFE0918103F0918203EDCFE09183039B
:100B7000F0918403633F39F0613F09F088CFE09141
:100B80008503F0918603309709F481CF4D2D612FB5
:100B9000E4CFE0918703F0918803683F38F4663F23
:100BA00009F075CFE0918903F0918A03309709F439
:100BB0006ECF612F81E793E0099540CFE8EDF0E03B
:100BC00080818E7F80831092E2001092DA00109272
:100BD000E100A0EEB0E08C9181608C9380818F77F2
:100BE000808319BCA7EDB0E08C918E7F8C938081BF
:100BF0008F7E80831092590308952091E4003091F4
:100C0000E50095E6A9012091EC00822F817020FF7C
:100C100006C08091E80080FF06C080E00895209122
:100C2000E80022FD1AC080917003882389F0853086
:100C300089F08091EB0085FD0FC02091E400309198
:100C4000E50042175307F9F29150E1F684E0089568
:100C500082E0089583E0089581E00895EF92FF9285
:100C60000F931F93CF937C018B010E94FD05C82F2A
:100C7000811117C08091E80085FD0BC08091E800CC
:100C80008E778093E8000E94FD05882399F3C82F92
:100C900008C0F70181917F018093F1000150110993
:100CA00049F78C2FCF911F910F91FF90EF900895EE
:100CB000CF93FC0180917003843001F5C091E9006D
:100CC000CF702091EC00922F917020FD90E8C92BFD
:100CD00082E08093E9008091E80080FF0CC050E042
:100CE00040E060E270E0CF010E942E068091E800B3
:100CF0008E778093E800CF70C093E900CF9108957C
:100D0000EF92FF920F931F93CF937C018B010E9470
:100D1000FD05C82F811117C08091E80085FD0BC02B
:100D20008091E8008B778093E8000E94FD0588237E
:100D300099F3C82F08C08091F100F70181937F01DA
:100D40000150110949F78C2FCF911F910F91FF90FE
:100D5000EF9008958091680387FF13C08091E800A9
:100D600082FF06C08091E8008B778093E80004C082
:100D7000809170038111F2CF0895809170038823D0
:100D8000D9F38091E80080FFF8CF8091E8008E775A
:100D9000ECCF982F9093E900242F762F50E08917FD
:100DA00031F07091EC002091ED005091F00021FDA8
:100DB00007C09F5F973071F78093E90081E0089545
:100DC0003091EB003E7F3093EB003091ED003D7FA2
:100DD0003093ED003091EB0031603093EB00709375
:100DE000EC002093ED005093F0002091EE0027FDE1
:100DF000E0CF80E00895CF92DF92EF92FF920F93C1
:100E00001F93CF93DF93C8EDD0E088818F7E8883D6
:100E1000E7EDF0E080818160808384E082BF81E043
:100E20008093590388818E7F888302EE10E0F80159
:100E300010821092DA0081EEC82ED12CF6011082B9
:100E400088818F77888388818068888388818F7D77
:100E5000888319BC10927003109267031092660386
:100E60001092650390EEE92EF12CF70180818B7FC3
:100E7000808388818160888342E060E080E00E9416
:100E8000C906F60180818E7F8083F80180818160B0
:100E90008083808188608083F70180818E7F80835A
:100EA000888180618883DF91CF911F910F91FF909E
:100EB000EF90DF90CF900895FC0180916E039091A8
:100EC0006F0386179707A0F06115710529F49091BB
:100ED000E8009E779093E80090E06115710551F469
:100EE000911108C08091E80082FF34C080E008952D
:100EF000BC01F2CF809170038823C1F18530C1F12C
:100F00008091E80083FD30C08091E80082FDEACF47
:100F10008091E80080FFE1CF8091F3002091F20002
:100F2000382F6115710519F02830310558F091E01E
:100F30002830310509F090E02091E8002E772093C9
:100F4000E800CBCF81918093F100615071092F5F50
:100F50003F4FE7CF80917003882341F0853041F007
:100F60008091E80083FFBECF81E0089582E008957C
:100F700083E00895089580E008950895089580918C
:100F80005C030895982F907F903BE9F040F49039EE
:100F9000D1F0903AC1F09038B1F080E00895903DE2
:100FA00019F020F4903CC9F782E00895903E59F082
:100FB000903F99F7815F8F3080F7E82FF0E0E85697
:100FC000FE4F8081089583E00895DF92EF92FF92B3
:100FD0000F931F93CF93DF9300D000D0CDB7DEB730
:100FE0007B01142FD22E4A832B830C83842F0E94E3
:100FF000C207811141C082E0E816F104C1F183E02B
:10100000E816F10439F0EA94EF2829F5173F29F49E
:1010100085E004C087E0073F09F084E08983809180
:1010200070038430C1F480911E018F708093E900B9
:1010300050E040E064E070E0CE0101960E942E0690
:10104000811109C08091E80085FD05C08091E8000C
:101050008E778093E8000F900F900F900F90DF91A4
:10106000CF911F910F91FF90EF90DF90089587EF40
:10107000D812D3CF86E0D2CF12951F701983CFCF6D
:10108000FF920F931F93CF93DF9300D000D000D037
:101090000F92CDB7DEB78C0108511F4F80917003BE
:1010A000843009F06CC0809123018F708093E90037
:1010B0008091E80082FF63C08091E80085FF5FC0F7
:1010C00050E040E064E070E0CE0101960E948006AE
:1010D0008091E80085FD05C08091E8008B778093C2
:1010E000E800FA808F2D0E94C207282FFD828B8195
:1010F0008E838C818F8321110AC08981843039F1DC
:10110000873029F1863029F121E0853039F630E049
:10111000E5E0F0E0EC0FFD1FE30FF11DF0804FB7AD
:10112000F894D8011196EC911197F0E0CF01019657
:1011300012966C9170E00E94EB34D8015C915817C4
:10114000190649F44FBF3F5F321710F3A7CF23E0D2
:10115000DECF22E0DCCF13968D919C911497E80F9F
:10116000F91FF08211968C91119790E001961296DA
:101170006C9170E00E94EB34F8018183E3CF2796F5
:101180000FB6F894DEBF0FBECDBFDF91CF911F9198
:101190000F91FF9008959C014FB7F89480915103EF
:1011A00090915203A0915303B09154034FBF821BFF
:1011B000930B08952FB7F8948091510390915203A7
:1011C000A0915303B09154032FBF0895809590913F
:1011D000E00298239093E002089580915A03909141
:1011E000E002892B9091DF02892B8093E001E0914E
:1011F0001903F0911A03309731F00280F381E02D4A
:1012000080EE91E0099408959E3F49F1E82F2FE088
:10121000929FE00D11249E2F9770E695E695E69536
:1012200085E0E89FF0011124E954FD4F50E040E0D3
:1012300080E0219130E0092E02C0369527950A946E
:10124000E2F721703327042E01C0220F0A94EAF737
:10125000822B4F5F5F4F4530510559F7089580E06D
:1012600008959E3F69F1E82F2FE0929FE00D112431
:101270008E2F877041E001C0440F8A95EAF7E6950A
:10128000E695E69585E0E89FF0011124E954FD4FCD
:1012900030E020E070E05191DF011197CB01022E88
:1012A00002C0969587950A94E2F78170819585270B
:1012B000842385278C932F5F3F4F2530310559F7C5
:1012C00008952091B6029091850256E0291302C03C
:1012D00080E0089530E0529FF001539FF00D1124FB
:1012E000EA57FD4F7181761306C07081781303C0F1
:1012F0007281741304C02F5F3F4F2770E7CF81E0E6
:101300000895452B39F0682381E06F3F09F080E0B4
:101310008170089581E0FCCF8091B60290918502A2
:10132000981301C008958F5F8770FACFE92FE29577
:10133000EF70E250EE3070F4F0E0E65BF94C0C94A4
:10134000FF34803F19F020F4883E20F481E00895B6
:10135000843FE1F380E00895883EC0F3813FD1F7F8
:10136000F5CF93FB882780F90895882321F00E9408
:10137000E6080C94ED080895882339F09091E00276
:10138000982B9093E0020C94ED080895882341F087
:10139000809590915A03892380935A030C94ED0809
:1013A0000895882339F090915A03982B90935A030B
:1013B0000C94ED08089520915202309153022817A1
:1013C000390771F09093530280935202E091190310
:1013D000F0911A03309721F00084F185E02D0994F3
:1013E000089520915002309151022817390771F069
:1013F0009093510280935002E0911903F0911A03E7
:10140000309721F00680F781E02D09940895E0914E
:101410001903F0911A03309721F00190F081E02D2B
:10142000099480E00895EDE5F2E0848195812AE059
:1014300030E0B9010E94D73460931B01868180930C
:101440001C01828580931501848580931401868513
:101450009785B9010E94D7346093190180898093E0
:101460001A0182898093130184898093120108955F
:1014700080915D0290915E02909317018093160116
:101480000895FA01811101C0FB0109948091440380
:10149000982F9E7F29F48170826080934403089581
:1014A0008635E8F381708465F8CFAF92BF92DF9202
:1014B000EF92FF920F931F93CF93DF93082F162F76
:1014C000E901E42FF0E0E15CFD4F611110C0E4910F
:1014D0005E2F4E2F4983E8835A83DF91CF911F916E
:1014E0000F91FF90EF90DF90BF90AF900895E62EA0
:1014F000F12C4491D42EE42FF0E026E0829FC0012D
:1015000011242FEF30E0B9010E94D734802F90E0F2
:10151000880F991F55E5569FD001579FB00D112494
:101520008A1B9B0B982F990F890F5901AE18BF0882
:10153000AE9ED001AF9EB00DBE9EB00D11245B2FAC
:10154000189F80011124012F11275901A01AB10AF7
:10155000AE9E8001AF9E100DBE9E100D112459014C
:10156000A81AB108AE9CC001AF9C900DBE9C900D16
:101570001124892F9927281B390B2E9FC0012F9FDB
:10158000900D3E9F900D1124E92F62307105A1F05E
:1015900050F46115710509F49DCF6130710581F03A
:1015A000EB2F512F97CF6430710569F080F06630D2
:1015B000710509F48FCFF4CFE42F4B2F592F8ACF29
:1015C000E42F412F87CFEB2F542F492F83CF4B2F61
:1015D0005D2DE12F7FCF0E94DA089C0190913003AE
:1015E00080913103982B21F030932D0320932C030D
:1015F0009091320380913303982B21F030932A038A
:1016000020932903E0911903F0911A03309749F0D0
:1016100082E080932E030480F581E02D8EE293E03A
:101620000994089590E080E00E94F10990E080E044
:101630000E94DB091092E0021092DF020E94ED0886
:1016400086E0EEE2F3E0DF011D928A95E9F7109261
:101650002B031092280310925C020C94EB0A609307
:101660005E0470935F0480936004909361040C9413
:10167000120B0F931F9360915E0470915F04809131
:101680006004909161048B019C0106701127222750
:101690003327063011052105310529F468601F91B3
:1016A0000F910C942F0B677FFACF0F931F9341E09C
:1016B00050E060E070E004C0440F551F661F771FC4
:1016C0008A95D2F7CB01BA01609570958095909577
:1016D00000915E0410915F042091600430916104D8
:1016E00060237123822393231F910F910C942F0B5E
:1016F0000F931F9341E050E060E070E004C0440F9E
:10170000551F661F771F8A95D2F780915E049091CE
:101710005F04A0916004B09161048A019B01082BD1
:10172000192B2A2B3B2BC901B8011F910F910C9447
:101730002F0B6093E1027093E2028093E302909397
:10174000E4020C94120B90913003803F59F4809185
:10175000310387FF0DC01092310391110BC010921D
:101760002B0308C0813F81F48091310318169CF34C
:10177000992381F08091320390913303892B09F0F2
:1017800064C0109228030895823F49F497FFF0CF78
:1017900010923003809131038111ECCFE0CF833F71
:1017A00019F41916ACF3E4CF20913203893F29F4E0
:1017B0001216F4F610923203DBCF8A3F19F427FF9A
:1017C000D7CFF8CF209133038B3F29F427FFD0CF19
:1017D00010923303CDCF8C3F19F41216CCF3C8CF3F
:1017E000843F31F480912F038E7F80932F03C0CFED
:1017F000853F21F480912F038D7FF7CF863F21F421
:1018000080912F038B7FF1CF873F21F480912F03AD
:10181000877FEBCF883F21F480912F038F7EE5CF28
:101820008D3F31F480915C028E7F80935C02A0CF6B
:101830008E3F21F480915C028D7FF7CF8F3F09F0BE
:1018400097CF80915C028B7FF0CF08958823F1F1D0
:101850009CEF980F913A78F4E2EEF1E028EE31E057
:101860009191891303C0DF0111971C922E173F0736
:10187000B9F70C94ED0890E2980F983088F48770CF
:1018800021E030E0A90102C0440F551F8A95E2F71C
:10189000CA01809590915A03892380935A03E9CF16
:1018A0009BE5980F933020F490E080E00C94F109D0
:1018B00098E5980F973120F490E080E00C94DB09D4
:1018C000803F20F00E94A30B0C94EB0A08958091B6
:1018D0005C0280FF0CC06091130170E07595679504
:1018E000759567956115710549F1862F089581FFFA
:1018F00006C06091130170E075956795F3CF609114
:10190000130182FD0BC0909128039923A1F06091EF
:10191000120180911301961738F0682F70E060383B
:10192000710500F38FE70895899FC001112470E0CD
:101930000E94EB34F4CF61E070E0D7CF81E00895EE
:1019400080915C02609165027091660280FF16C012
:1019500020911501269FC001279F900D1124BC01E5
:1019600076956795769567956038710508F043C060
:101970006115710509F441C0862F089581FF0BC0E0
:1019800020911501269FC001279F900D1124BC01B5
:1019900076956795E9CF82FF09C0809115019B017B
:1019A000829FB001839F700D1124DECF20912B0305
:1019B0002223D1F29091140180911501482F50E01B
:1019C000291748F0CB01849FB001859F700D949F2B
:1019D000700D1124C9CF289F90011124269FA001CA
:1019E000279F500D369F500D1124692F70E0CA01BA
:1019F0000E94D734B9CF8FE7089581E00895803FE2
:101A000031F40E94A00C8195809331030895813FA9
:101A100019F40E94A00CF8CF823F31F40E94A00C70
:101A20008195809330030895833F19F40E94A00CA0
:101A3000F8CF893F29F40E94670C80933203089500
:101A40008A3F21F40E94670C8195F7CF8B3F31F4D8
:101A50000E94670C81958093330308958C3F19F49D
:101A60000E94670CF8CF843F31F480912F0381608E
:101A700080932F030895853F21F480912F03826086
:101A8000F7CF863F21F480912F038460F1CF873F09
:101A900021F480912F038860EBCF883F21F480915F
:101AA0002F038061E5CF8D3F31F480915C0281602E
:101AB00080935C0208958E3F21F480915C028260E5
:101AC000F7CF8F3FB9F780915C028460F1CF0F931D
:101AD0001F93CF93C82F882309F473C08CEF8C0F0A
:101AE000813AB0F502EE11E088EE91E0F801219123
:101AF000C21701F121E0E83EF207C9F7EFEF80E0FD
:101B0000D8019D918D01C91781F0EF3F19F4911112
:101B100001C0E82F8F5F863099F7EF3F31F00E2E2E
:101B2000000CFF0BE052FE4FC283CF911F910F912B
:101B30000C94ED08E2EEF1E02191C21303C0DF0145
:101B400011971C928E179F07B9F70E94ED08D6CF08
:101B500080E28C0F883068F4C77021E030E001C06B
:101B6000220FCA95EAF780915A03822B80935A0379
:101B7000DCCFEBE5EC0FE33050F4F0E0E959FE4F39
:101B8000808190E0CF911F910F910C94F109E8E5CD
:101B9000EC0FE73160F4F0E0EE0FFF1FE659FE4F67
:101BA00080819181CF911F910F910C94DB09C03FEF
:101BB00040F08C2F0E94FF0CCF911F910F910C943D
:101BC000EB0ACF911F910F910895F894E82FE295B9
:101BD000EF70F0E031A1282F2F7081E090E001C07C
:101BE000880F2A95EAF7982F9095932391A392A1B5
:101BF000892B82A37894089590910A0392FF06C0DE
:101C0000282F28712830F9F4877F846093FF06C05D
:101C1000282F28712831F1F4877E846120910B03ED
:101C200020FF06C0382F38713830D9F4877F8160A3
:101C300021FF06C0282F28712831D1F4877E8161C9
:101C400094FD877E0895282F24712430F9F68B7F28
:101C50008860DCCF282F2471243101F78B7E8861C6
:101C6000DDCF382F3171313019F78E7F8860E0CFAA
:101C7000282F2171213121F78E7E8861E1CFCF930A
:101C8000DF939C013A9521153F4168F5EC01CC2783
:101C9000D170DC01AA27B270AC01442754709C01BA
:101CA0002227387094FF11C080E1CD2B09F480E029
:101CB000AB2B09F08062452B09F08064232B09F0DF
:101CC0008068FB01DF91CF91099481E0CD2B09F46D
:101CD00080E0AB2B09F08260452B09F08460232B58
:101CE00081F38860EECFDF91CF910895CF93DF939A
:101CF000EC010E94260CCE01805E9109089720F02D
:101D000065EB79E0209711F466EC79E0CE01DF9184
:101D1000CF910C943F0ECF93DF93EC01805E91093D
:101D2000089720F06CEB79E0209711F461ED79E0F1
:101D3000CE010E943F0E8C2FDF91CF910C94670D46
:101D4000CF93DF9300D00F92CDB7DEB790917003A1
:101D5000943011F589837B836A839093E9008FEF38
:101D60009091E800815095FD06C095ED9A95F1F7A8
:101D700000008111F5CF8091E80085FF0DC050E093
:101D800040E063E070E0CE0101960E942E06809153
:101D9000E8008E778093E8000F900F900F90DF910E
:101DA000CF910895BC0184E00C94A00EBC0183E0A7
:101DB0000C94A00E9C0184E08093E9009FEF809139
:101DC000E800915085FD06C085ED8A95F1F7000089
:101DD0009111F5CF8091E80085FF0CC050E040E004
:101DE00066E070E0C9010E942E068091E8008E77BF
:101DF0008093E8000895CF93DF93EC0181E0809316
:101E0000E9008FEF9091E800815095FD06C095EDB7
:101E10009A95F1F700008111F5CF8091E80085FFD8
:101E200014C050E040E068E070E0CE010E942E0651
:101E30008091E8008E778093E80088E0FE01ADE5B0
:101E4000B3E001900D928A95E1F7DF91CF9108956B
:101E500081E08093E00080E28093D8001092C90076
:101E60008FE19EE40197F1F700C0000087E090EB5E
:101E7000DC018093620490936304A0936404B093A4
:101E8000650488E19CE00FB6F894A8958093600003
:101E90000FBE90936000FFCF1F93CF93DF93182F57
:101EA000C0917D02D0917E02893321F0C0917B02E6
:101EB000D0917C02812F0E94670D209731F4812FF1
:101EC000DF91CF911F910C94260C8FE99FE0019731
:101ED000F1F700C000002197F0CFDF92EF92FF9260
:101EE0000F931F93CF93DF93E82FF0E0E154FE4F61
:101EF000D490282F26952695269530E0F901E155B6
:101F0000FE4F0491877010E0082E02C015950795CA
:101F10000A94E2F701701127F901E156FE4FE490AF
:101F2000F12C082E02C0F594E7940A94E2F791E0B0
:101F3000E922FF24F901E157FE4FC491D0E002C02D
:101F4000D595C7958A95E2F7C170DD270115110572
:101F500019F081EE0E94670DE114F10419F086EE8C
:101F60000E94670D8D2D0E944C0FEF2819F086EE10
:101F70000E94260C012B19F081EE0E94260CCD2B1D
:101F800051F08CE2DF91CF911F910F91FF90EF9074
:101F9000DF900C944C0FDF91CF911F910F91FF9028
:101FA000EF90DF900895019708F40895EFE9FFE0BE
:101FB0003197F1F700C00000F6CFFF920F931F9307
:101FC000CF93DF938C01EB01F42E8091180182FFF7
:101FD00043C08B7F80931801809156022091580254
:101FE00030915902AB01421B530B9A0140911601EB
:101FF0005091170124173507A8F40E94670D8091AE
:1020000018018D7F8093180180917B0290917C0252
:102010000E94D30F809156020E94260C82E00E94FB
:10202000E60824C09091E00292609093E0020E9442
:10203000670D809118018260809318018091780269
:1020400085FFE2CF86FDE0CFFF20F1F2DF91CF9157
:102050001F910F91FF900895802F0E94260C809170
:1020600056029091570280179107C1F20E94ED0825
:10207000D0935902C0935802E9CF8091440380FD68
:102080000AC0EEEEF1E0118210821282339652E025
:10209000E231F507C1F7249A35B13F7E25B12061C1
:1020A0004FB7F8948EEE91E0FC015191CF0168E0BA
:1020B00025B9000000C057FF35B9550F000000C01A
:1020C00000C000C035B900C06A9591F7F2E08231D6
:1020D0009F0751F74FBF8FE594E00197F1F700C0DC
:1020E00000000895EF92FF921F93CF93DF93EC01CE
:1020F0008EEEE82E81E0F82E10E08C819701409161
:10210000470360914603810F0E94550A1B5E83E0DE
:10211000E80EF11C1C3F89F70E943D109A818C81CA
:1021200090FF08C08F5F8C83DF91CF911F91FF904C
:10213000EF9008958150F7CFBF92CF92DF92EF9248
:10214000FF920F931F93CF93DF93FC018281DD24D5
:10215000DA9480FD02C0DD24D3940EEE11E0D0E0CD
:10216000C0E02CE0B22EF80111821082128294E0BD
:10217000E92EF12CC12C8091EB018C0D8D300CF4EB
:102180003DC06B2D0E94C934892F082E000C990B7D
:102190008C179D0791F4809147038E9DA0018F9D20
:1021A000500D112455954795559547959801609187
:1021B0004603809145030E94550ACD0CF1E0EF1AC9
:1021C000F108C9F621960D5F1F4FCC30D10559F6A5
:1021D0000E943D108091EB0191E0D91215C0811150
:1021E00011C08BE08093EB01DF91CF911F910F9194
:1021F000FF90EF90DF90CF90BF90089587FFC5CFFD
:10220000845FC3CF8150EECF90E00196BE010E9463
:10221000EB34E8CF0F931F93CF93DF93CEEED1E053
:10222000FE01118210821282339682E0E231F807B9
:10223000C1F710E000E08091EC01082E000C990B32
:10224000081719078CF180911001082E000C990BCA
:10225000801791074CF19E0140914703609146031E
:10226000809145030E94550A0F5F1F4F23960C3043
:10227000110509F70E943D1080910F019091EC012A
:10228000980F9093EC0120911001280F20931001DA
:10229000121614F49B301CF0819580930F01DF918E
:1022A000CF911F910F910895198218821A82DCCF65
:1022B0008F929F92AF92BF92CF92DF92EF92FF9256
:1022C0000F931F93CF93DF93EC014C81042F10E009
:1022D0009801D8010E9439369B01AC010E94043656
:1022E0004B015C01E0E2F0E0E01BF10BA5E5B0E0A2
:1022F000AC019B010E9404366B017C019F01DF0150
:102300000E940C359B01AC010E940F369B01AC0171
:10231000280D391D4A1D5B1DC701B6010E941736E5
:10232000F22E822F90E039E23F15D8F143E0249F4E
:102330009001112435952795122F10959EEEC92EE8
:1023400091E0D92E00E085E5E82EEF188E2D01FDF5
:102350008F2D9601412F609146030E94550A0F5F11
:1023600053E0C50ED11C0C3089F70E943D109C81B2
:1023700081E0992319F0903219F48FEF80931101C5
:1023800080911101890F8C83DF91CF911F910F9163
:10239000FF90EF90DF90CF90BF90AF909F908F9085
:1023A000089525E530E0A901481B590BCA019A019F
:1023B000220F331F280F391F37FFBCCF2F5F3F4F2E
:1023C000B9CFEF92FF920F931F93CF93DF938C01BE
:1023D000CEEED1E0F12CE12CF8019481609146031E
:1023E00080914503F6E0EF16F104FCF49923F9F02F
:1023F0009E01409147030E94550A2FEFE21AF20A0C
:1024000023968CE0E816F10439F70E943D10F8019C
:10241000848190E00196817099278483DF91CF9128
:102420001F910F91FF90EF900895992309F39E015A
:1024300040E0E1CF9091440390FF0CC0EEEEF1E05C
:10244000818360834283339692E0E231F907C1F7DA
:102450000C943D1008950F931F93CF93DF9300D0FA
:102460000F92CDB7DEB78C018091ED0181110AC0CA
:102470009E012F5F3F4F4FEF6FEF0E94550A8A81F9
:102480008093ED01F8016481613069F08091ED0184
:1024900040E0662361F040E0623011F44091ED01CC
:1024A00080E060E004C06091ED0140E080E00E94C7
:1024B0001A12F801848190E0019663E070E00E94B6
:1024C000EB3484830F900F900F90DF91CF911F9189
:1024D0000F910895CF93DF9300D00F92CDB7DEB761
:1024E0009091440390FF0AC09E012F5F3F4F0E94CE
:1024F000550A4B8169818A810E941A120F900F90B0
:102500000F90DF91CF910895CF93DF93EC01EC8191
:10251000F0E0EC5BFC4F4491E4E4F3E06281818104
:102520000E946A128C818F5F8C83DF91CF91089516
:10253000CF93DF93EC01E4E4F3E0438162818C818B
:102540000E946A128C818F5F8C83DF91CF910895F6
:10255000AF92BF92DF92EF92FF920F931F93CF93B0
:10256000DF93C7EAD1E000E113E0D12CEE24E3943D
:10257000F12C8991F894E82FE295EF70F0E021A119
:102580008F70A70102C0440F551F8A95E2F7CA0158
:10259000922F982B91A392A18095892382A378945E
:1025A00000C0EBEAF1E030E020E0B12CA12C419139
:1025B000A42FA295AF70B0E090968C9190E04F70F0
:1025C00002C0959587954A95E2F780FD5EC0C701E8
:1025D000022E02C0880F991F0A94E2F7A82AB92A8E
:1025E0002F5F3F4F2F30310511F7FE01319780816A
:1025F0000E94E50D50EA5A95F1F7F801808191812A
:10260000A816B90609F444C0B182A08281E0D82A94
:102610000E5F1F4FF1E0CB3ADF0709F0AACFDD20B4
:10262000C9F181E08093EA010E94DA089093E90100
:102630008093E8018091E8019091E9010E94CB0824
:10264000069760F1809110039091110390934A03D3
:1026500080934903809112039091130390934C034C
:1026600080934B03809114039091150390934E0334
:1026700080934D038091160390911703909350031C
:1026800080934F031092EA0109C090E080E0A6CF4A
:1026900080E0BDCF8091EA018111CCCF809178029A
:1026A00080FF1CC08091180182FF18C00E94DA08C8
:1026B0002091580230915902AC01421B530B2091DA
:1026C0001601309117014217530740F041E0BC0159
:1026D00080915602909157020E94DD0F8D2DDF915F
:1026E000CF911F910F91FF90EF90DF90BF90AF902F
:1026F00008951F93CF93DF93EC011AE0888188231C
:1027000009F43EC08130C9F599818A81913029F45C
:1027100022960E944C0F2196F1CF923021F42296FE
:102720000E94670DF8CF933021F422960E94260C68
:10273000F2CF943011F02196EECF229630E020E0D7
:10274000AE014F5F5F4F8053990B8A30910550F077
:102750002150310900F38FE99FE00197F1F700C0A4
:102760000000F6CF129FB001139F700D11249C0141
:10277000260F371F8981EA01E3CF0E946D0FCBCF6F
:10278000DF91CF911F910895CF9384E090E00E9454
:102790009D35C82F82E290E00E949D35982F8C2FA6
:1027A000CF9108950F931F93CF93DF930DE512E020
:1027B000C7E2D2E0CE010E949D35F80181938F01DE
:1027C0002196C934F2E0DF07A9F7CFE3D6E0FE0196
:1027D00085919491009711F0FC0109952896F6E0F7
:1027E000C73DDF07A1F7DF91CF911F910F910895AA
:1027F0000F931F93CF93DF93843038F5623028F521
:1028000028E0829FC001112434E0639FB0011124AD
:10281000860F971FC42FD0E0CC0FDD1FC80FD91F24
:10282000C95FDD4FCE010E949D35082F10E0102FAB
:102830000027CE0101960E949D359801282BC901E1
:10284000DF91CF911F910F91089590E080E0F8CF34
:102850000F931F93CF93DF93843030F5643020F5CE
:102860004F3010F5C42FD0E0CC0FDD1F2EE1629F5A
:10287000C00DD11D112438E7839FC00DD11D112437
:10288000CE0187960E949D35082F10E0102F00275B
:10289000CE0188960E949D359801282BC901DF91B1
:1028A000CF911F910F91089590E080E0F8CF462FCF
:1028B0002091570330915803232B91F47E3F39F434
:1028C0006E3F71F480914E0290914F0208958430D2
:1028D00038F4743028F46F3018F4672F0C942814EF
:1028E00090E080E00895CF93DF930E945714EC01AD
:1028F0008238910581F1B0F58133910509F491C0D9
:1029000020F58932910509F485C08A9709F490C0B1
:10291000C11520E5D20708F0A7C0C11530E4D307E0
:1029200008F0F6C0CF3BD10508F089C0C83AD10500
:1029300008F0E1C0C53AD10508F0D5C0C430D105D2
:10294000F8F4C130D105E1F040C08533910509F4B8
:102950005AC0C997E9F680910A03837089F0C0EEE6
:10296000D0E00EC0833E910599F170F4803E910550
:1029700001F1823E910561F680910A0382FD21C03A
:10298000CE01DF91CF910895863E910561F1873E9A
:10299000910571F1843E910509F0BACF80910B0346
:1029A00081FFEECF80910A03C7EED0E084FD0DC019
:1029B000E7CF80910A0380FDFEC090910B0390FF4A
:1029C000DFCFC3EED0E084FFDBCFD0E0C0E0D8CFD4
:1029D00080910A0382FDF2C090910B0390FDBFCF5E
:1029E00084FFCECFF2CF80910A0383FDDDCFC8CF25
:1029F00080910A0383FDE5C090910B0391FFF0CF16
:102A0000C4EED0E0BDCF80910A0385FFB9CFC9E203
:102A1000D0E0B6CF80910A0385FFB2CFC5E3D0E006
:102A2000AFCF80910A0386FFABCFCAE2D0E0A8CF38
:102A300080910A0386FFA4CFC1E3D0E0A1CFCF3FAE
:102A4000D10509F058F4C03FD10508F05FC0CE01B0
:102A5000815E9109079708F493CFB7CFC11540E283
:102A6000D40708F48DCFB1CFC11584E5D807A0F401
:102A7000C11593E5D90708F07CC0C11522E5D2073E
:102A800008F066C0C11531E5D30708F444C0DC2F57
:102A9000CC27C16FD06A74CFC1154AE5D40778F44A
:102AA000C11589E5D80708F078C0C11598E5D907A0
:102AB00008F48BCFDC2FCC27C06FD06A61CFCE015A
:102AC00090568115904208F080CF8D2F8F710E9413
:102AD000FC0D90E0982F882788279F719C012C2B54
:102AE000E901D0624DCFC55AD0E0C959DE4FC88147
:102AF000D0E0D06445CFC85AD0E0CC0FDD1FC65916
:102B0000DE4F0990D881C02DD4643ACFD06538CF3C
:102B1000DF70D06A35CFCE0164E0969587956A95CF
:102B2000E1F783702C2F26952695237040E2249F91
:102B300090011124382B8C2F8370C1E0D0E002C0AB
:102B4000CC0FDD1F8A95E2F7C22BD32BDC6818CFA0
:102B5000CE018370992721E030E002C0220F331F9D
:102B60008A95E2F7C695C69580E2C89FE0011124D8
:102B7000EBCFCE018370992721E030E002C0220F15
:102B8000331F8A95E2F7C695C69590E2C99FE0018A
:102B90001124C22BD32BDA68F3CE8C2F8F700E94B6
:102BA000FC0D34E0D695C7953A95E1F7CF709C2F90
:102BB000EC01D069E5CEC9E3D0E0E2CEC2EED0E0D0
:102BC000DFCEC6EED0E0DCCEBF92CF92DF92EF92A6
:102BD000FF920F931F93CF93DF938C01C0905E04FD
:102BE000D0905F04E0906004F09061048091E10275
:102BF0009091E202A091E302B091E402C82AD92A9E
:102C0000EA2AFB2ACFE1D0E0BC2ED701C6010C2E68
:102C100004C0B695A795979587950A94D2F780FD3D
:102C20000EC0219788F7B12C8B2DDF91CF911F918A
:102C30000F91FF90EF90DF90CF90BF900895B80173
:102C40008C2F0E947314019761F3EECFCF93DF9323
:102C5000EC010E94E415BE01DF91CF910C94731436
:102C60000E9426160C9496091F93CF93DF9300D0F1
:102C700000D00F92CDB7DEB749835A8389819A81FC
:102C80006623B9F02223A9F00E94E415182F682FBB
:102C900089819A810E94310969817A81812F0F90FF
:102CA0000F900F900F900F90DF91CF911F910C9488
:102CB00057140E940409182FEFCF0F931F93CF933F
:102CC000DF930DE512E0C7E2D2E0CE010E949D3510
:102CD000F80161918F01681719F0CE010E94B1359A
:102CE0002196C934F2E0DF0781F7DF91CF911F9180
:102CF0000F910895EDE5F2E0128E138E8FEA90E0C9
:102D00009183808385E0848F88E893E19383828335
:102D10002CE231E03583248382E390E0978386833D
:102D200085E090E0918780878AE090E093878287B2
:102D300044E150E0558744873787268724E630E012
:102D4000318B208B28E030E0338B228B28E230E07F
:102D5000358B248B28EC30E0378B268B318F208FFE
:102D6000158E978F868F80E590E091A380A30E94B7
:102D70005D160C94D213CF93DF93C9E4D2E060E0E8
:102D8000CE010E94B1352196C11584E0D807B9F76C
:102D9000DF91CF9108950F931F93CF93DF93890114
:102DA000843068F5623058F5423048F501152CE55D
:102DB000120731F42091550330915603232BF9F07B
:102DC00028E0829FC001112424E0629FB0011124F9
:102DD000860F971FC42FD0E0CC0FDD1FC80FD91F5F
:102DE000C95FDD4F612FCE010E94B135602FCE014A
:102DF0000196DF91CF911F910F910C94B135DF9126
:102E0000CF911F910F9108950F931F93CF93DF934D
:102E10008901843048F5643038F54F3028F52115A4
:102E20003C4531F42091550330915603232BE1F0BA
:102E3000C42FD0E0CC0FDD1F9EE1699FC00DD11DD6
:102E4000112498E7899FC00DD11D1124612FCE0157
:102E500087960E94B135602FCE018896DF91CF9181
:102E60001F910F910C94B135DF91CF911F910F916C
:102E700008958F929F92AF92BF92CF92DF92EF927E
:102E8000FF921F93CF93DF9380905503909056034A
:102E900081E090E0909356038093550384E4C82E1C
:102EA00084E0D82EC0E07601D0E014C0F501259171
:102EB0003491412F6D2F8C2F0E94041782E0A80EB1
:102EC000B11C1F5F1F3091F78EE1E80EF11CDF5F30
:102ED000D43019F0570110E0E9CF21E030E040E0B4
:102EE00060E08C2F0E94CB1621E030E041E060E0F2
:102EF0008C2F0E94CB1621E030E040E061E08C2F67
:102F00000E94CB1621E030E041E061E08C2F0E946E
:102F1000CB16CF5F88E7C80ED11CC43009F0C3CFF1
:102F20000E947A169092560380925503DF91CF91BA
:102F30001F91FF90EF90DF90CF90BF90AF909F9048
:102F40008F900895E2EEF1E086E0DF011D928A9510
:102F5000E9F70C94120B1F93CF93DF93CDB7DEB735
:102F6000AA970FB6F894DEBF0FBECDBF88E693E0F8
:102F70002091F100DC012D93CD01B3E080379B0758
:102F8000B9F780916903833009F471C0B8F48130D6
:102F900009F448C0823009F4B4C08091E80083FF8E
:102FA0003CC180916803909169039A3008F035C163
:102FB000E92FF0E0E85AF94C0C94FF348A3009F418
:102FC0008FC08B3009F470C0893039F78091680365
:102FD000813219F780916C0390916D03009711F085
:102FE0000297D9F68091E800877F8093E80080916E
:102FF000E80082FF37C09091F3008091F2000297C1
:1030000029F48091F1008B7F813021F48091F100CF
:1030100080935C038091E8008B778093E8000E94A6
:10302000AA06BBCF80916803813A09F0B6CF8091A0
:10303000E800877F8093E80080916C0390916D0396
:10304000892B61F468E08DE593E070E00E945C07F5
:103050008091E8008B778093E8009FCF60E090E05C
:1030600080E0F3CF809170038111C1CF96CF809122
:103070006803813A09F091CF80916C0390916D03C0
:10308000892B09F08ACF8091E800877F8093E80040
:103090008091E80080FFFCCF809133018093F100A4
:1030A0008091E8008E77B9CF80916803813209F072
:1030B00074CF80916C0390916D03892B09F06DCFD3
:1030C0008091E800877F8093E8000E94AA068091A3
:1030D0006A038093330110925A030E94A2175DCFB6
:1030E00080916803813209F058CF8091E800877F92
:1030F0008093E8000E94AA0680916B0380935B0393
:103100004CCF80916803813A09F047CF8091E80065
:10311000877F8093E8008091E80080FFFCCF80915A
:103120005B03BCCF803899F0823809F076C080917B
:103130006C038F70873008F070C08093E900809135
:10314000EB0085FB882780F91092E90006C080918A
:10315000650390916603911182609091E800977FDA
:103160009093E8008093F1001092F1008091E800C4
:103170008E77CAC1882309F4B7C1823009F04DC0E7
:1031800080916A038111BBC180916C038F702FEF16
:10319000280F263008F041C08093E9002091EB0011
:1031A00020FFADC1933031F48091EB0080628093B9
:1031B000EB00A5C19091EB0090619093EB0021E0B2
:1031C00030E001C0220F8A95EAF72093EA001092BE
:1031D000EA008091EB008860EACF81111EC0109157
:1031E0006A031F778091E3008078812B8093E3004E
:1031F0008091E800877F8093E8000E94AA06809172
:10320000E80080FFFCCF8091E30080688093E300BA
:1032100082E0111183E0809370038091E80083FFC6
:103220000AC08091E800877F8093E8008091EB00DE
:1032300080628093EB00AA960FB6F894DEBF0FBEB3
:10324000CDBFDF91CF911F9108958058823028F72C
:1032500020916A0330916B032C3DE3E03E07A1F51A
:1032600083E08A838AE289834FB7F894DE0113965C
:1032700020E03EE051E2E32FF0E050935700E4916C
:1032800020FF03C0E295EF703F5FEF708E2F90E05C
:10329000EA30C0F0C7968D939D932F5F243159F784
:1032A0004FBF8091E800877F8093E8006AE270E07A
:1032B000CE0101960E945C078091E8008B77809395
:1032C000E800ABCFC096E7CF80916C0390916D037F
:1032D000432F55274330510509F44AC078F5413052
:1032E000510509F485C08FEB90E0E5E2F8E042304B
:1032F000510509F092CF2091E800277F2093E80044
:1033000020916E0330916F038217930708F49C019C
:1033100040E02115310509F070C041116EC0809167
:10332000E80082FDC9CF80917003882329F285309F
:1033300019F28091E80083FFF2CFBECF41325105F0
:1033400009F447C04232510509F067CF8330910537
:1033500008F063CFFC01EE0FFF1FEF52FE4F01900C
:10336000F081E02D82539E4FDC018C9190E01DC0D6
:10337000332721303105E9F02115310579F022306C
:103380003105F9F02330310509F047CFE6EFF8E0D9
:10339000E4918E2F90E0E6EFF8E007C0E2E4F9E078
:1033A000E4918E2F90E0E2E4F9E0009709F435CF44
:1033B000A2CFE4E2F9E0E4918E2F90E0E4E2F9E0BC
:1033C000F4CFE4E1F9E0E4918E2F90E0E4E1F9E05C
:1033D000ECCF8330910508F020CF880F991FFC01B6
:1033E000E952FE4F0190F081E02D89E090E083CF1B
:1033F00082E190E0E4EEF8E07ECF809170038823D4
:1034000009F45ACF853009F457CF8091E80083FD45
:1034100053CF8091E80082FD82CF8091E80080FF49
:1034200078CF9091F3008091F2002115310519F0C9
:103430008830910550F041E0089709F040E0809114
:10344000E8008E778093E80064CF44914093F100C8
:103450003196215031090196E8CF803809F0DDCE50
:103460008091E800877F8093E800809167038093D4
:10347000F1007CCE8111D1CE10916A03123008F098
:10348000CCCE8091E800877F8093E800109367039B
:103490000E94AA06112311F084E005C08091E30088
:1034A00087FDFACF81E08093700342E061EC81E018
:1034B0000E94C90642E261EC84E00E94C90642E231
:1034C00061EC82E00E94C90642E260EC83E00E9467
:1034D000C90642E361E885E00E94C90642E361E86B
:1034E00086E00E94C90699CE80916A03813009F076
:1034F00094CE81E0933009F080E0809366031092CF
:10350000E9008091E800877F8093E8000E94AA0686
:1035100084CE4F925F926F927F928F929F92AF92E2
:10352000BF92CF92DF92EF92FF920F931F93CF93B0
:10353000DF93FC016280448081E08483E4E4F3E073
:103540007490E3ECF3E0E491C2E1D2E03EEEE32ECE
:1035500031E0F32E4EE4C42E42E0D42E52E0A52EEC
:10356000BB24B39488248A94912C55245A94E71947
:103570000E2F10E082E0861530F08091450388839D
:10358000809146038983411021C01B821A829701D2
:103590004A81698188810E94550A259683E0E80E58
:1035A000F11CCC16DD0631F7DF91CF911F910F9101
:1035B000FF90EF90DF90CF90BF90AF909F908F9053
:1035C0007F906F905F904F900C943D108B8188237B
:1035D000E9F081508B83859DC00111246C8170E0DE
:1035E0000E94D734FB01FF27EC5BFC4F8491E82F4E
:1035F000E719E59DC0011124B8010E94D7348091DC
:103600004703689FB00111247A83C1CF0E946735B8
:1036100020914703269521582A9DA0012B9D500DEE
:103620001124452F5527841795070CF0B0CF82E061
:10363000861588F40E946735B4010E94EB348883B4
:103640000E946735209146032695622F70E00E9404
:10365000EB34280F29831A8280914703893C20F09C
:1036600088EC8C838B8393CF8431D8F784E1F9CFB6
:103670006AEE7EEF90E080E00E94CF3560E082E06D
:1036800090E00E94B13560E083E090E00E94B135A7
:103690001092E1021092E2021092E3021092E40210
:1036A00060E084E090E00E94B13560E082E290E06A
:1036B0000E94B13560E085E090E00E94B13560E0A5
:1036C00086E090E00E94B1356FEF87E090E00E94C5
:1036D000B13540E050E0BA0188E090E00E94C33587
:1036E00060E08DE090E00E94B13540E050E0BA012A
:1036F00088E190E00E94C33560E087E190E00E949D
:10370000B13540E050E0BA018CE190E00E94C33551
:1037100070E060E080E290E00E94CF3540E050E051
:10372000BA0188E190E00E94C33540E050E0BA0160
:103730008FE090E00E94C33540E050E0BA0183E1A1
:1037400090E00C94C335CF92DF92EF92FF926B0121
:103750007C010E94460AB701A60188E090E0FF9034
:10376000EF90DF90CF900C94C3355F926F927F9271
:103770008F929F92AF92BF92CF92DF92EF92FF9281
:103780000F931F93CF93DF9300D00F92CDB7DEB787
:10379000182F762E042F622E9091440390FF29C09B
:1037A000E92FE695AE2FB0E0A45CBE4F8C918093DC
:1037B00042039E7F923081F59E012F5F3F4F812F04
:1037C0000E94550A4B8169818A810E941A121093C6
:1037D00045037092460300934703662051F06091C1
:1037E00044037091450380914603909147030E94E2
:1037F000A31B0F900F900F90DF91CF911F910F910E
:10380000FF90EF90DF90CF90BF90AF909F908F9000
:103810007F906F905F900895823019F40091470374
:10382000D6CF863019F410914503D1CF8930D9F322
:10383000893169F6E9518E2F8170582EE695F0E0B6
:10384000E15CFC4FA590B490BB248EEEE82E81E0A5
:10385000F82ED12CC12C9CE0892E912CC601B401EC
:103860000E94D734812F511013C0860F9701402F2B
:10387000672D0E94550ACA0CDB1C83E0E80EF11C80
:1038800082E1E81682E0F80649F70E943D109FCFDA
:10389000861BECCFE4E4F3E0438121E1421B08F412
:1038A00040E021E0628181810C94B51BE4E4F3E007
:1038B000438121E1420F08F44FEF21E062818181D1
:1038C0000C94B51BE4E4F3E0628121E1621B08F48F
:1038D00060E021E0438181810C94B51BE4E4F3E0D6
:1038E000628121E1620F08F46FEF21E04381818161
:1038F0000C94B51BE4E4F3E0818121E04381628113
:103900008A500C94B51BE4E4F3E0818121E043810B
:103910006281865F0C94B51B80914803882319F05F
:1039200081508093480360914403709145038091D6
:103930004603909147030C94A31B80914803833066
:1039400018F48F5F8093480360914403709145039E
:1039500080914603909147030C94A31BE4E4F3E0A9
:1039600083E0808311828FEF82838383148260815E
:103970007181828193810C94A31B9091440390FFE9
:103980003DC09170811129C09260909344036623D9
:1039900051F06091440370914503809146039091EA
:1039A00047030E94A31B60914403669570E04BE0BF
:1039B00050E084E091E00E948035892BA9F01092BC
:1039C000430381E080931F0320E04091470360910F
:1039D0004603809145030C94B51B8B3210F094651F
:1039E000D4CF880F982BD1CF81E0809343030E94DE
:1039F000DA0890931D0380931C03E3CF0895809110
:103A000044038695815009F48AE261E00C94BD1C60
:103A10008091440386958F5F8B3208F081E061E0EE
:103A20000C94BD1C9091440390FF07C09695981785
:103A300020F0961710F40C94081D61E00C94BD1C46
:103A40004F925F926F927F928F929F92AF92BF92AE
:103A5000CF92DF92EF92FF920F931F93CF93DF935A
:103A600000D000D0CDB7DEB77C01FC01438154818A
:103A7000618180810E948109811120C021E0F701CC
:103A8000408151816281738184810E9434168C014E
:103A9000F7018281882309F46EC5C80182519F45D0
:103AA000409708F07AC48FEF93E00E949D355EEE58
:103AB000F52EF00E09E412E0882309F10F900F9023
:103AC0000F900F90DF91CF911F910F91FF90EF908A
:103AD000DF90CF90BF90AF909F908F907F906F902E
:103AE0005F904F9008950115F4E01F0739F3C80166
:103AF0000E949D35811101C0FA940F5F1F4FF11094
:103B0000F2CF19821A821B821C82BB24BA947801DC
:103B10002FEFE21AF20AC8010E949D3589831A82AA
:103B2000882361F2813009F048C0680142E0C40E88
:103B3000D11CC7010E949D35E82E8A83882309F491
:103B4000BDCFC6010E949D35F82E8FEF8E0D8330BC
:103B500068F4680153E0C50ED11CFB82FF2021F000
:103B6000CE0101960E9479138601D1CF84E0E8123C
:103B7000FBCF680194E0C90ED11CC80103960E94D6
:103B80009D35FF2009F49ACF882309F497CF8150FF
:103B9000990BB89E9001B99E300D1124EF2DE15084
:103BA000FF0BCF01820F931F0197F0F2EFE9FFE0C7
:103BB0003197F1F700C00000F7CFCE0101960E94C7
:103BC00079136701D1CF81E00E94780B03C081E0B7
:103BD0000E94550B0E94390B71CF82E0F5CF82EE27
:103BE0000E94670D24C488E193E00E948B0E8091AF
:103BF0007B0290917C020E94D30F88E193E00E94A7
:103C0000760E15C482EE0E94670D87E50E944C0F68
:103C10000EC486EE0E944C0F88E1F8CF895A21C469
:103C200082EE0E94260C35C48CE20E944C0F8091DB
:103C30005502882309F42DC489E30E944C0F29C43E
:103C400088E2FBCF80911801816080931801F70111
:103C50009281992331F180915A0382720C3CFCE5E8
:103C60001F0709F435C108F0B4C0063C4CE5140741
:103C700009F41AC108F087C0033CECE51E0709F4FB
:103C800009C108F071C0023C2CE5120709F4DDC03F
:103C900001155CE5150709F435C10E3D1C4509F415
:103CA00040C1F70100811181992309F43DC1C80188
:103CB0000E94E415D82E682FC8010E943109B8016E
:103CC0008D2D0E947314182F092F882EF701B280B2
:103CD000A580A2943FE0A322892F82958F70C82EE1
:103CE000D12C8C3008F05CC1F601EE59F94C0C94E3
:103CF000FF34809118018E7F8093180182E00E942A
:103D0000E608A5CF0933110560F40D32110520F442
:103D10000B32110509F09BCF8091780282FD97CF7D
:103D2000F9C304361105C1F392CF8091780283FD67
:103D30008ECFF0C38091E00282608093E00217C4CE
:103D40001093570200935602D0925902C092580223
:103D500080911801846080931801B0CE40E0B601D4
:103D6000C8010E94DD0FAACE043C4CE5140709F4FB
:103D700096C0053C5CE5150709F08ACF4AE75CE18F
:103D800063E87CE123C0093CECE51E0709F496C01A
:103D900078F4073C2CE5120709F48BC0083C4CE58D
:103DA000140709F075CF4EE65CE162E67CE10EC0D7
:103DB0000A3C5CE5150709F486C04CE85CE16DE956
:103DC0007CE10B3CECE51E0709F062CF0E94410A42
:103DD00075CE013DFCE51F0709F488C0B0F40E3C28
:103DE0004CE5140709F47CC008F477C00F3C8CE55F
:103DF000180709F478C06EE089E0003DECE51E0785
:103E000009F046CF0E94121D59CE043DFCE51F0764
:103E100009F472C078F4023D4CE5140709F469C056
:103E200061E088E1033D5CE5150709F031CF0E94B0
:103E3000BD1C44CE053D8CE5180709F460C06AE25C
:103E400085E20D351007F1F223CF8091440380FF06
:103E50001BC08E7F8093440360914403709145039F
:103E600080914603909147030E94A31B1092430345
:103E7000FFEF20E742E0F15020404040E1F700C072
:103E800000000E943D101ACE81608093440361E0DF
:103E90008695CDCF4FEF5CE168E07DE197CF48E0BC
:103EA0005DE16FEF7CE192CF43E85CE16AE77CE1A2
:103EB0008DCF42E65CE16EE67CE188CF4AE45CE1CE
:103EC00066E57CE183CF46E55CE16AE47CE17ECF98
:103ED0004DE95CE16CE87CE179CF61E081E0A7CF5E
:103EE00065E082E08FCF68E086E08CCF64E18FE010
:103EF00089CF67E185E186CF62E289E183CF61E026
:103F000083E295CF10925A030E94A2179FEFE4E339
:103F1000FCE09150E040F040E1F700C000000E945A
:103F2000280F0E94381BCACDC8010E940409D82E50
:103F3000C6CEF92FFF709F2E892F807F19F09294A3
:103F400020EF9222BB20C9F0992069F080E2810F16
:103F5000883010F081100BC080915A03982A9092FB
:103F60005A030E94ED08812F0E94670D19C08091AD
:103F7000E002982A9092E002F4CF812F0E94260C52
:103F8000992071F080E2810F883010F0811025C0F7
:103F9000909480915A03982290925A030E94ED08BF
:103FA00028E0C21AD10844E0C416D10410F40E94DB
:103FB000070A812F902F0E9496098111CFC110927C
:103FC0005B0210925A0220E0F70140815181628128
:103FD000738184810E94341671CD892D0E94E60878
:103FE000DDCF292F2F70922E892F807F803219F0FC
:103FF000929490EF992241E0841210C0BB2039F0D6
:1040000055E05A1568F2892D0E94D109C9CF84E084
:104010008A1530F2892D0E94C609C2CFBB20B1F0AB
:10402000AA2089F320E0F7014081518162817381E8
:1040300084810E94341680917A0281FD94CFF70129
:10404000858180FF90CF8F708583DDCFAA2011F30B
:10405000F9E38F127BC180917D0290917E020E94D4
:10406000D30F812F0E94260C9BCF892F8695869592
:10407000837061F0813009F093CF812F9370B1107C
:1040800002C090E080E00E94DB098ACF812F93700C
:10409000B11002C090E080E00E94F10981CF812F31
:1040A000BB2039F00E94FF0C0E94EB0A0E94EB0A31
:1040B00077CF0E94A30BFACF892F837009F067C0D6
:1040C000B1106ECF212F229526952770220F220F37
:1040D000412F4F7050E070E060E0022E04C0440FAA
:1040E000551F661F771F0A94D2F780E090E0DC012D
:1040F00014FF0FC08FE090E0A0E0B0E004C0880F94
:10410000991FAA1FBB1F2A95D2F780959095A0955D
:10411000B095202F269526952370223029F1D8F4CA
:104120004090E1025090E2026090E3027090E4025D
:10413000213069F0842B952BA62BB72BBC01CD0128
:1041400064217521862197210E94990B29CF44294A
:104150005529662977293A014B01682A792A8A2A42
:104160009B2AC401B301F0CF842B952BA62BB72B30
:104170004090E1025090E2026090E3027090E4020D
:10418000BC01CD016425752586259725DDCF869553
:10419000BB2011F0892F8170882309F401CF212FD2
:1041A000229526952770220F220F412F4F7050E045
:1041B00070E060E0022E04C0440F551F661F771F99
:1041C0000A94D2F780E090E0DC0114FF0FC08FE08A
:1041D00090E0A0E0B0E004C0880F991FAA1FBB1FA9
:1041E0002A95D2F780959095A095B095202F269589
:1041F00026952370223029F1D8F440905E04509027
:104200005F046090600470906104213069F0842B39
:10421000952BA62BB72BBC01CD01642175218621DE
:1042200097210E942F0BBCCE442955296629772956
:104230003A014B01682A792A8A2A9B2AC401B301D0
:10424000F0CF842B952BA62BB72B40905E0450907B
:104250005F046090600470906104BC01CD0164252E
:10426000752586259725DDCF292F2F70922EBB200F
:1042700029F0822F0E94780B812FC6CE812F0E94B9
:10428000C609892D0E94550B8BCE812F41EF141743
:1042900009F44AC0411758F050EF151719F1BB2027
:1042A00009F44FC0A1105FCE802F8F7142C092EFF2
:1042B000191709F441C0E3EF1E13F1CF60E070E07D
:1042C000CB01BB2009F4ADCF202F2F7161E070E04E
:1042D00080E090E004C0660F771F881F991F2A9521
:1042E000D2F79FCFBB20D1F0F4E0FA1508F458CEF6
:1042F000202F2F7161E070E080E090E004C0660F35
:10430000771F881F991F2A95D2F740905E0450901E
:104310005F046090600470906104A1CF85E0682E16
:104320006A1408F43DCEE4CF892F8F71BB2009F4C5
:10433000A9CF0E94780B34CE802F8F71BB20C9F398
:10434000A1CFAA2041F0893309F485CE80917B0268
:1043500090917C0284CE802F8F7194CFBB2019F076
:10436000A1102DCE30CEA1102ACE20E0F701408141
:1043700051816281738184810E94341680917A0216
:1043800083FF1DCE80915A0290915B02029709F043
:1043900016CE812F0E944C0F12CE0031FFE51F0771
:1043A00009F411CC01312FE5120709F416CCC8012C
:1043B000815E9C45059740F46FE1600F60930C03AC
:1043C0008CE090E00E94B13517FF67C0F701828151
:1043D000882309F462C0E0911903F0911A0380E088
:1043E000309721F00190F081E02D0995869581703C
:1043F0008093550290910C03913029F4882319F091
:1044000089E30E944C0F80915A03809354021092CA
:104410005A0380910C03813009F4E5CB882309F419
:10442000DECB823009F4EECB843009F4F2CB8FE39B
:104430009CE90197F1F700C000005801E894B7F833
:104440004CE0C42ED12CC5010C2C02C0969587954A
:104450000A94E2F78F7096EF980F963008F4DECB4F
:10446000805D0E946D0F94E0C91AD108ECEFCE1662
:10447000EFEFDE0641F780910C03813009F4D4CBD5
:10448000882309F4CDCB823009F4CACB843009F4F7
:10449000D7CB8091540280935A038091780280FF99
:1044A000D6CB0E94DA086C01F7018281882311F1D2
:1044B0008091180182FF06C040E0B60190E080E0E4
:1044C0000E94DD0F82E00E94E6080B31FCE51F0729
:1044D00009F4B8CB0C312CE5120709F40ACC909101
:1044E0001801892F8E7F90FF81600A314CE51407F7
:1044F00009F402CC0832110508F004CC0E31110584
:1045000008F013CC0430110508F4A1CB8091780297
:1045100084FD9DCBF7018281882309F41FCC809113
:10452000180180FF94CB9091780291FD04C02091F6
:104530005A0321118CCB95FF03CC20915802309166
:1045400059023601621A730A930196FD02C081FD79
:10455000F7CB283C310508F0F3CB2091560230917F
:1045600057020217130709F0EBCB81FDE3CB802F35
:104570000E94670DA3CA00314FE5140709F427CB49
:1045800001315FE5150709F01FCF82E021CBBF9213
:10459000CF92DF92EF92FF920F931F93CF93DF930F
:1045A00080918402807F61F480918102882341F0B0
:1045B000C091B60286E0B82E809185028C130AC0A5
:1045C000DF91CF911F910F91FF90EF90DF90CF90EF
:1045D000BF900895F0907F02E0908002C090820228
:1045E000D0908302A6016E2D8F2D0E948109D0E00C
:1045F000811141C0BC9E8001BD9E100D1124F801A7
:10460000EA57FD4F51815E1136C040814F1133C0D2
:104610008281811130C0E380F480EC18FD0820E035
:104620006091810270918202809183020E9434160F
:104630008091750290917602E816F906E0F4809177
:1046400084028F70806180938402F801E557FD4FEA
:1046500080818F70806180838FE792E00E94201DAF
:10466000DF91CF911F910F91FF90EF90DF90CF904E
:10467000BF900C948C092196C7709ECF5F926F9269
:104680007F928F929F92AF92BF92CF92DF92EF92E2
:10469000FF920F931F93CF93DF93CDB7DEB7619750
:1046A0000FB6F894DEBF0FBECDBF8C0185E0F801D8
:1046B000DE011D9601900D928A95E1F7D8017C905C
:1046C0001196EC90119712966C908FE7A82E82E0CD
:1046D000B82E8090820290908302A40160918002A3
:1046E00080917F020E9481098111C7C1F801C380B6
:1046F000D480F0908102C601881999094C0120E00C
:1047000040917F0250918002FF2009F45DC16F2D1E
:1047100070918202809183020E943416809175020A
:1047200090917602509084028816990608F00DC187
:104730004091820250918302B0907F02A09080024B
:10474000852D807F6A2D09F0B9C08B2D0E948109CB
:10475000F62C81112BC0EA1029C07B1027C06110F4
:1047600025C0852D8F708061809384028FE792E051
:104770000E94201D80918402D80115968C938F2D64
:1047800061960FB6F894DEBF0FBECDBFDF91CF911B
:104790001F910F91FF90EF90DF90CF90BF90AF905F
:1047A0009F908F907F906F905F90089520E0409150
:1047B0007F0250918002609181027091820280910B
:1047C00083020E9434168091750290917602843F94
:1047D0009140F8F0A6016E2D872D0E94810981116C
:1047E00054C081E0862580FF25C0462D6E2D872D83
:1047F0000E9461098823F1F08FE792E00E94201D5A
:1048000086E0EFE7F2E0DF011D928A95E9F7F12CEF
:10481000B6CF20E040917F025091800260918102EA
:1048200070918202809183020E94341680917A02F4
:1048300080FDD0CFA6016E2D872D0E9481098111A8
:1048400026C081E08625B82FB170CB2E80FF2DC009
:10485000462D6E2D872D0E946109D82E811125C00D
:104860007D86EE868D859E850E942616292F2295AF
:104870002F70223070F0243098F49F7071F0F8019E
:104880009581907F51F4FD2C7ACF80E0ACCF80E011
:10489000DACF9F7011F08823B1F3805E883098F3EF
:1048A000C8010E94201DDC2CEECF662009F467CFE2
:1048B00080918402816080938402A9CF8B2D0E9415
:1048C0008109811115C0EA1013C07B1011C061105D
:1048D0000FC0D80115965C92C8010E94201D86E089
:1048E000F801AFE7B2E001900D928A95E1F747CF6A
:1048F0007D86EE868D859E850E943016882309F17F
:104900006620F9F080918402803270F020917F025D
:104910003091800238872F831986DB86CA868C8780
:10492000CE0107960E94201D86E0F801AFE7B2E0B5
:1049300001900D928A95E1F70E94C722FF24F3941B
:104940001ECFC8010E94201DF9CF852D807F09F45C
:1049500053CF90907F0280908002409182025091CC
:104960008302682D892D0E948109811111C0E810F0
:104970000FC079100DC061100BC0F8015582C8013D
:104980000E94201D86E0D5011D928A95E9F7F7CE99
:104990007D86EE868D859E850E943016882389F25D
:1049A000662079F280918402803208F4BDCF209194
:1049B0007F02309180023A8329831B82DD82CC8280
:1049C0008E83CE010196AECF60E07091820280911D
:1049D00083020E94341680917502909176028816A7
:1049E000990680F6F62C662009F4ABCFD0907F02B2
:1049F000C090800240918202509183026C2D8D2DD7
:104A00000E948109811128C0EC1026C07D1024C0AD
:104A100020E0472D5E2D609181027091820280918D
:104A200083020E94341680917A0282FD58CF9091C1
:104A3000840290FD54CF907F09F451CF809184027D
:104A4000F8018583903F09F447CF982F907F905FBE
:104A50008F70892B858340CF7D86EE868D859E85E0
:104A60000E943016811160CF809184028160809312
:104A70008402C8010E94201D82CE662009F461CF05
:104A80007D86EE868D859E850E943016F82E8823C1
:104A900009F457CF86E0F801AFE7B2E001900D923C
:104AA0008A95E1F780917F02909180020E942616FC
:104AB0000E94C72264CECF92DF92FF920F931F9382
:104AC000CF93DF93CDB7DEB767970FB6F894DEBF0D
:104AD0000FBECDBFF42E4B8B052F5C8B162F6D8B2D
:104AE0007E8B8F8BCE88DF88A601602F8F2D0E9452
:104AF0008109811109C080915A0290915B0201964F
:104B000090935B0280935A0211111092E0021A8A6C
:104B1000198AFD860E871F87D98AC88A86E0FE011A
:104B20003D96DE01179601900D928A95E1F7CE0130
:104B300007960E943E23811111C086E0FE01379640
:104B4000DE01119601900D928A95E1F74A855B8509
:104B500068858F810E9481098823A9F016E08091E1
:104B6000B6029091850289133DC067960FB6F894FE
:104B7000DEBF0FBECDBFDF91CF911F910F91FF9090
:104B8000DF90CF9008952091850230E0C901019611
:104B9000877099274091B6024817190699F096E058
:104BA000929FD001939FB00D1124AA57BD4FFE01D3
:104BB000319601900D929A95E1F7809385020E94BB
:104BC0008C09CCCF10925A030E94A2171092850232
:104BD0001092B60286E0EFE7F2E0DF011D928A95BF
:104BE000E9F7BCCF819FC00111248A579D4F0E94D5
:104BF0003E23882309F4B9CF8091B60290E0019654
:104C0000877099278093B602AACFCF93DF9300D005
:104C100000D00F92CDB7DEB790934F0280934E0233
:104C2000811520E2920748F40F900F900F900F909B
:104C30000F90DF91CF910C94760E8EEF89838A834B
:104C40001B820E94DA088160782F9D838C834981C2
:104C50005A816B818D810F900F900F900F900F9064
:104C6000DF91CF910C945B25CF93DF9300D000D0E0
:104C70000F92CDB7DEB790934F0280934E0281150D
:104C800020E2920748F40F900F900F900F900F9032
:104C9000DF91CF910C948B0E8EEF89838A8381E014
:104CA0008B830E94DA088160782F9D838C834981F1
:104CB0005A816B818D810F900F900F900F900F9004
:104CC000DF91CF910C945B25AF92BF92CF92DF9290
:104CD000EF92FF920F931F93CF93DF93B82EA62EE0
:104CE000C0905E04D0905F04E0906004F090610496
:104CF0008091E1029091E202A091E302B091E4027E
:104D0000C82AD92AEA2AFB2ACFE1D0E0D701C60176
:104D10000C2E04C0B695A795979587950A94D2F75F
:104D200080FF20C04A2D6B2D8C2F0E94F8138C0120
:104D300081309105B9F00E9434268FE39CE90197F8
:104D4000F1F700C00000C8010E94052681E0DF9154
:104D5000CF911F910F91FF90EF90DF90CF90BF9078
:104D6000AF900895219790F64A2D6B2D80E00E9418
:104D7000F813EC010E9434268FE39CE90197F1F7C8
:104D800000C00000CE01E0CF7F928F929F92AF9241
:104D9000BF92CF92DF92EF92FF920F931F93CF9328
:104DA000DF93CDB7DEB7AF970FB6F894DEBF0FBE77
:104DB000CDBF962FBA012132310508F0AAC040EFCD
:104DC00049831A821B821C82790142E0E40EF11CA5
:104DD0000CE210E00E191F09A1E0B0E0AC0FBD1FFE
:104DE0000A0F1B1FF80180839183A901C801029655
:104DF0000E948D35C70167E070E00E94D7349B01A7
:104E0000B801FE01319650E040E02417350709F063
:104E100094C0C70167E070E00E94D734A90163E045
:104E2000440F551F6A95E1F70097B1F1E5E0F0E016
:104E3000EC0FFD1FE40FF51F1082A7E0A29FB00149
:104E4000A39F700D1124060F171FDA011596CC24AD
:104E5000C394D12CCC0EDD1ECA0EDB1E70E060E0C8
:104E6000D801FD908D016F5F7F4F2F2D207830E0AE
:104E7000062E02C0359527950A94E2F73081232B40
:104E800020832F2D2F77D6012D936D01861797073D
:104E900039F70196480F591F5A01B5E0AB0EB11C06
:104EA000E5E0F0E0EC0FFD1F4E0F5F1F87EFDA012A
:104EB0008C93F12CE12C1DA61EA61FA66501CE1811
:104EC000DF08B4E0CB16D10418F083E0C82ED12C53
:104ED00061E070E06C0F7D1F6E0D7F1DA601CE019D
:104EE0008D960E948D35E0917103F09172030FA5AC
:104EF0002EA54DA5B60181E793E00995E3E0EE0EFE
:104F0000F11CEA14FB04B8F20FB6F894DEBF0FBE32
:104F1000CDBFAF960FB6F894DEBF0FBECDBFDF9109
:104F2000CF911F910F91FF90EF90DF90CF90BF90A6
:104F3000AF909F908F907F90089514825F0185E0DD
:104F4000A80EB11C6B0190E080E0D6017D906D0150
:104F50000196A72DA078B0E0082E02C0B595A795C0
:104F60000A94E2F7B481AB2BA483E89477F8D501D7
:104F70007D925D018730910541F74F5F5F4F695F1B
:104F80007F4F389642CF2F923F924F925F926F920F
:104F90007F928F929F92AF92BF92CF92DF92EF92C9
:104FA000FF920F931F93CF93DF93CDB7DEB7A497F4
:104FB0000FB6F894DEBF0FBECDBFF9016450710982
:104FC00090E080E0841708F05AC077FD4FC1DF0100
:104FD000A80FB91F3C91373F09F040C1462F4770D9
:104FE000542E5B0153E0B694A7945A95E1F727E05D
:104FF0002A9DC0012B9D900D11249C01442321F07A
:10500000240F311D215031096230710514F1DE0188
:10501000119645EE242E42E0342E10E000E03D01D2
:105020000A151B0509F04BC0552099F0687FAB01AC
:105030004B515D4F7A01DA01860D971D70E060E0FB
:10504000E52DE150FF0B8F0111966017710708F4F1
:105050005CC08981823360F5803388F4813179F0D6
:1050600048F4803109F474C0AE014F5F5F4F60E0D7
:1050700080E892C0803209F459C08132A9F7A49621
:105080000FB6F894DEBF0FBECDBFDF91CF911F9159
:105090000F91FF90EF90DF90CF90BF90AF909F90D7
:1050A0008F907F906F905F904F903F902F900895DA
:1050B0008034D0F2823418F38038B1F6E0CFF101B9
:1050C0008080912C6D0141E050E07101E40EF51EED
:1050D000F7014080E89447F87401042E01C0EE0CFB
:1050E0000A94EAF7FE2DF078EF2EE428F601E1921B
:1050F0006F014F5F5F4F4830510539F70F5F1F4F0A
:105100001796F8E02F0E311C8BCF6F5F7F4FF701A2
:105110004081062E01C0440F0A94EAF740785C9162
:105120005F77452BFC014193CF018ECF8A8184307C
:10513000C9F0863011F1823059F46B8183E090E040
:105140000E94B1356B8170E090E080E00E94990B85
:10515000EA81E150ED3008F092CFF0E0E259F94CED
:105160000C94FF346B8184E090E00E94B13560E0E4
:1051700082E290E00E94B135EBCF6B817C818D8122
:105180009E810E9405350E94A31BE2CF30E020E003
:1051900050E040E061E081E10E94C42670CF82E0EF
:1051A00090E00E949D3589A321E030E0AE014F5D83
:1051B0005F4F68E0F0CF83E090E00E949D3589A3C7
:1051C00021E030E0AE014F5D5F4F62E0E4CF6091DF
:1051D0005E0470915F0480916004909161040E946C
:1051E000053569A37AA38BA39CA324E030E0AE012C
:1051F0004F5D5F4F63E0CFCF30E020E050E040E014
:1052000069E0C9CF30E020E050E040E065E0C3CF86
:1052100088E090E00E94A5350E94053569A37AA335
:105220008BA39CA324E030E0AE014F5D5F4F66E0AE
:10523000B2CF0E94C41389A321E030E0AE014F5DDC
:105240005F4F64E0A8CF84E089A38FE08AA322E0C7
:1052500030E0AE014F5D5F4F6DE09DCF653271056F
:105260000CF00DCFDB01AB51BD4F3C936F5F7F4F17
:105270000196A8CE1F920F920FB60F9211242F9372
:105280003F934F935F936F937F938F939F93AF93CE
:10529000BF93CF93DF93EF93FF93D091E900DF703B
:1052A0008091EC00C82FC17080FDC0E81092E90029
:1052B0008091F000877F8093F00078940E94AB1774
:1052C0001092E9008091F00088608093F000CD2B6F
:1052D000CF70C093E900FF91EF91DF91CF91BF9123
:1052E000AF919F918F917F916F915F914F913F917E
:1052F0002F910F900FBE0F901F9018951F920F9235
:105300000FB60F9211242F933F934F935F936F9398
:105310007F938F939F93AF93BF93EF93FF9380916E
:10532000E10082FF09C08091E20082FF05C0809108
:10533000E1008B7F8093E1008091DA0080FF24C040
:105340008091D80080FF20C08091DA008E7F80930A
:10535000DA008091D90080FF9BC080E189BD82E1A5
:1053600089BD09B400FEFDCF81E080937003809178
:105370005903811109C00E94DE050E94FB0680913D
:10538000E20084608093E2008091E10080FF17C01A
:105390008091E20080FF13C08091E2008E7F8093B5
:1053A000E2008091E20080618093E2008091D80069
:1053B00080628093D80019BC85E08093700380914F
:1053C000E10084FF29C08091E20084FF25C080E1D4
:1053D00089BD82E189BD89B5982F917080FFFBCF8F
:1053E0008091D8008F7D8093D8008091E1008F7EDE
:1053F0008093E1008091E2008F7E8093E2008091B3
:10540000E20081608093E20080916703882309F4C1
:1054100045C084E0809370038091E10083FF27C042
:105420008091E20083FF23C08091E100877F809319
:10543000E10082E080937003109267038091E100A5
:105440008E7F8093E1008091E2008E7F8093E20066
:105450008091E20080618093E20042E060E080E0C1
:105460000E94C9068091F00088608093F000FF914F
:10547000EF91BF91AF919F918F917F916F915F91CC
:105480004F913F912F910F900FBE0F901F90189545
:1054900019BC109270031092590376CF8091E300EB
:1054A00087FD93E090937003B7CFCDB7DEB7E29757
:1054B0000FB6F894DEBF0FBECDBF109296031092C8
:1054C00098031092970380EC80935B0489E993E042
:1054D00090935D0480935C0410925A0410925904D6
:1054E000109276031092750310927803109277034E
:1054F00010927A031092790310927C0310927B032E
:1055000010927E0310927D031092800310927F030D
:1055100010928203109281031092840310928303ED
:1055200010928603109285031092880310928703CD
:1055300010928A03109289031092900310928F03A5
:1055400085EE97E0909372038093710380E498E076
:1055500090939203809391038DEB97E090938E0349
:1055600080938D038EEB97E0909374038093730385
:1055700083EC97E290938C0380938B0384B7877FAF
:1055800084BF0FB6F894A8958091600088618093DD
:105590006000109260000FBE80E890E00FB6F894B3
:1055A00080936100909361000FBE85B7806885BFCE
:1055B00085B7806885BF8BEB97E09093DF01809380
:1055C000DE010E94D2130E94DE050E94FB0680913C
:1055D000E20084608093E2007894809170038823D5
:1055E000A1F01091E9001F709091EC00892F81705B
:1055F00090FD80E8182B1092E9008091E80083FD6F
:105600000E94AB171F701093E90082E084BD93E005
:1056100095BD9AEF97BD80936E0087EF0E94E50DD0
:1056200086E60E94E50D87E90E94E50D86E90E9465
:10563000E50D0BEA11E0FAEBEF2EF1E0FF2ED801B9
:105640008D918D010E94E50DE016F106C1F71092D3
:1056500011031092100310924A0310924903109202
:1056600013031092120310924C0310924B031092EA
:1056700015031092140310924E0310924D031092D2
:105680001703109216031092500310924F0390E0EC
:1056900080E00E94AB358A3E9E4F11F00E94381B7D
:1056A00082E090E00E949D35809335030E94C413F0
:1056B00090930B0380930A030E94A812EFEFF6E782
:1056C00021E0E150F0402040E1F700C000000E94DE
:1056D000A8128091490380FF17C06FEF83E290E02A
:1056E0000E94B1356FEF84E290E00E94B1356FEF18
:1056F00085E290E00E94B1356FEF7FEF90E080E0AF
:105700000E94CF350E94280F83E090E00E949D35D3
:10571000682F70E090E080E00E94990B8CE090E0B0
:105720000E949D3590E0B0E0A0E080930C03909340
:105730000D03A0930E03B0930F0383E290E00E9449
:105740009D358F3411F00C94503484E290E00E9427
:105750009D35853D11F00C94503485E290E00E9417
:105760009D35833111F00C945034809118038111D0
:1057700036C090E080E00E94AB358A3E9E4F21F01B
:105780000E94381B0E94AE1C88E090E00E94A53564
:1057900060934403709345038093460390934703BB
:1057A0006E7F71F40E94AE1C88E090E00E94A535E7
:1057B000609344037093450380934603909347039B
:1057C0000E94460A109243038091440380FF04C064
:1057D00060E086950E94BD1C81E0809318036EEC0A
:1057E00071E046E253E0EAEC8E2EE1E09E2EECEC16
:1057F000F1E021E030E01191812F82958F7090E0EF
:10580000DC019196FC9091971F70E12E690101C017
:10581000CC0C1A95EAF70C2D00950F2191960C935C
:10582000919792961C9192971C2992961C93D40161
:10583000FD904D010F2D02950F7010E0D80191964B
:10584000BC90BF2DBF70FB2E690101C0CC0CBA9576
:10585000EAF7DC2CD094DB20D8019196DC9291976A
:105860009296DC909297DC289296DC92DC019096DE
:105870008C9190E002C095958795EA94E2F781704B
:10588000D80190960C9110E002C015950795FA94F6
:10589000E2F790E000FD92E0892BDA018D93AD01F3
:1058A0006E177F0709F0A7CF89E291E090931A0362
:1058B0008093190351E5252E53E0352E8091700316
:1058C00000E112E1853009F432C20E94A812882357
:1058D00059F08FB7F8944091510350915203609161
:1058E0005303709154038FBFA9E4B3E0E6E3F3E000
:1058F00010E000E0702F8D919D912191319128173A
:10590000390709F426C22827392760E0EE24E394FA
:10591000F12CA9014E215F21452B09F414C269A77E
:105920007AA79C012E213F2191E0232B09F490E0DE
:105930009BA70E94DA088160782F9DA78CA749A5B4
:105940005AA56BA58DA50E945B25000F111FF801BC
:10595000EA5CFC4F80819181E826F926F182E082A1
:10596000809143038823D1F180914203E091440365
:10597000E695E81BE0931E03823009F001C2F0E0D7
:10598000EB5CF94FE4910E2F10E0B4E8EB2EB2E19E
:10599000FB2E80911F03882361F010921F030E9449
:1059A000DA0890931D0380931C0310922103109238
:1059B00020030E94DA08E0911C03F0911D038E1B66
:1059C0009F0B8F3F9F4750F4E00FF11FF0931D0393
:1059D000E0931C038CE193E0F7010995F4E2EF2ECC
:1059E000F3E0FF2E02E213E0AAECAA2EA1E0BA2E09
:1059F000BCEC8B2EB1E09B2E86E2C82E83E0D82E25
:105A0000412C512C94E0692E712CD601ED916D0141
:105A1000EE0FEE0FD4018D914D01A82FA295AF701E
:105A2000B0E090962C9130E08F7002C035952795AC
:105A30008A95E2F721703327D5014D915D01A42F9E
:105A4000A295AF70B0E090968C9190E04F7002C03C
:105A5000959587954A95E2F7AC014170552780FFEF
:105A600002C042E050E0242BE22BD6011197EC93C8
:105A7000EF70F0E0E654FE4F8081F7019081890FCE
:105A8000808320E084304CF0D8018C918F5F8C9320
:105A900060E0852D0E94642621E0F70180818D3F22
:105AA0004CF4D8018C9181508C9361E0852D0E943B
:105AB000642621E0F7018081082E000C990BB301C8
:105AC0000E94EB34D7018D937D01422A0F5F1F4F57
:105AD000B1E05B12C1C1442059F08FB7F8944091F6
